{"contracts/NFTBatchMinting.sol":{"NFTBatchMinting":{"abi":[{"inputs":[{"internalType":"string","name":"_name","type":"string"},{"internalType":"string","name":"_symbol","type":"string"}],"stateMutability":"nonpayable","type":"constructor"},{"anonymous":false,"inputs":[{"indexed":true,"internalType":"address","name":"owner","type":"address"},{"indexed":true,"internalType":"address","name":"approved","type":"address"},{"indexed":true,"internalType":"uint256","name":"tokenId","type":"uint256"}],"name":"Approval","type":"event"},{"anonymous":false,"inputs":[{"indexed":true,"internalType":"address","name":"owner","type":"address"},{"indexed":true,"internalType":"address","name":"operator","type":"address"},{"indexed":false,"internalType":"bool","name":"approved","type":"bool"}],"name":"ApprovalForAll","type":"event"},{"anonymous":false,"inputs":[{"indexed":true,"internalType":"address","name":"previousOwner","type":"address"},{"indexed":true,"internalType":"address","name":"newOwner","type":"address"}],"name":"OwnershipTransferred","type":"event"},{"anonymous":false,"inputs":[{"indexed":false,"internalType":"address","name":"account","type":"address"}],"name":"Paused","type":"event"},{"anonymous":false,"inputs":[{"indexed":true,"internalType":"address","name":"from","type":"address"},{"indexed":true,"internalType":"address","name":"to","type":"address"},{"indexed":true,"internalType":"uint256","name":"tokenId","type":"uint256"}],"name":"Transfer","type":"event"},{"anonymous":false,"inputs":[{"indexed":false,"internalType":"address","name":"account","type":"address"}],"name":"Unpaused","type":"event"},{"inputs":[],"name":"MAX_NFTS","outputs":[{"internalType":"uint256","name":"","type":"uint256"}],"stateMutability":"view","type":"function"},{"inputs":[{"internalType":"address","name":"to","type":"address"},{"internalType":"uint256","name":"tokenId","type":"uint256"}],"name":"approve","outputs":[],"stateMutability":"nonpayable","type":"function"},{"inputs":[{"internalType":"address","name":"owner","type":"address"}],"name":"balanceOf","outputs":[{"internalType":"uint256","name":"","type":"uint256"}],"stateMutability":"view","type":"function"},{"inputs":[{"internalType":"address","name":"toAddress","type":"address"},{"internalType":"string[]","name":"newTokenURIS","type":"string[]"},{"internalType":"uint256","name":"_count","type":"uint256"}],"name":"batchMint","outputs":[],"stateMutability":"payable","type":"function"},{"inputs":[{"internalType":"address[]","name":"toAddresses","type":"address[]"},{"internalType":"string[]","name":"newTokenURIS","type":"string[]"},{"internalType":"uint256","name":"_count","type":"uint256"}],"name":"batchMintByAdmin","outputs":[],"stateMutability":"nonpayable","type":"function"},{"inputs":[{"internalType":"uint256","name":"tokenId","type":"uint256"}],"name":"burn","outputs":[],"stateMutability":"nonpayable","type":"function"},{"inputs":[{"internalType":"uint256","name":"tokenId","type":"uint256"}],"name":"getApproved","outputs":[{"internalType":"address","name":"","type":"address"}],"stateMutability":"view","type":"function"},{"inputs":[],"name":"getMaxMint","outputs":[{"internalType":"uint256","name":"","type":"uint256"}],"stateMutability":"view","type":"function"},{"inputs":[],"name":"getMaxNfts","outputs":[{"internalType":"uint256","name":"","type":"uint256"}],"stateMutability":"view","type":"function"},{"inputs":[],"name":"getNFTPrice","outputs":[{"internalType":"uint256","name":"","type":"uint256"}],"stateMutability":"view","type":"function"},{"inputs":[{"internalType":"address","name":"owner","type":"address"},{"internalType":"address","name":"operator","type":"address"}],"name":"isApprovedForAll","outputs":[{"internalType":"bool","name":"","type":"bool"}],"stateMutability":"view","type":"function"},{"inputs":[],"name":"maxMint","outputs":[{"internalType":"uint256","name":"","type":"uint256"}],"stateMutability":"view","type":"function"},{"inputs":[],"name":"name","outputs":[{"internalType":"string","name":"","type":"string"}],"stateMutability":"view","type":"function"},{"inputs":[],"name":"nftPrice","outputs":[{"internalType":"uint256","name":"","type":"uint256"}],"stateMutability":"view","type":"function"},{"inputs":[],"name":"owner","outputs":[{"internalType":"address","name":"","type":"address"}],"stateMutability":"view","type":"function"},{"inputs":[{"internalType":"uint256","name":"tokenId","type":"uint256"}],"name":"ownerOf","outputs":[{"internalType":"address","name":"","type":"address"}],"stateMutability":"view","type":"function"},{"inputs":[],"name":"pause","outputs":[],"stateMutability":"nonpayable","type":"function"},{"inputs":[],"name":"paused","outputs":[{"internalType":"bool","name":"","type":"bool"}],"stateMutability":"view","type":"function"},{"inputs":[],"name":"renounceOwnership","outputs":[],"stateMutability":"nonpayable","type":"function"},{"inputs":[{"internalType":"address","name":"to","type":"address"},{"internalType":"string","name":"uri","type":"string"}],"name":"safeMint","outputs":[],"stateMutability":"nonpayable","type":"function"},{"inputs":[{"internalType":"address","name":"from","type":"address"},{"internalType":"address","name":"to","type":"address"},{"internalType":"uint256","name":"tokenId","type":"uint256"}],"name":"safeTransferFrom","outputs":[],"stateMutability":"nonpayable","type":"function"},{"inputs":[{"internalType":"address","name":"from","type":"address"},{"internalType":"address","name":"to","type":"address"},{"internalType":"uint256","name":"tokenId","type":"uint256"},{"internalType":"bytes","name":"_data","type":"bytes"}],"name":"safeTransferFrom","outputs":[],"stateMutability":"nonpayable","type":"function"},{"inputs":[{"internalType":"address","name":"operator","type":"address"},{"internalType":"bool","name":"approved","type":"bool"}],"name":"setApprovalForAll","outputs":[],"stateMutability":"nonpayable","type":"function"},{"inputs":[{"internalType":"uint256","name":"newMaxMint","type":"uint256"}],"name":"setMaxMint","outputs":[],"stateMutability":"nonpayable","type":"function"},{"inputs":[{"internalType":"uint256","name":"newMaxNfts","type":"uint256"}],"name":"setMaxNfts","outputs":[],"stateMutability":"nonpayable","type":"function"},{"inputs":[{"internalType":"uint256","name":"newPrice","type":"uint256"}],"name":"setNFTPrice","outputs":[],"stateMutability":"nonpayable","type":"function"},{"inputs":[{"internalType":"bytes4","name":"interfaceId","type":"bytes4"}],"name":"supportsInterface","outputs":[{"internalType":"bool","name":"","type":"bool"}],"stateMutability":"view","type":"function"},{"inputs":[],"name":"symbol","outputs":[{"internalType":"string","name":"","type":"string"}],"stateMutability":"view","type":"function"},{"inputs":[{"internalType":"uint256","name":"index","type":"uint256"}],"name":"tokenByIndex","outputs":[{"internalType":"uint256","name":"","type":"uint256"}],"stateMutability":"view","type":"function"},{"inputs":[{"internalType":"address","name":"owner","type":"address"},{"internalType":"uint256","name":"index","type":"uint256"}],"name":"tokenOfOwnerByIndex","outputs":[{"internalType":"uint256","name":"","type":"uint256"}],"stateMutability":"view","type":"function"},{"inputs":[{"internalType":"uint256","name":"tokenId","type":"uint256"}],"name":"tokenURI","outputs":[{"internalType":"string","name":"","type":"string"}],"stateMutability":"view","type":"function"},{"inputs":[{"internalType":"address","name":"_owner","type":"address"}],"name":"tokensOfOwner","outputs":[{"internalType":"uint256[]","name":"ownerTokens","type":"uint256[]"}],"stateMutability":"view","type":"function"},{"inputs":[],"name":"totalSupply","outputs":[{"internalType":"uint256","name":"","type":"uint256"}],"stateMutability":"view","type":"function"},{"inputs":[{"internalType":"address","name":"from","type":"address"},{"internalType":"address","name":"to","type":"address"},{"internalType":"uint256","name":"tokenId","type":"uint256"}],"name":"transferFrom","outputs":[],"stateMutability":"nonpayable","type":"function"},{"inputs":[{"internalType":"address","name":"newOwner","type":"address"}],"name":"transferOwnership","outputs":[],"stateMutability":"nonpayable","type":"function"},{"inputs":[],"name":"unpause","outputs":[],"stateMutability":"nonpayable","type":"function"},{"inputs":[{"internalType":"uint256","name":"tokenId","type":"uint256"},{"internalType":"string","name":"uri","type":"string"}],"name":"updateTokenURI","outputs":[],"stateMutability":"nonpayable","type":"function"},{"inputs":[],"name":"withdraw","outputs":[],"stateMutability":"nonpayable","type":"function"}],"evm":{"bytecode":{"linkReferences":{},"object":"60806040526101f6600d556014600e55662386f26fc10000600f553480156200002757600080fd5b506040516200610e3803806200610e83398181016040528101906200004d919062000319565b81818160009081620000609190620005e9565b508060019081620000729190620005e9565b5050506000600b60006101000a81548160ff021916908315150217905550620000b0620000a4620000b860201b60201c565b620000c060201b60201c565b5050620006d0565b600033905090565b6000600b60019054906101000a900473ffffffffffffffffffffffffffffffffffffffff16905081600b60016101000a81548173ffffffffffffffffffffffffffffffffffffffff021916908373ffffffffffffffffffffffffffffffffffffffff1602179055508173ffffffffffffffffffffffffffffffffffffffff168173ffffffffffffffffffffffffffffffffffffffff167f8be0079c531659141344cd1fd0a4f28419497f9722a3daafe3b4186f6b6457e060405160405180910390a35050565b6000604051905090565b600080fd5b600080fd5b600080fd5b600080fd5b6000601f19601f8301169050919050565b7f4e487b7100000000000000000000000000000000000000000000000000000000600052604160045260246000fd5b620001ef82620001a4565b810181811067ffffffffffffffff82111715620002115762000210620001b5565b5b80604052505050565b60006200022662000186565b9050620002348282620001e4565b919050565b600067ffffffffffffffff821115620002575762000256620001b5565b5b6200026282620001a4565b9050602081019050919050565b60005b838110156200028f57808201518184015260208101905062000272565b60008484015250505050565b6000620002b2620002ac8462000239565b6200021a565b905082815260208101848484011115620002d157620002d06200019f565b5b620002de8482856200026f565b509392505050565b600082601f830112620002fe57620002fd6200019a565b5b8151620003108482602086016200029b565b91505092915050565b6000806040838503121562000333576200033262000190565b5b600083015167ffffffffffffffff81111562000354576200035362000195565b5b6200036285828601620002e6565b925050602083015167ffffffffffffffff81111562000386576200038562000195565b5b6200039485828601620002e6565b9150509250929050565b600081519050919050565b7f4e487b7100000000000000000000000000000000000000000000000000000000600052602260045260246000fd5b60006002820490506001821680620003f157607f821691505b602082108103620004075762000406620003a9565b5b50919050565b60008190508160005260206000209050919050565b60006020601f8301049050919050565b600082821b905092915050565b600060088302620004717fffffffffffffffffffffffffffffffffffffffffffffffffffffffffffffffff8262000432565b6200047d868362000432565b95508019841693508086168417925050509392505050565b6000819050919050565b6000819050919050565b6000620004ca620004c4620004be8462000495565b6200049f565b62000495565b9050919050565b6000819050919050565b620004e683620004a9565b620004fe620004f582620004d1565b8484546200043f565b825550505050565b600090565b6200051562000506565b62000522818484620004db565b505050565b5b818110156200054a576200053e6000826200050b565b60018101905062000528565b5050565b601f821115620005995762000563816200040d565b6200056e8462000422565b810160208510156200057e578190505b620005966200058d8562000422565b83018262000527565b50505b505050565b600082821c905092915050565b6000620005be600019846008026200059e565b1980831691505092915050565b6000620005d98383620005ab565b9150826002028217905092915050565b620005f4826200039e565b67ffffffffffffffff81111562000610576200060f620001b5565b5b6200061c8254620003d8565b620006298282856200054e565b600060209050601f8311600181146200066157600084156200064c578287015190505b620006588582620005cb565b865550620006c8565b601f19841662000671866200040d565b60005b828110156200069b5784890151825560018201915060208501945060208101905062000674565b86831015620006bb5784890151620006b7601f891682620005ab565b8355505b6001600288020188555050505b505050505050565b615a2e80620006e06000396000f3fe6080604052600436106102255760003560e01c80635c975abb1161012357806395d89b41116100ab578063c87b56dd1161006f578063c87b56dd146107be578063d204c45e146107fb578063e985e9c514610824578063f2fde38b14610861578063fb107a4f1461088a57610225565b806395d89b41146106fa578063a224583214610725578063a22cb46514610750578063b5d279e714610779578063b88d4fde1461079557610225565b80637501f741116100f25780637501f7411461062757806381530b68146106525780638456cb591461067b5780638462151c146106925780638da5cb5b146106cf57610225565b80635c975abb1461056b5780636352211e1461059657806370a08231146105d3578063715018a61461061057610225565b806323b872dd116101b15780633f4ba83a116101755780633f4ba83a1461049c57806342842e0e146104b357806342966c68146104dc5780634f6ccce714610505578063547520fe1461054257610225565b806323b872dd146103cd5780632f745c59146103f65780633a329d95146104335780633c1a291f1461045c5780633ccfd60b1461048557610225565b8063095ea7b3116101f8578063095ea7b3146102fa5780630d39fc811461032357806318160ddd1461034e57806318e97fd1146103795780631f46452f146103a257610225565b806301ffc9a71461022a57806306fdde0314610267578063081812fc14610292578063093d8c64146102cf575b600080fd5b34801561023657600080fd5b50610251600480360381019061024c9190613788565b6108b5565b60405161025e91906137d0565b60405180910390f35b34801561027357600080fd5b5061027c6108c7565b604051610289919061387b565b60405180910390f35b34801561029e57600080fd5b506102b960048036038101906102b491906138d3565b610959565b6040516102c69190613941565b60405180910390f35b3480156102db57600080fd5b506102e46109de565b6040516102f1919061396b565b60405180910390f35b34801561030657600080fd5b50610321600480360381019061031c91906139b2565b6109e4565b005b34801561032f57600080fd5b50610338610afb565b604051610345919061396b565b60405180910390f35b34801561035a57600080fd5b50610363610b01565b604051610370919061396b565b60405180910390f35b34801561038557600080fd5b506103a0600480360381019061039b9190613b27565b610b0e565b005b3480156103ae57600080fd5b506103b7610b98565b6040516103c4919061396b565b60405180910390f35b3480156103d957600080fd5b506103f460048036038101906103ef9190613b83565b610ba2565b005b34801561040257600080fd5b5061041d600480360381019061041891906139b2565b610c02565b60405161042a919061396b565b60405180910390f35b34801561043f57600080fd5b5061045a600480360381019061045591906138d3565b610ca7565b005b34801561046857600080fd5b50610483600480360381019061047e9190613d7f565b610d2d565b005b34801561049157600080fd5b5061049a611027565b005b3480156104a857600080fd5b506104b16111c2565b005b3480156104bf57600080fd5b506104da60048036038101906104d59190613b83565b611248565b005b3480156104e857600080fd5b5061050360048036038101906104fe91906138d3565b611268565b005b34801561051157600080fd5b5061052c600480360381019061052791906138d3565b6112c4565b604051610539919061396b565b60405180910390f35b34801561054e57600080fd5b50610569600480360381019061056491906138d3565b611335565b005b34801561057757600080fd5b506105806113bb565b60405161058d91906137d0565b60405180910390f35b3480156105a257600080fd5b506105bd60048036038101906105b891906138d3565b6113d2565b6040516105ca9190613941565b60405180910390f35b3480156105df57600080fd5b506105fa60048036038101906105f59190613e0a565b611483565b604051610607919061396b565b60405180910390f35b34801561061c57600080fd5b5061062561153a565b005b34801561063357600080fd5b5061063c6115c2565b604051610649919061396b565b60405180910390f35b34801561065e57600080fd5b50610679600480360381019061067491906138d3565b6115c8565b005b34801561068757600080fd5b5061069061164e565b005b34801561069e57600080fd5b506106b960048036038101906106b49190613e0a565b6116d4565b6040516106c69190613ef5565b60405180910390f35b3480156106db57600080fd5b506106e4611830565b6040516106f19190613941565b60405180910390f35b34801561070657600080fd5b5061070f61185a565b60405161071c919061387b565b60405180910390f35b34801561073157600080fd5b5061073a6118ec565b604051610747919061396b565b60405180910390f35b34801561075c57600080fd5b5061077760048036038101906107729190613f43565b6118f6565b005b610793600480360381019061078e9190613f83565b61190c565b005b3480156107a157600080fd5b506107bc60048036038101906107b79190614093565b611b7c565b005b3480156107ca57600080fd5b506107e560048036038101906107e091906138d3565b611bde565b6040516107f2919061387b565b60405180910390f35b34801561080757600080fd5b50610822600480360381019061081d9190614116565b611bf0565b005b34801561083057600080fd5b5061084b60048036038101906108469190614172565b611d2e565b60405161085891906137d0565b60405180910390f35b34801561086d57600080fd5b5061088860048036038101906108839190613e0a565b611dc2565b005b34801561089657600080fd5b5061089f611eb9565b6040516108ac919061396b565b60405180910390f35b60006108c082611ec3565b9050919050565b6060600080546108d6906141e1565b80601f0160208091040260200160405190810160405280929190818152602001828054610902906141e1565b801561094f5780601f106109245761010080835404028352916020019161094f565b820191906000526020600020905b81548152906001019060200180831161093257829003601f168201915b5050505050905090565b600061096482611f3d565b6109a3576040517f08c379a000000000000000000000000000000000000000000000000000000000815260040161099a90614284565b60405180910390fd5b6004600083815260200190815260200160002060009054906101000a900473ffffffffffffffffffffffffffffffffffffffff169050919050565b600d5481565b60006109ef826113d2565b90508073ffffffffffffffffffffffffffffffffffffffff168373ffffffffffffffffffffffffffffffffffffffff1603610a5f576040517f08c379a0000000000000000000000000000000000000000000000000000000008152600401610a5690614316565b60405180910390fd5b8073ffffffffffffffffffffffffffffffffffffffff16610a7e611fa9565b73ffffffffffffffffffffffffffffffffffffffff161480610aad5750610aac81610aa7611fa9565b611d2e565b5b610aec576040517f08c379a0000000000000000000000000000000000000000000000000000000008152600401610ae3906143a8565b60405180910390fd5b610af68383611fb1565b505050565b600f5481565b6000600880549050905090565b610b16611fa9565b73ffffffffffffffffffffffffffffffffffffffff16610b34611830565b73ffffffffffffffffffffffffffffffffffffffff1614610b8a576040517f08c379a0000000000000000000000000000000000000000000000000000000008152600401610b8190614414565b60405180910390fd5b610b94828261206a565b5050565b6000600e54905090565b610bb3610bad611fa9565b826120d7565b610bf2576040517f08c379a0000000000000000000000000000000000000000000000000000000008152600401610be9906144a6565b60405180910390fd5b610bfd8383836121b5565b505050565b6000610c0d83611483565b8210610c4e576040517f08c379a0000000000000000000000000000000000000000000000000000000008152600401610c4590614538565b60405180910390fd5b600660008473ffffffffffffffffffffffffffffffffffffffff1673ffffffffffffffffffffffffffffffffffffffff168152602001908152602001600020600083815260200190815260200160002054905092915050565b610caf611fa9565b73ffffffffffffffffffffffffffffffffffffffff16610ccd611830565b73ffffffffffffffffffffffffffffffffffffffff1614610d23576040517f08c379a0000000000000000000000000000000000000000000000000000000008152600401610d1a90614414565b60405180910390fd5b80600d8190555050565b610d35611fa9565b73ffffffffffffffffffffffffffffffffffffffff16610d53611830565b73ffffffffffffffffffffffffffffffffffffffff1614610da9576040517f08c379a0000000000000000000000000000000000000000000000000000000008152600401610da090614414565b60405180910390fd5b6000835111610ded576040517f08c379a0000000000000000000000000000000000000000000000000000000008152600401610de4906145a4565b60405180910390fd5b6000825111610e31576040517f08c379a0000000000000000000000000000000000000000000000000000000008152600401610e2890614610565b60405180910390fd5b60008111610e74576040517f08c379a0000000000000000000000000000000000000000000000000000000008152600401610e6b9061467c565b60405180910390fd5b600d54610e81600c61241b565b10610ec1576040517f08c379a0000000000000000000000000000000000000000000000000000000008152600401610eb8906146e8565b60405180910390fd5b600d5481610ecf600c61241b565b610ed99190614737565b1115610f1a576040517f08c379a0000000000000000000000000000000000000000000000000000000008152600401610f11906147dd565b60405180910390fd5b600e54811115610f5f576040517f08c379a0000000000000000000000000000000000000000000000000000000008152600401610f569061486f565b60405180910390fd5b80825114610fa2576040517f08c379a0000000000000000000000000000000000000000000000000000000008152600401610f9990614901565b60405180910390fd5b60005b8181101561102157610fb7600c612429565b6000610fc3600c61241b565b9050610fe9858381518110610fdb57610fda614921565b5b60200260200101518261243f565b61100d8185848151811061100057610fff614921565b5b602002602001015161206a565b50808061101990614950565b915050610fa5565b50505050565b61102f611fa9565b73ffffffffffffffffffffffffffffffffffffffff1661104d611830565b73ffffffffffffffffffffffffffffffffffffffff16146110a3576040517f08c379a000000000000000000000000000000000000000000000000000000000815260040161109a90614414565b60405180910390fd5b600047116110e6576040517f08c379a00000000000000000000000000000000000000000000000000000000081526004016110dd90614a0a565b60405180910390fd5b6000806110f1611830565b73ffffffffffffffffffffffffffffffffffffffff164760405161111490614a5b565b60006040518083038185875af1925050503d8060008114611151576040519150601f19603f3d011682016040523d82523d6000602084013e611156565b606091505b5091509150818160405160200161116d9190614b03565b604051602081830303815290604052906111bd576040517f08c379a00000000000000000000000000000000000000000000000000000000081526004016111b4919061387b565b60405180910390fd5b505050565b6111ca611fa9565b73ffffffffffffffffffffffffffffffffffffffff166111e8611830565b73ffffffffffffffffffffffffffffffffffffffff161461123e576040517f08c379a000000000000000000000000000000000000000000000000000000000815260040161123590614414565b60405180910390fd5b61124661245d565b565b61126383838360405180602001604052806000815250611b7c565b505050565b611279611273611fa9565b826120d7565b6112b8576040517f08c379a00000000000000000000000000000000000000000000000000000000081526004016112af90614b97565b60405180910390fd5b6112c1816124ff565b50565b60006112ce610b01565b821061130f576040517f08c379a000000000000000000000000000000000000000000000000000000000815260040161130690614c29565b60405180910390fd5b6008828154811061132357611322614921565b5b90600052602060002001549050919050565b61133d611fa9565b73ffffffffffffffffffffffffffffffffffffffff1661135b611830565b73ffffffffffffffffffffffffffffffffffffffff16146113b1576040517f08c379a00000000000000000000000000000000000000000000000000000000081526004016113a890614414565b60405180910390fd5b80600e8190555050565b6000600b60009054906101000a900460ff16905090565b6000806002600084815260200190815260200160002060009054906101000a900473ffffffffffffffffffffffffffffffffffffffff169050600073ffffffffffffffffffffffffffffffffffffffff168173ffffffffffffffffffffffffffffffffffffffff160361147a576040517f08c379a000000000000000000000000000000000000000000000000000000000815260040161147190614cbb565b60405180910390fd5b80915050919050565b60008073ffffffffffffffffffffffffffffffffffffffff168273ffffffffffffffffffffffffffffffffffffffff16036114f3576040517f08c379a00000000000000000000000000000000000000000000000000000000081526004016114ea90614d4d565b60405180910390fd5b600360008373ffffffffffffffffffffffffffffffffffffffff1673ffffffffffffffffffffffffffffffffffffffff168152602001908152602001600020549050919050565b611542611fa9565b73ffffffffffffffffffffffffffffffffffffffff16611560611830565b73ffffffffffffffffffffffffffffffffffffffff16146115b6576040517f08c379a00000000000000000000000000000000000000000000000000000000081526004016115ad90614414565b60405180910390fd5b6115c0600061250b565b565b600e5481565b6115d0611fa9565b73ffffffffffffffffffffffffffffffffffffffff166115ee611830565b73ffffffffffffffffffffffffffffffffffffffff1614611644576040517f08c379a000000000000000000000000000000000000000000000000000000000815260040161163b90614414565b60405180910390fd5b80600f8190555050565b611656611fa9565b73ffffffffffffffffffffffffffffffffffffffff16611674611830565b73ffffffffffffffffffffffffffffffffffffffff16146116ca576040517f08c379a00000000000000000000000000000000000000000000000000000000081526004016116c190614414565b60405180910390fd5b6116d26125d1565b565b606060006116e183611483565b90506000810361173d57600067ffffffffffffffff811115611706576117056139fc565b5b6040519080825280602002602001820160405280156117345781602001602082028036833780820191505090505b5091505061182b565b60008167ffffffffffffffff811115611759576117586139fc565b5b6040519080825280602002602001820160405280156117875781602001602082028036833780820191505090505b5090506000611794610b01565b9050600080600190505b828111611822578673ffffffffffffffffffffffffffffffffffffffff166117c5826113d2565b73ffffffffffffffffffffffffffffffffffffffff160361180f57808483815181106117f4576117f3614921565b5b602002602001018181525050818061180b90614950565b9250505b808061181a90614950565b91505061179e565b83955050505050505b919050565b6000600b60019054906101000a900473ffffffffffffffffffffffffffffffffffffffff16905090565b606060018054611869906141e1565b80601f0160208091040260200160405190810160405280929190818152602001828054611895906141e1565b80156118e25780601f106118b7576101008083540402835291602001916118e2565b820191906000526020600020905b8154815290600101906020018083116118c557829003601f168201915b5050505050905090565b6000600d54905090565b611908611901611fa9565b8383612674565b5050565b6000825111611950576040517f08c379a000000000000000000000000000000000000000000000000000000000815260040161194790614610565b60405180910390fd5b60008111611993576040517f08c379a000000000000000000000000000000000000000000000000000000000815260040161198a9061467c565b60405180910390fd5b600d546119a0600c61241b565b106119e0576040517f08c379a00000000000000000000000000000000000000000000000000000000081526004016119d7906146e8565b60405180910390fd5b600d54816119ee600c61241b565b6119f89190614737565b1115611a39576040517f08c379a0000000000000000000000000000000000000000000000000000000008152600401611a30906147dd565b60405180910390fd5b600e54811115611a7e576040517f08c379a0000000000000000000000000000000000000000000000000000000008152600401611a759061486f565b60405180910390fd5b80600f54611a8c9190614d6d565b341015611ace576040517f08c379a0000000000000000000000000000000000000000000000000000000008152600401611ac590614e21565b60405180910390fd5b80825114611b11576040517f08c379a0000000000000000000000000000000000000000000000000000000008152600401611b0890614901565b60405180910390fd5b60005b81811015611b7657611b26600c612429565b6000611b32600c61241b565b9050611b3e858261243f565b611b6281858481518110611b5557611b54614921565b5b602002602001015161206a565b508080611b6e90614950565b915050611b14565b50505050565b611b8d611b87611fa9565b836120d7565b611bcc576040517f08c379a0000000000000000000000000000000000000000000000000000000008152600401611bc3906144a6565b60405180910390fd5b611bd8848484846127e0565b50505050565b6060611be98261283c565b9050919050565b611bf8611fa9565b73ffffffffffffffffffffffffffffffffffffffff16611c16611830565b73ffffffffffffffffffffffffffffffffffffffff1614611c6c576040517f08c379a0000000000000000000000000000000000000000000000000000000008152600401611c6390614414565b60405180910390fd5b6000815111611cb0576040517f08c379a0000000000000000000000000000000000000000000000000000000008152600401611ca790614e8d565b60405180910390fd5b600d54611cbd600c61241b565b10611cfd576040517f08c379a0000000000000000000000000000000000000000000000000000000008152600401611cf4906146e8565b60405180910390fd5b611d07600c612429565b6000611d13600c61241b565b9050611d1f838261243f565b611d29818361206a565b505050565b6000600560008473ffffffffffffffffffffffffffffffffffffffff1673ffffffffffffffffffffffffffffffffffffffff16815260200190815260200160002060008373ffffffffffffffffffffffffffffffffffffffff1673ffffffffffffffffffffffffffffffffffffffff16815260200190815260200160002060009054906101000a900460ff16905092915050565b611dca611fa9565b73ffffffffffffffffffffffffffffffffffffffff16611de8611830565b73ffffffffffffffffffffffffffffffffffffffff1614611e3e576040517f08c379a0000000000000000000000000000000000000000000000000000000008152600401611e3590614414565b60405180910390fd5b600073ffffffffffffffffffffffffffffffffffffffff168173ffffffffffffffffffffffffffffffffffffffff1603611ead576040517f08c379a0000000000000000000000000000000000000000000000000000000008152600401611ea490614f1f565b60405180910390fd5b611eb68161250b565b50565b6000600f54905090565b60007f780e9d63000000000000000000000000000000000000000000000000000000007bffffffffffffffffffffffffffffffffffffffffffffffffffffffff1916827bffffffffffffffffffffffffffffffffffffffffffffffffffffffff19161480611f365750611f358261298d565b5b9050919050565b60008073ffffffffffffffffffffffffffffffffffffffff166002600084815260200190815260200160002060009054906101000a900473ffffffffffffffffffffffffffffffffffffffff1673ffffffffffffffffffffffffffffffffffffffff1614159050919050565b600033905090565b816004600083815260200190815260200160002060006101000a81548173ffffffffffffffffffffffffffffffffffffffff021916908373ffffffffffffffffffffffffffffffffffffffff160217905550808273ffffffffffffffffffffffffffffffffffffffff16612024836113d2565b73ffffffffffffffffffffffffffffffffffffffff167f8c5be1e5ebec7d5bd14f71427d1e84f3dd0314c0f7b2291e5b200ac8c7c3b92560405160405180910390a45050565b61207382611f3d565b6120b2576040517f08c379a00000000000000000000000000000000000000000000000000000000081526004016120a990614fb1565b60405180910390fd5b80600a600084815260200190815260200160002090816120d2919061517d565b505050565b60006120e282611f3d565b612121576040517f08c379a0000000000000000000000000000000000000000000000000000000008152600401612118906152c1565b60405180910390fd5b600061212c836113d2565b90508073ffffffffffffffffffffffffffffffffffffffff168473ffffffffffffffffffffffffffffffffffffffff16148061219b57508373ffffffffffffffffffffffffffffffffffffffff1661218384610959565b73ffffffffffffffffffffffffffffffffffffffff16145b806121ac57506121ab8185611d2e565b5b91505092915050565b8273ffffffffffffffffffffffffffffffffffffffff166121d5826113d2565b73ffffffffffffffffffffffffffffffffffffffff161461222b576040517f08c379a000000000000000000000000000000000000000000000000000000000815260040161222290615353565b60405180910390fd5b600073ffffffffffffffffffffffffffffffffffffffff168273ffffffffffffffffffffffffffffffffffffffff160361229a576040517f08c379a0000000000000000000000000000000000000000000000000000000008152600401612291906153e5565b60405180910390fd5b6122a5838383612a6f565b6122b0600082611fb1565b6001600360008573ffffffffffffffffffffffffffffffffffffffff1673ffffffffffffffffffffffffffffffffffffffff16815260200190815260200160002060008282546123009190615405565b925050819055506001600360008473ffffffffffffffffffffffffffffffffffffffff1673ffffffffffffffffffffffffffffffffffffffff16815260200190815260200160002060008282546123579190614737565b92505081905550816002600083815260200190815260200160002060006101000a81548173ffffffffffffffffffffffffffffffffffffffff021916908373ffffffffffffffffffffffffffffffffffffffff160217905550808273ffffffffffffffffffffffffffffffffffffffff168473ffffffffffffffffffffffffffffffffffffffff167fddf252ad1be2c89b69c2b068fc378daa952ba7f163c4a11628f55a4df523b3ef60405160405180910390a4612416838383612ac7565b505050565b600081600001549050919050565b6001816000016000828254019250508190555050565b612459828260405180602001604052806000815250612acc565b5050565b6124656113bb565b6124a4576040517f08c379a000000000000000000000000000000000000000000000000000000000815260040161249b90615485565b60405180910390fd5b6000600b60006101000a81548160ff0219169083151502179055507f5db9ee0a495bf2e6ff9c91a7834c1ba4fdd244a5e8aa4e537bd38aeae4b073aa6124e8611fa9565b6040516124f59190613941565b60405180910390a1565b61250881612b27565b50565b6000600b60019054906101000a900473ffffffffffffffffffffffffffffffffffffffff16905081600b60016101000a81548173ffffffffffffffffffffffffffffffffffffffff021916908373ffffffffffffffffffffffffffffffffffffffff1602179055508173ffffffffffffffffffffffffffffffffffffffff168173ffffffffffffffffffffffffffffffffffffffff167f8be0079c531659141344cd1fd0a4f28419497f9722a3daafe3b4186f6b6457e060405160405180910390a35050565b6125d96113bb565b15612619576040517f08c379a0000000000000000000000000000000000000000000000000000000008152600401612610906154f1565b60405180910390fd5b6001600b60006101000a81548160ff0219169083151502179055507f62e78cea01bee320cd4e420270b5ea74000d11b0c9f74754ebdbfc544b05a25861265d611fa9565b60405161266a9190613941565b60405180910390a1565b8173ffffffffffffffffffffffffffffffffffffffff168373ffffffffffffffffffffffffffffffffffffffff16036126e2576040517f08c379a00000000000000000000000000000000000000000000000000000000081526004016126d99061555d565b60405180910390fd5b80600560008573ffffffffffffffffffffffffffffffffffffffff1673ffffffffffffffffffffffffffffffffffffffff16815260200190815260200160002060008473ffffffffffffffffffffffffffffffffffffffff1673ffffffffffffffffffffffffffffffffffffffff16815260200190815260200160002060006101000a81548160ff0219169083151502179055508173ffffffffffffffffffffffffffffffffffffffff168373ffffffffffffffffffffffffffffffffffffffff167f17307eab39ab6107e8899845ad3d59bd9653f200f220920489ca2b5937696c31836040516127d391906137d0565b60405180910390a3505050565b6127eb8484846121b5565b6127f784848484612b7a565b612836576040517f08c379a000000000000000000000000000000000000000000000000000000000815260040161282d906155ef565b60405180910390fd5b50505050565b606061284782611f3d565b612886576040517f08c379a000000000000000000000000000000000000000000000000000000000815260040161287d90615681565b60405180910390fd5b6000600a600084815260200190815260200160002080546128a6906141e1565b80601f01602080910402602001604051908101604052809291908181526020018280546128d2906141e1565b801561291f5780601f106128f45761010080835404028352916020019161291f565b820191906000526020600020905b81548152906001019060200180831161290257829003601f168201915b505050505090506000612930612d01565b90506000815103612945578192505050612988565b60008251111561297a5780826040516020016129629291906156d2565b60405160208183030381529060405292505050612988565b61298384612d18565b925050505b919050565b60007f80ac58cd000000000000000000000000000000000000000000000000000000007bffffffffffffffffffffffffffffffffffffffffffffffffffffffff1916827bffffffffffffffffffffffffffffffffffffffffffffffffffffffff19161480612a5857507f5b5e139f000000000000000000000000000000000000000000000000000000007bffffffffffffffffffffffffffffffffffffffffffffffffffffffff1916827bffffffffffffffffffffffffffffffffffffffffffffffffffffffff1916145b80612a685750612a6782612dbf565b5b9050919050565b612a776113bb565b15612ab7576040517f08c379a0000000000000000000000000000000000000000000000000000000008152600401612aae906154f1565b60405180910390fd5b612ac2838383612e29565b505050565b505050565b612ad68383612f3b565b612ae36000848484612b7a565b612b22576040517f08c379a0000000000000000000000000000000000000000000000000000000008152600401612b19906155ef565b60405180910390fd5b505050565b612b3081613114565b6000600a60008381526020019081526020016000208054612b50906141e1565b905014612b7757600a60008281526020019081526020016000206000612b7691906136bf565b5b50565b6000612b9b8473ffffffffffffffffffffffffffffffffffffffff16613231565b15612cf4578373ffffffffffffffffffffffffffffffffffffffff1663150b7a02612bc4611fa9565b8786866040518563ffffffff1660e01b8152600401612be69493929190615740565b6020604051808303816000875af1925050508015612c2257506040513d601f19601f82011682018060405250810190612c1f91906157a1565b60015b612ca4573d8060008114612c52576040519150601f19603f3d011682016040523d82523d6000602084013e612c57565b606091505b506000815103612c9c576040517f08c379a0000000000000000000000000000000000000000000000000000000008152600401612c93906155ef565b60405180910390fd5b805181602001fd5b63150b7a0260e01b7bffffffffffffffffffffffffffffffffffffffffffffffffffffffff1916817bffffffffffffffffffffffffffffffffffffffffffffffffffffffff191614915050612cf9565b600190505b949350505050565b606060405180602001604052806000815250905090565b6060612d2382611f3d565b612d62576040517f08c379a0000000000000000000000000000000000000000000000000000000008152600401612d5990615840565b60405180910390fd5b6000612d6c612d01565b90506000815111612d8c5760405180602001604052806000815250612db7565b80612d9684613254565b604051602001612da79291906156d2565b6040516020818303038152906040525b915050919050565b60007f01ffc9a7000000000000000000000000000000000000000000000000000000007bffffffffffffffffffffffffffffffffffffffffffffffffffffffff1916827bffffffffffffffffffffffffffffffffffffffffffffffffffffffff1916149050919050565b612e348383836133b4565b600073ffffffffffffffffffffffffffffffffffffffff168373ffffffffffffffffffffffffffffffffffffffff1603612e7657612e71816133b9565b612eb5565b8173ffffffffffffffffffffffffffffffffffffffff168373ffffffffffffffffffffffffffffffffffffffff1614612eb457612eb38382613402565b5b5b600073ffffffffffffffffffffffffffffffffffffffff168273ffffffffffffffffffffffffffffffffffffffff1603612ef757612ef28161356f565b612f36565b8273ffffffffffffffffffffffffffffffffffffffff168273ffffffffffffffffffffffffffffffffffffffff1614612f3557612f348282613640565b5b5b505050565b600073ffffffffffffffffffffffffffffffffffffffff168273ffffffffffffffffffffffffffffffffffffffff1603612faa576040517f08c379a0000000000000000000000000000000000000000000000000000000008152600401612fa1906158ac565b60405180910390fd5b612fb381611f3d565b15612ff3576040517f08c379a0000000000000000000000000000000000000000000000000000000008152600401612fea90615918565b60405180910390fd5b612fff60008383612a6f565b6001600360008473ffffffffffffffffffffffffffffffffffffffff1673ffffffffffffffffffffffffffffffffffffffff168152602001908152602001600020600082825461304f9190614737565b92505081905550816002600083815260200190815260200160002060006101000a81548173ffffffffffffffffffffffffffffffffffffffff021916908373ffffffffffffffffffffffffffffffffffffffff160217905550808273ffffffffffffffffffffffffffffffffffffffff16600073ffffffffffffffffffffffffffffffffffffffff167fddf252ad1be2c89b69c2b068fc378daa952ba7f163c4a11628f55a4df523b3ef60405160405180910390a461311060008383612ac7565b5050565b600061311f826113d2565b905061312d81600084612a6f565b613138600083611fb1565b6001600360008373ffffffffffffffffffffffffffffffffffffffff1673ffffffffffffffffffffffffffffffffffffffff16815260200190815260200160002060008282546131889190615405565b925050819055506002600083815260200190815260200160002060006101000a81549073ffffffffffffffffffffffffffffffffffffffff021916905581600073ffffffffffffffffffffffffffffffffffffffff168273ffffffffffffffffffffffffffffffffffffffff167fddf252ad1be2c89b69c2b068fc378daa952ba7f163c4a11628f55a4df523b3ef60405160405180910390a461322d81600084612ac7565b5050565b6000808273ffffffffffffffffffffffffffffffffffffffff163b119050919050565b60606000820361329b576040518060400160405280600181526020017f300000000000000000000000000000000000000000000000000000000000000081525090506133af565b600082905060005b600082146132cd5780806132b690614950565b915050600a826132c69190615967565b91506132a3565b60008167ffffffffffffffff8111156132e9576132e86139fc565b5b6040519080825280601f01601f19166020018201604052801561331b5781602001600182028036833780820191505090505b5090505b600085146133a8576001826133349190615405565b9150600a856133439190615998565b603061334f9190614737565b60f81b81838151811061336557613364614921565b5b60200101907effffffffffffffffffffffffffffffffffffffffffffffffffffffffffffff1916908160001a905350600a856133a19190615967565b945061331f565b8093505050505b919050565b505050565b6008805490506009600083815260200190815260200160002081905550600881908060018154018082558091505060019003906000526020600020016000909190919091505550565b6000600161340f84611483565b6134199190615405565b90506000600760008481526020019081526020016000205490508181146134fe576000600660008673ffffffffffffffffffffffffffffffffffffffff1673ffffffffffffffffffffffffffffffffffffffff168152602001908152602001600020600084815260200190815260200160002054905080600660008773ffffffffffffffffffffffffffffffffffffffff1673ffffffffffffffffffffffffffffffffffffffff168152602001908152602001600020600084815260200190815260200160002081905550816007600083815260200190815260200160002081905550505b6007600084815260200190815260200160002060009055600660008573ffffffffffffffffffffffffffffffffffffffff1673ffffffffffffffffffffffffffffffffffffffff16815260200190815260200160002060008381526020019081526020016000206000905550505050565b600060016008805490506135839190615405565b90506000600960008481526020019081526020016000205490506000600883815481106135b3576135b2614921565b5b9060005260206000200154905080600883815481106135d5576135d4614921565b5b906000526020600020018190555081600960008381526020019081526020016000208190555060096000858152602001908152602001600020600090556008805480613624576136236159c9565b5b6001900381819060005260206000200160009055905550505050565b600061364b83611483565b905081600660008573ffffffffffffffffffffffffffffffffffffffff1673ffffffffffffffffffffffffffffffffffffffff168152602001908152602001600020600083815260200190815260200160002081905550806007600084815260200190815260200160002081905550505050565b5080546136cb906141e1565b6000825580601f106136dd57506136fc565b601f0160209004906000526020600020908101906136fb91906136ff565b5b50565b5b80821115613718576000816000905550600101613700565b5090565b6000604051905090565b600080fd5b600080fd5b60007fffffffff0000000000000000000000000000000000000000000000000000000082169050919050565b61376581613730565b811461377057600080fd5b50565b6000813590506137828161375c565b92915050565b60006020828403121561379e5761379d613726565b5b60006137ac84828501613773565b91505092915050565b60008115159050919050565b6137ca816137b5565b82525050565b60006020820190506137e560008301846137c1565b92915050565b600081519050919050565b600082825260208201905092915050565b60005b8381101561382557808201518184015260208101905061380a565b60008484015250505050565b6000601f19601f8301169050919050565b600061384d826137eb565b61385781856137f6565b9350613867818560208601613807565b61387081613831565b840191505092915050565b600060208201905081810360008301526138958184613842565b905092915050565b6000819050919050565b6138b08161389d565b81146138bb57600080fd5b50565b6000813590506138cd816138a7565b92915050565b6000602082840312156138e9576138e8613726565b5b60006138f7848285016138be565b91505092915050565b600073ffffffffffffffffffffffffffffffffffffffff82169050919050565b600061392b82613900565b9050919050565b61393b81613920565b82525050565b60006020820190506139566000830184613932565b92915050565b6139658161389d565b82525050565b6000602082019050613980600083018461395c565b92915050565b61398f81613920565b811461399a57600080fd5b50565b6000813590506139ac81613986565b92915050565b600080604083850312156139c9576139c8613726565b5b60006139d78582860161399d565b92505060206139e8858286016138be565b9150509250929050565b600080fd5b600080fd5b7f4e487b7100000000000000000000000000000000000000000000000000000000600052604160045260246000fd5b613a3482613831565b810181811067ffffffffffffffff82111715613a5357613a526139fc565b5b80604052505050565b6000613a6661371c565b9050613a728282613a2b565b919050565b600067ffffffffffffffff821115613a9257613a916139fc565b5b613a9b82613831565b9050602081019050919050565b82818337600083830152505050565b6000613aca613ac584613a77565b613a5c565b905082815260208101848484011115613ae657613ae56139f7565b5b613af1848285613aa8565b509392505050565b600082601f830112613b0e57613b0d6139f2565b5b8135613b1e848260208601613ab7565b91505092915050565b60008060408385031215613b3e57613b3d613726565b5b6000613b4c858286016138be565b925050602083013567ffffffffffffffff811115613b6d57613b6c61372b565b5b613b7985828601613af9565b9150509250929050565b600080600060608486031215613b9c57613b9b613726565b5b6000613baa8682870161399d565b9350506020613bbb8682870161399d565b9250506040613bcc868287016138be565b9150509250925092565b600067ffffffffffffffff821115613bf157613bf06139fc565b5b602082029050602081019050919050565b600080fd5b6000613c1a613c1584613bd6565b613a5c565b90508083825260208201905060208402830185811115613c3d57613c3c613c02565b5b835b81811015613c665780613c52888261399d565b845260208401935050602081019050613c3f565b5050509392505050565b600082601f830112613c8557613c846139f2565b5b8135613c95848260208601613c07565b91505092915050565b600067ffffffffffffffff821115613cb957613cb86139fc565b5b602082029050602081019050919050565b6000613cdd613cd884613c9e565b613a5c565b90508083825260208201905060208402830185811115613d0057613cff613c02565b5b835b81811015613d4757803567ffffffffffffffff811115613d2557613d246139f2565b5b808601613d328982613af9565b85526020850194505050602081019050613d02565b5050509392505050565b600082601f830112613d6657613d656139f2565b5b8135613d76848260208601613cca565b91505092915050565b600080600060608486031215613d9857613d97613726565b5b600084013567ffffffffffffffff811115613db657613db561372b565b5b613dc286828701613c70565b935050602084013567ffffffffffffffff811115613de357613de261372b565b5b613def86828701613d51565b9250506040613e00868287016138be565b9150509250925092565b600060208284031215613e2057613e1f613726565b5b6000613e2e8482850161399d565b91505092915050565b600081519050919050565b600082825260208201905092915050565b6000819050602082019050919050565b613e6c8161389d565b82525050565b6000613e7e8383613e63565b60208301905092915050565b6000602082019050919050565b6000613ea282613e37565b613eac8185613e42565b9350613eb783613e53565b8060005b83811015613ee8578151613ecf8882613e72565b9750613eda83613e8a565b925050600181019050613ebb565b5085935050505092915050565b60006020820190508181036000830152613f0f8184613e97565b905092915050565b613f20816137b5565b8114613f2b57600080fd5b50565b600081359050613f3d81613f17565b92915050565b60008060408385031215613f5a57613f59613726565b5b6000613f688582860161399d565b9250506020613f7985828601613f2e565b9150509250929050565b600080600060608486031215613f9c57613f9b613726565b5b6000613faa8682870161399d565b935050602084013567ffffffffffffffff811115613fcb57613fca61372b565b5b613fd786828701613d51565b9250506040613fe8868287016138be565b9150509250925092565b600067ffffffffffffffff82111561400d5761400c6139fc565b5b61401682613831565b9050602081019050919050565b600061403661403184613ff2565b613a5c565b905082815260208101848484011115614052576140516139f7565b5b61405d848285613aa8565b509392505050565b600082601f83011261407a576140796139f2565b5b813561408a848260208601614023565b91505092915050565b600080600080608085870312156140ad576140ac613726565b5b60006140bb8782880161399d565b94505060206140cc8782880161399d565b93505060406140dd878288016138be565b925050606085013567ffffffffffffffff8111156140fe576140fd61372b565b5b61410a87828801614065565b91505092959194509250565b6000806040838503121561412d5761412c613726565b5b600061413b8582860161399d565b925050602083013567ffffffffffffffff81111561415c5761415b61372b565b5b61416885828601613af9565b9150509250929050565b6000806040838503121561418957614188613726565b5b60006141978582860161399d565b92505060206141a88582860161399d565b9150509250929050565b7f4e487b7100000000000000000000000000000000000000000000000000000000600052602260045260246000fd5b600060028204905060018216806141f957607f821691505b60208210810361420c5761420b6141b2565b5b50919050565b7f4552433732313a20617070726f76656420717565727920666f72206e6f6e657860008201527f697374656e7420746f6b656e0000000000000000000000000000000000000000602082015250565b600061426e602c836137f6565b915061427982614212565b604082019050919050565b6000602082019050818103600083015261429d81614261565b9050919050565b7f4552433732313a20617070726f76616c20746f2063757272656e74206f776e6560008201527f7200000000000000000000000000000000000000000000000000000000000000602082015250565b60006143006021836137f6565b915061430b826142a4565b604082019050919050565b6000602082019050818103600083015261432f816142f3565b9050919050565b7f4552433732313a20617070726f76652063616c6c6572206973206e6f74206f7760008201527f6e6572206e6f7220617070726f76656420666f7220616c6c0000000000000000602082015250565b60006143926038836137f6565b915061439d82614336565b604082019050919050565b600060208201905081810360008301526143c181614385565b9050919050565b7f4f776e61626c653a2063616c6c6572206973206e6f7420746865206f776e6572600082015250565b60006143fe6020836137f6565b9150614409826143c8565b602082019050919050565b6000602082019050818103600083015261442d816143f1565b9050919050565b7f4552433732313a207472616e736665722063616c6c6572206973206e6f74206f60008201527f776e6572206e6f7220617070726f766564000000000000000000000000000000602082015250565b60006144906031836137f6565b915061449b82614434565b604082019050919050565b600060208201905081810360008301526144bf81614483565b9050919050565b7f455243373231456e756d657261626c653a206f776e657220696e646578206f7560008201527f74206f6620626f756e6473000000000000000000000000000000000000000000602082015250565b6000614522602b836137f6565b915061452d826144c6565b604082019050919050565b6000602082019050818103600083015261455181614515565b9050919050565b7f546f204164647265737365732043616e74204265206e756c6c2e000000000000600082015250565b600061458e601a836137f6565b915061459982614558565b602082019050919050565b600060208201905081810360008301526145bd81614581565b9050919050565b7f546f6b656e20555249732043616e74204265206e756c6c000000000000000000600082015250565b60006145fa6017836137f6565b9150614605826145c4565b602082019050919050565b60006020820190508181036000830152614629816145ed565b9050919050565b7f436f756e742043616e74206265205a65726f0000000000000000000000000000600082015250565b60006146666012836137f6565b915061467182614630565b602082019050919050565b6000602082019050818103600083015261469581614659565b9050919050565b7f416c6c20546f6b656e732048617665206265656e206d696e7465642e00000000600082015250565b60006146d2601c836137f6565b91506146dd8261469c565b602082019050919050565b60006020820190508181036000830152614701816146c5565b9050919050565b7f4e487b7100000000000000000000000000000000000000000000000000000000600052601160045260246000fd5b60006147428261389d565b915061474d8361389d565b925082820190508082111561476557614764614708565b5b92915050565b7f546f6b656e20636f756e742065786365656473207769746820617661696c616260008201527f6c65204e465427732e0000000000000000000000000000000000000000000000602082015250565b60006147c76029836137f6565b91506147d28261476b565b604082019050919050565b600060208201905081810360008301526147f6816147ba565b9050919050565b7f596f752068617665206578636565646564206d6178206d696e7420636f756e7460008201527f2e00000000000000000000000000000000000000000000000000000000000000602082015250565b60006148596021836137f6565b9150614864826147fd565b604082019050919050565b600060208201905081810360008301526148888161484c565b9050919050565b7f546f6b656e205552492773202620636f756e7420646f6573206e6f74206d617460008201527f63682e0000000000000000000000000000000000000000000000000000000000602082015250565b60006148eb6023836137f6565b91506148f68261488f565b604082019050919050565b6000602082019050818103600083015261491a816148de565b9050919050565b7f4e487b7100000000000000000000000000000000000000000000000000000000600052603260045260246000fd5b600061495b8261389d565b91507fffffffffffffffffffffffffffffffffffffffffffffffffffffffffffffffff820361498d5761498c614708565b5b600182019050919050565b7f446f73656e27742068617665206120656e6f7567682045544820666f7220747260008201527f616e736665720000000000000000000000000000000000000000000000000000602082015250565b60006149f46026836137f6565b91506149ff82614998565b604082019050919050565b60006020820190508181036000830152614a23816149e7565b9050919050565b600081905092915050565b50565b6000614a45600083614a2a565b9150614a5082614a35565b600082019050919050565b6000614a6682614a38565b9150819050919050565b600081905092915050565b7f4661696c656420746f2073656e64204574686572000000000000000000000000600082015250565b6000614ab1601483614a70565b9150614abc82614a7b565b601482019050919050565b600081519050919050565b6000614add82614ac7565b614ae78185614a2a565b9350614af7818560208601613807565b80840191505092915050565b6000614b0e82614aa4565b9150614b1a8284614ad2565b915081905092915050565b7f4552433732314275726e61626c653a2063616c6c6572206973206e6f74206f7760008201527f6e6572206e6f7220617070726f76656400000000000000000000000000000000602082015250565b6000614b816030836137f6565b9150614b8c82614b25565b604082019050919050565b60006020820190508181036000830152614bb081614b74565b9050919050565b7f455243373231456e756d657261626c653a20676c6f62616c20696e646578206f60008201527f7574206f6620626f756e64730000000000000000000000000000000000000000602082015250565b6000614c13602c836137f6565b9150614c1e82614bb7565b604082019050919050565b60006020820190508181036000830152614c4281614c06565b9050919050565b7f4552433732313a206f776e657220717565727920666f72206e6f6e657869737460008201527f656e7420746f6b656e0000000000000000000000000000000000000000000000602082015250565b6000614ca56029836137f6565b9150614cb082614c49565b604082019050919050565b60006020820190508181036000830152614cd481614c98565b9050919050565b7f4552433732313a2062616c616e636520717565727920666f7220746865207a6560008201527f726f206164647265737300000000000000000000000000000000000000000000602082015250565b6000614d37602a836137f6565b9150614d4282614cdb565b604082019050919050565b60006020820190508181036000830152614d6681614d2a565b9050919050565b6000614d788261389d565b9150614d838361389d565b9250828202614d918161389d565b91508282048414831517614da857614da7614708565b5b5092915050565b7f496e7375666669656e742045544820616d6f756e742073656e7420466f72205060008201527f75726863617365204e4654732e00000000000000000000000000000000000000602082015250565b6000614e0b602d836137f6565b9150614e1682614daf565b604082019050919050565b60006020820190508181036000830152614e3a81614dfe565b9050919050565b7f546f6b656e205552492043616e74204265206e756c6c2e000000000000000000600082015250565b6000614e776017836137f6565b9150614e8282614e41565b602082019050919050565b60006020820190508181036000830152614ea681614e6a565b9050919050565b7f4f776e61626c653a206e6577206f776e657220697320746865207a65726f206160008201527f6464726573730000000000000000000000000000000000000000000000000000602082015250565b6000614f096026836137f6565b9150614f1482614ead565b604082019050919050565b60006020820190508181036000830152614f3881614efc565b9050919050565b7f45524337323155524953746f726167653a2055524920736574206f66206e6f6e60008201527f6578697374656e7420746f6b656e000000000000000000000000000000000000602082015250565b6000614f9b602e836137f6565b9150614fa682614f3f565b604082019050919050565b60006020820190508181036000830152614fca81614f8e565b9050919050565b60008190508160005260206000209050919050565b60006020601f8301049050919050565b600082821b905092915050565b6000600883026150337fffffffffffffffffffffffffffffffffffffffffffffffffffffffffffffffff82614ff6565b61503d8683614ff6565b95508019841693508086168417925050509392505050565b6000819050919050565b600061507a6150756150708461389d565b615055565b61389d565b9050919050565b6000819050919050565b6150948361505f565b6150a86150a082615081565b848454615003565b825550505050565b600090565b6150bd6150b0565b6150c881848461508b565b505050565b5b818110156150ec576150e16000826150b5565b6001810190506150ce565b5050565b601f8211156151315761510281614fd1565b61510b84614fe6565b8101602085101561511a578190505b61512e61512685614fe6565b8301826150cd565b50505b505050565b600082821c905092915050565b600061515460001984600802615136565b1980831691505092915050565b600061516d8383615143565b9150826002028217905092915050565b615186826137eb565b67ffffffffffffffff81111561519f5761519e6139fc565b5b6151a982546141e1565b6151b48282856150f0565b600060209050601f8311600181146151e757600084156151d5578287015190505b6151df8582615161565b865550615247565b601f1984166151f586614fd1565b60005b8281101561521d578489015182556001820191506020850194506020810190506151f8565b8683101561523a5784890151615236601f891682615143565b8355505b6001600288020188555050505b505050505050565b7f4552433732313a206f70657261746f7220717565727920666f72206e6f6e657860008201527f697374656e7420746f6b656e0000000000000000000000000000000000000000602082015250565b60006152ab602c836137f6565b91506152b68261524f565b604082019050919050565b600060208201905081810360008301526152da8161529e565b9050919050565b7f4552433732313a207472616e736665722066726f6d20696e636f72726563742060008201527f6f776e6572000000000000000000000000000000000000000000000000000000602082015250565b600061533d6025836137f6565b9150615348826152e1565b604082019050919050565b6000602082019050818103600083015261536c81615330565b9050919050565b7f4552433732313a207472616e7366657220746f20746865207a65726f2061646460008201527f7265737300000000000000000000000000000000000000000000000000000000602082015250565b60006153cf6024836137f6565b91506153da82615373565b604082019050919050565b600060208201905081810360008301526153fe816153c2565b9050919050565b60006154108261389d565b915061541b8361389d565b925082820390508181111561543357615432614708565b5b92915050565b7f5061757361626c653a206e6f7420706175736564000000000000000000000000600082015250565b600061546f6014836137f6565b915061547a82615439565b602082019050919050565b6000602082019050818103600083015261549e81615462565b9050919050565b7f5061757361626c653a2070617573656400000000000000000000000000000000600082015250565b60006154db6010836137f6565b91506154e6826154a5565b602082019050919050565b6000602082019050818103600083015261550a816154ce565b9050919050565b7f4552433732313a20617070726f766520746f2063616c6c657200000000000000600082015250565b60006155476019836137f6565b915061555282615511565b602082019050919050565b600060208201905081810360008301526155768161553a565b9050919050565b7f4552433732313a207472616e7366657220746f206e6f6e20455243373231526560008201527f63656976657220696d706c656d656e7465720000000000000000000000000000602082015250565b60006155d96032836137f6565b91506155e48261557d565b604082019050919050565b60006020820190508181036000830152615608816155cc565b9050919050565b7f45524337323155524953746f726167653a2055524920717565727920666f722060008201527f6e6f6e6578697374656e7420746f6b656e000000000000000000000000000000602082015250565b600061566b6031836137f6565b91506156768261560f565b604082019050919050565b6000602082019050818103600083015261569a8161565e565b9050919050565b60006156ac826137eb565b6156b68185614a70565b93506156c6818560208601613807565b80840191505092915050565b60006156de82856156a1565b91506156ea82846156a1565b91508190509392505050565b600082825260208201905092915050565b600061571282614ac7565b61571c81856156f6565b935061572c818560208601613807565b61573581613831565b840191505092915050565b60006080820190506157556000830187613932565b6157626020830186613932565b61576f604083018561395c565b81810360608301526157818184615707565b905095945050505050565b60008151905061579b8161375c565b92915050565b6000602082840312156157b7576157b6613726565b5b60006157c58482850161578c565b91505092915050565b7f4552433732314d657461646174613a2055524920717565727920666f72206e6f60008201527f6e6578697374656e7420746f6b656e0000000000000000000000000000000000602082015250565b600061582a602f836137f6565b9150615835826157ce565b604082019050919050565b600060208201905081810360008301526158598161581d565b9050919050565b7f4552433732313a206d696e7420746f20746865207a65726f2061646472657373600082015250565b60006158966020836137f6565b91506158a182615860565b602082019050919050565b600060208201905081810360008301526158c581615889565b9050919050565b7f4552433732313a20746f6b656e20616c7265616479206d696e74656400000000600082015250565b6000615902601c836137f6565b915061590d826158cc565b602082019050919050565b60006020820190508181036000830152615931816158f5565b9050919050565b7f4e487b7100000000000000000000000000000000000000000000000000000000600052601260045260246000fd5b60006159728261389d565b915061597d8361389d565b92508261598d5761598c615938565b5b828204905092915050565b60006159a38261389d565b91506159ae8361389d565b9250826159be576159bd615938565b5b828206905092915050565b7f4e487b7100000000000000000000000000000000000000000000000000000000600052603160045260246000fdfea2646970667358221220631fa6742591c07dca01f5290342aaf555801a005883df686b88c86d03d3434464736f6c63430008110033","opcodes":"PUSH1 0x80 PUSH1 0x40 MSTORE PUSH2 0x1F6 PUSH1 0xD SSTORE PUSH1 0x14 PUSH1 0xE SSTORE PUSH7 0x2386F26FC10000 PUSH1 0xF SSTORE CALLVALUE DUP1 ISZERO PUSH3 0x27 JUMPI PUSH1 0x0 DUP1 REVERT JUMPDEST POP PUSH1 0x40 MLOAD PUSH3 0x610E CODESIZE SUB DUP1 PUSH3 0x610E DUP4 CODECOPY DUP2 DUP2 ADD PUSH1 0x40 MSTORE DUP2 ADD SWAP1 PUSH3 0x4D SWAP2 SWAP1 PUSH3 0x319 JUMP JUMPDEST DUP2 DUP2 DUP2 PUSH1 0x0 SWAP1 DUP2 PUSH3 0x60 SWAP2 SWAP1 PUSH3 0x5E9 JUMP JUMPDEST POP DUP1 PUSH1 0x1 SWAP1 DUP2 PUSH3 0x72 SWAP2 SWAP1 PUSH3 0x5E9 JUMP JUMPDEST POP POP POP PUSH1 0x0 PUSH1 0xB PUSH1 0x0 PUSH2 0x100 EXP DUP2 SLOAD DUP2 PUSH1 0xFF MUL NOT AND SWAP1 DUP4 ISZERO ISZERO MUL OR SWAP1 SSTORE POP PUSH3 0xB0 PUSH3 0xA4 PUSH3 0xB8 PUSH1 0x20 SHL PUSH1 0x20 SHR JUMP JUMPDEST PUSH3 0xC0 PUSH1 0x20 SHL PUSH1 0x20 SHR JUMP JUMPDEST POP POP PUSH3 0x6D0 JUMP JUMPDEST PUSH1 0x0 CALLER SWAP1 POP SWAP1 JUMP JUMPDEST PUSH1 0x0 PUSH1 0xB PUSH1 0x1 SWAP1 SLOAD SWAP1 PUSH2 0x100 EXP SWAP1 DIV PUSH20 0xFFFFFFFFFFFFFFFFFFFFFFFFFFFFFFFFFFFFFFFF AND SWAP1 POP DUP2 PUSH1 0xB PUSH1 0x1 PUSH2 0x100 EXP DUP2 SLOAD DUP2 PUSH20 0xFFFFFFFFFFFFFFFFFFFFFFFFFFFFFFFFFFFFFFFF MUL NOT AND SWAP1 DUP4 PUSH20 0xFFFFFFFFFFFFFFFFFFFFFFFFFFFFFFFFFFFFFFFF AND MUL OR SWAP1 SSTORE POP DUP2 PUSH20 0xFFFFFFFFFFFFFFFFFFFFFFFFFFFFFFFFFFFFFFFF AND DUP2 PUSH20 0xFFFFFFFFFFFFFFFFFFFFFFFFFFFFFFFFFFFFFFFF AND PUSH32 0x8BE0079C531659141344CD1FD0A4F28419497F9722A3DAAFE3B4186F6B6457E0 PUSH1 0x40 MLOAD PUSH1 0x40 MLOAD DUP1 SWAP2 SUB SWAP1 LOG3 POP POP JUMP JUMPDEST PUSH1 0x0 PUSH1 0x40 MLOAD SWAP1 POP SWAP1 JUMP JUMPDEST PUSH1 0x0 DUP1 REVERT JUMPDEST PUSH1 0x0 DUP1 REVERT JUMPDEST PUSH1 0x0 DUP1 REVERT JUMPDEST PUSH1 0x0 DUP1 REVERT JUMPDEST PUSH1 0x0 PUSH1 0x1F NOT PUSH1 0x1F DUP4 ADD AND SWAP1 POP SWAP2 SWAP1 POP JUMP JUMPDEST PUSH32 0x4E487B7100000000000000000000000000000000000000000000000000000000 PUSH1 0x0 MSTORE PUSH1 0x41 PUSH1 0x4 MSTORE PUSH1 0x24 PUSH1 0x0 REVERT JUMPDEST PUSH3 0x1EF DUP3 PUSH3 0x1A4 JUMP JUMPDEST DUP2 ADD DUP2 DUP2 LT PUSH8 0xFFFFFFFFFFFFFFFF DUP3 GT OR ISZERO PUSH3 0x211 JUMPI PUSH3 0x210 PUSH3 0x1B5 JUMP JUMPDEST JUMPDEST DUP1 PUSH1 0x40 MSTORE POP POP POP JUMP JUMPDEST PUSH1 0x0 PUSH3 0x226 PUSH3 0x186 JUMP JUMPDEST SWAP1 POP PUSH3 0x234 DUP3 DUP3 PUSH3 0x1E4 JUMP JUMPDEST SWAP2 SWAP1 POP JUMP JUMPDEST PUSH1 0x0 PUSH8 0xFFFFFFFFFFFFFFFF DUP3 GT ISZERO PUSH3 0x257 JUMPI PUSH3 0x256 PUSH3 0x1B5 JUMP JUMPDEST JUMPDEST PUSH3 0x262 DUP3 PUSH3 0x1A4 JUMP JUMPDEST SWAP1 POP PUSH1 0x20 DUP2 ADD SWAP1 POP SWAP2 SWAP1 POP JUMP JUMPDEST PUSH1 0x0 JUMPDEST DUP4 DUP2 LT ISZERO PUSH3 0x28F JUMPI DUP1 DUP3 ADD MLOAD DUP2 DUP5 ADD MSTORE PUSH1 0x20 DUP2 ADD SWAP1 POP PUSH3 0x272 JUMP JUMPDEST PUSH1 0x0 DUP5 DUP5 ADD MSTORE POP POP POP POP JUMP JUMPDEST PUSH1 0x0 PUSH3 0x2B2 PUSH3 0x2AC DUP5 PUSH3 0x239 JUMP JUMPDEST PUSH3 0x21A JUMP JUMPDEST SWAP1 POP DUP3 DUP2 MSTORE PUSH1 0x20 DUP2 ADD DUP5 DUP5 DUP5 ADD GT ISZERO PUSH3 0x2D1 JUMPI PUSH3 0x2D0 PUSH3 0x19F JUMP JUMPDEST JUMPDEST PUSH3 0x2DE DUP5 DUP3 DUP6 PUSH3 0x26F JUMP JUMPDEST POP SWAP4 SWAP3 POP POP POP JUMP JUMPDEST PUSH1 0x0 DUP3 PUSH1 0x1F DUP4 ADD SLT PUSH3 0x2FE JUMPI PUSH3 0x2FD PUSH3 0x19A JUMP JUMPDEST JUMPDEST DUP2 MLOAD PUSH3 0x310 DUP5 DUP3 PUSH1 0x20 DUP7 ADD PUSH3 0x29B JUMP JUMPDEST SWAP2 POP POP SWAP3 SWAP2 POP POP JUMP JUMPDEST PUSH1 0x0 DUP1 PUSH1 0x40 DUP4 DUP6 SUB SLT ISZERO PUSH3 0x333 JUMPI PUSH3 0x332 PUSH3 0x190 JUMP JUMPDEST JUMPDEST PUSH1 0x0 DUP4 ADD MLOAD PUSH8 0xFFFFFFFFFFFFFFFF DUP2 GT ISZERO PUSH3 0x354 JUMPI PUSH3 0x353 PUSH3 0x195 JUMP JUMPDEST JUMPDEST PUSH3 0x362 DUP6 DUP3 DUP7 ADD PUSH3 0x2E6 JUMP JUMPDEST SWAP3 POP POP PUSH1 0x20 DUP4 ADD MLOAD PUSH8 0xFFFFFFFFFFFFFFFF DUP2 GT ISZERO PUSH3 0x386 JUMPI PUSH3 0x385 PUSH3 0x195 JUMP JUMPDEST JUMPDEST PUSH3 0x394 DUP6 DUP3 DUP7 ADD PUSH3 0x2E6 JUMP JUMPDEST SWAP2 POP POP SWAP3 POP SWAP3 SWAP1 POP JUMP JUMPDEST PUSH1 0x0 DUP2 MLOAD SWAP1 POP SWAP2 SWAP1 POP JUMP JUMPDEST PUSH32 0x4E487B7100000000000000000000000000000000000000000000000000000000 PUSH1 0x0 MSTORE PUSH1 0x22 PUSH1 0x4 MSTORE PUSH1 0x24 PUSH1 0x0 REVERT JUMPDEST PUSH1 0x0 PUSH1 0x2 DUP3 DIV SWAP1 POP PUSH1 0x1 DUP3 AND DUP1 PUSH3 0x3F1 JUMPI PUSH1 0x7F DUP3 AND SWAP2 POP JUMPDEST PUSH1 0x20 DUP3 LT DUP2 SUB PUSH3 0x407 JUMPI PUSH3 0x406 PUSH3 0x3A9 JUMP JUMPDEST JUMPDEST POP SWAP2 SWAP1 POP JUMP JUMPDEST PUSH1 0x0 DUP2 SWAP1 POP DUP2 PUSH1 0x0 MSTORE PUSH1 0x20 PUSH1 0x0 KECCAK256 SWAP1 POP SWAP2 SWAP1 POP JUMP JUMPDEST PUSH1 0x0 PUSH1 0x20 PUSH1 0x1F DUP4 ADD DIV SWAP1 POP SWAP2 SWAP1 POP JUMP JUMPDEST PUSH1 0x0 DUP3 DUP3 SHL SWAP1 POP SWAP3 SWAP2 POP POP JUMP JUMPDEST PUSH1 0x0 PUSH1 0x8 DUP4 MUL PUSH3 0x471 PUSH32 0xFFFFFFFFFFFFFFFFFFFFFFFFFFFFFFFFFFFFFFFFFFFFFFFFFFFFFFFFFFFFFFFF DUP3 PUSH3 0x432 JUMP JUMPDEST PUSH3 0x47D DUP7 DUP4 PUSH3 0x432 JUMP JUMPDEST SWAP6 POP DUP1 NOT DUP5 AND SWAP4 POP DUP1 DUP7 AND DUP5 OR SWAP3 POP POP POP SWAP4 SWAP3 POP POP POP JUMP JUMPDEST PUSH1 0x0 DUP2 SWAP1 POP SWAP2 SWAP1 POP JUMP JUMPDEST PUSH1 0x0 DUP2 SWAP1 POP SWAP2 SWAP1 POP JUMP JUMPDEST PUSH1 0x0 PUSH3 0x4CA PUSH3 0x4C4 PUSH3 0x4BE DUP5 PUSH3 0x495 JUMP JUMPDEST PUSH3 0x49F JUMP JUMPDEST PUSH3 0x495 JUMP JUMPDEST SWAP1 POP SWAP2 SWAP1 POP JUMP JUMPDEST PUSH1 0x0 DUP2 SWAP1 POP SWAP2 SWAP1 POP JUMP JUMPDEST PUSH3 0x4E6 DUP4 PUSH3 0x4A9 JUMP JUMPDEST PUSH3 0x4FE PUSH3 0x4F5 DUP3 PUSH3 0x4D1 JUMP JUMPDEST DUP5 DUP5 SLOAD PUSH3 0x43F JUMP JUMPDEST DUP3 SSTORE POP POP POP POP JUMP JUMPDEST PUSH1 0x0 SWAP1 JUMP JUMPDEST PUSH3 0x515 PUSH3 0x506 JUMP JUMPDEST PUSH3 0x522 DUP2 DUP5 DUP5 PUSH3 0x4DB JUMP JUMPDEST POP POP POP JUMP JUMPDEST JUMPDEST DUP2 DUP2 LT ISZERO PUSH3 0x54A JUMPI PUSH3 0x53E PUSH1 0x0 DUP3 PUSH3 0x50B JUMP JUMPDEST PUSH1 0x1 DUP2 ADD SWAP1 POP PUSH3 0x528 JUMP JUMPDEST POP POP JUMP JUMPDEST PUSH1 0x1F DUP3 GT ISZERO PUSH3 0x599 JUMPI PUSH3 0x563 DUP2 PUSH3 0x40D JUMP JUMPDEST PUSH3 0x56E DUP5 PUSH3 0x422 JUMP JUMPDEST DUP2 ADD PUSH1 0x20 DUP6 LT ISZERO PUSH3 0x57E JUMPI DUP2 SWAP1 POP JUMPDEST PUSH3 0x596 PUSH3 0x58D DUP6 PUSH3 0x422 JUMP JUMPDEST DUP4 ADD DUP3 PUSH3 0x527 JUMP JUMPDEST POP POP JUMPDEST POP POP POP JUMP JUMPDEST PUSH1 0x0 DUP3 DUP3 SHR SWAP1 POP SWAP3 SWAP2 POP POP JUMP JUMPDEST PUSH1 0x0 PUSH3 0x5BE PUSH1 0x0 NOT DUP5 PUSH1 0x8 MUL PUSH3 0x59E JUMP JUMPDEST NOT DUP1 DUP4 AND SWAP2 POP POP SWAP3 SWAP2 POP POP JUMP JUMPDEST PUSH1 0x0 PUSH3 0x5D9 DUP4 DUP4 PUSH3 0x5AB JUMP JUMPDEST SWAP2 POP DUP3 PUSH1 0x2 MUL DUP3 OR SWAP1 POP SWAP3 SWAP2 POP POP JUMP JUMPDEST PUSH3 0x5F4 DUP3 PUSH3 0x39E JUMP JUMPDEST PUSH8 0xFFFFFFFFFFFFFFFF DUP2 GT ISZERO PUSH3 0x610 JUMPI PUSH3 0x60F PUSH3 0x1B5 JUMP JUMPDEST JUMPDEST PUSH3 0x61C DUP3 SLOAD PUSH3 0x3D8 JUMP JUMPDEST PUSH3 0x629 DUP3 DUP3 DUP6 PUSH3 0x54E JUMP JUMPDEST PUSH1 0x0 PUSH1 0x20 SWAP1 POP PUSH1 0x1F DUP4 GT PUSH1 0x1 DUP2 EQ PUSH3 0x661 JUMPI PUSH1 0x0 DUP5 ISZERO PUSH3 0x64C JUMPI DUP3 DUP8 ADD MLOAD SWAP1 POP JUMPDEST PUSH3 0x658 DUP6 DUP3 PUSH3 0x5CB JUMP JUMPDEST DUP7 SSTORE POP PUSH3 0x6C8 JUMP JUMPDEST PUSH1 0x1F NOT DUP5 AND PUSH3 0x671 DUP7 PUSH3 0x40D JUMP JUMPDEST PUSH1 0x0 JUMPDEST DUP3 DUP2 LT ISZERO PUSH3 0x69B JUMPI DUP5 DUP10 ADD MLOAD DUP3 SSTORE PUSH1 0x1 DUP3 ADD SWAP2 POP PUSH1 0x20 DUP6 ADD SWAP5 POP PUSH1 0x20 DUP2 ADD SWAP1 POP PUSH3 0x674 JUMP JUMPDEST DUP7 DUP4 LT ISZERO PUSH3 0x6BB JUMPI DUP5 DUP10 ADD MLOAD PUSH3 0x6B7 PUSH1 0x1F DUP10 AND DUP3 PUSH3 0x5AB JUMP JUMPDEST DUP4 SSTORE POP JUMPDEST PUSH1 0x1 PUSH1 0x2 DUP9 MUL ADD DUP9 SSTORE POP POP POP JUMPDEST POP POP POP POP POP POP JUMP JUMPDEST PUSH2 0x5A2E DUP1 PUSH3 0x6E0 PUSH1 0x0 CODECOPY PUSH1 0x0 RETURN INVALID PUSH1 0x80 PUSH1 0x40 MSTORE PUSH1 0x4 CALLDATASIZE LT PUSH2 0x225 JUMPI PUSH1 0x0 CALLDATALOAD PUSH1 0xE0 SHR DUP1 PUSH4 0x5C975ABB GT PUSH2 0x123 JUMPI DUP1 PUSH4 0x95D89B41 GT PUSH2 0xAB JUMPI DUP1 PUSH4 0xC87B56DD GT PUSH2 0x6F JUMPI DUP1 PUSH4 0xC87B56DD EQ PUSH2 0x7BE JUMPI DUP1 PUSH4 0xD204C45E EQ PUSH2 0x7FB JUMPI DUP1 PUSH4 0xE985E9C5 EQ PUSH2 0x824 JUMPI DUP1 PUSH4 0xF2FDE38B EQ PUSH2 0x861 JUMPI DUP1 PUSH4 0xFB107A4F EQ PUSH2 0x88A JUMPI PUSH2 0x225 JUMP JUMPDEST DUP1 PUSH4 0x95D89B41 EQ PUSH2 0x6FA JUMPI DUP1 PUSH4 0xA2245832 EQ PUSH2 0x725 JUMPI DUP1 PUSH4 0xA22CB465 EQ PUSH2 0x750 JUMPI DUP1 PUSH4 0xB5D279E7 EQ PUSH2 0x779 JUMPI DUP1 PUSH4 0xB88D4FDE EQ PUSH2 0x795 JUMPI PUSH2 0x225 JUMP JUMPDEST DUP1 PUSH4 0x7501F741 GT PUSH2 0xF2 JUMPI DUP1 PUSH4 0x7501F741 EQ PUSH2 0x627 JUMPI DUP1 PUSH4 0x81530B68 EQ PUSH2 0x652 JUMPI DUP1 PUSH4 0x8456CB59 EQ PUSH2 0x67B JUMPI DUP1 PUSH4 0x8462151C EQ PUSH2 0x692 JUMPI DUP1 PUSH4 0x8DA5CB5B EQ PUSH2 0x6CF JUMPI PUSH2 0x225 JUMP JUMPDEST DUP1 PUSH4 0x5C975ABB EQ PUSH2 0x56B JUMPI DUP1 PUSH4 0x6352211E EQ PUSH2 0x596 JUMPI DUP1 PUSH4 0x70A08231 EQ PUSH2 0x5D3 JUMPI DUP1 PUSH4 0x715018A6 EQ PUSH2 0x610 JUMPI PUSH2 0x225 JUMP JUMPDEST DUP1 PUSH4 0x23B872DD GT PUSH2 0x1B1 JUMPI DUP1 PUSH4 0x3F4BA83A GT PUSH2 0x175 JUMPI DUP1 PUSH4 0x3F4BA83A EQ PUSH2 0x49C JUMPI DUP1 PUSH4 0x42842E0E EQ PUSH2 0x4B3 JUMPI DUP1 PUSH4 0x42966C68 EQ PUSH2 0x4DC JUMPI DUP1 PUSH4 0x4F6CCCE7 EQ PUSH2 0x505 JUMPI DUP1 PUSH4 0x547520FE EQ PUSH2 0x542 JUMPI PUSH2 0x225 JUMP JUMPDEST DUP1 PUSH4 0x23B872DD EQ PUSH2 0x3CD JUMPI DUP1 PUSH4 0x2F745C59 EQ PUSH2 0x3F6 JUMPI DUP1 PUSH4 0x3A329D95 EQ PUSH2 0x433 JUMPI DUP1 PUSH4 0x3C1A291F EQ PUSH2 0x45C JUMPI DUP1 PUSH4 0x3CCFD60B EQ PUSH2 0x485 JUMPI PUSH2 0x225 JUMP JUMPDEST DUP1 PUSH4 0x95EA7B3 GT PUSH2 0x1F8 JUMPI DUP1 PUSH4 0x95EA7B3 EQ PUSH2 0x2FA JUMPI DUP1 PUSH4 0xD39FC81 EQ PUSH2 0x323 JUMPI DUP1 PUSH4 0x18160DDD EQ PUSH2 0x34E JUMPI DUP1 PUSH4 0x18E97FD1 EQ PUSH2 0x379 JUMPI DUP1 PUSH4 0x1F46452F EQ PUSH2 0x3A2 JUMPI PUSH2 0x225 JUMP JUMPDEST DUP1 PUSH4 0x1FFC9A7 EQ PUSH2 0x22A JUMPI DUP1 PUSH4 0x6FDDE03 EQ PUSH2 0x267 JUMPI DUP1 PUSH4 0x81812FC EQ PUSH2 0x292 JUMPI DUP1 PUSH4 0x93D8C64 EQ PUSH2 0x2CF JUMPI JUMPDEST PUSH1 0x0 DUP1 REVERT JUMPDEST CALLVALUE DUP1 ISZERO PUSH2 0x236 JUMPI PUSH1 0x0 DUP1 REVERT JUMPDEST POP PUSH2 0x251 PUSH1 0x4 DUP1 CALLDATASIZE SUB DUP2 ADD SWAP1 PUSH2 0x24C SWAP2 SWAP1 PUSH2 0x3788 JUMP JUMPDEST PUSH2 0x8B5 JUMP JUMPDEST PUSH1 0x40 MLOAD PUSH2 0x25E SWAP2 SWAP1 PUSH2 0x37D0 JUMP JUMPDEST PUSH1 0x40 MLOAD DUP1 SWAP2 SUB SWAP1 RETURN JUMPDEST CALLVALUE DUP1 ISZERO PUSH2 0x273 JUMPI PUSH1 0x0 DUP1 REVERT JUMPDEST POP PUSH2 0x27C PUSH2 0x8C7 JUMP JUMPDEST PUSH1 0x40 MLOAD PUSH2 0x289 SWAP2 SWAP1 PUSH2 0x387B JUMP JUMPDEST PUSH1 0x40 MLOAD DUP1 SWAP2 SUB SWAP1 RETURN JUMPDEST CALLVALUE DUP1 ISZERO PUSH2 0x29E JUMPI PUSH1 0x0 DUP1 REVERT JUMPDEST POP PUSH2 0x2B9 PUSH1 0x4 DUP1 CALLDATASIZE SUB DUP2 ADD SWAP1 PUSH2 0x2B4 SWAP2 SWAP1 PUSH2 0x38D3 JUMP JUMPDEST PUSH2 0x959 JUMP JUMPDEST PUSH1 0x40 MLOAD PUSH2 0x2C6 SWAP2 SWAP1 PUSH2 0x3941 JUMP JUMPDEST PUSH1 0x40 MLOAD DUP1 SWAP2 SUB SWAP1 RETURN JUMPDEST CALLVALUE DUP1 ISZERO PUSH2 0x2DB JUMPI PUSH1 0x0 DUP1 REVERT JUMPDEST POP PUSH2 0x2E4 PUSH2 0x9DE JUMP JUMPDEST PUSH1 0x40 MLOAD PUSH2 0x2F1 SWAP2 SWAP1 PUSH2 0x396B JUMP JUMPDEST PUSH1 0x40 MLOAD DUP1 SWAP2 SUB SWAP1 RETURN JUMPDEST CALLVALUE DUP1 ISZERO PUSH2 0x306 JUMPI PUSH1 0x0 DUP1 REVERT JUMPDEST POP PUSH2 0x321 PUSH1 0x4 DUP1 CALLDATASIZE SUB DUP2 ADD SWAP1 PUSH2 0x31C SWAP2 SWAP1 PUSH2 0x39B2 JUMP JUMPDEST PUSH2 0x9E4 JUMP JUMPDEST STOP JUMPDEST CALLVALUE DUP1 ISZERO PUSH2 0x32F JUMPI PUSH1 0x0 DUP1 REVERT JUMPDEST POP PUSH2 0x338 PUSH2 0xAFB JUMP JUMPDEST PUSH1 0x40 MLOAD PUSH2 0x345 SWAP2 SWAP1 PUSH2 0x396B JUMP JUMPDEST PUSH1 0x40 MLOAD DUP1 SWAP2 SUB SWAP1 RETURN JUMPDEST CALLVALUE DUP1 ISZERO PUSH2 0x35A JUMPI PUSH1 0x0 DUP1 REVERT JUMPDEST POP PUSH2 0x363 PUSH2 0xB01 JUMP JUMPDEST PUSH1 0x40 MLOAD PUSH2 0x370 SWAP2 SWAP1 PUSH2 0x396B JUMP JUMPDEST PUSH1 0x40 MLOAD DUP1 SWAP2 SUB SWAP1 RETURN JUMPDEST CALLVALUE DUP1 ISZERO PUSH2 0x385 JUMPI PUSH1 0x0 DUP1 REVERT JUMPDEST POP PUSH2 0x3A0 PUSH1 0x4 DUP1 CALLDATASIZE SUB DUP2 ADD SWAP1 PUSH2 0x39B SWAP2 SWAP1 PUSH2 0x3B27 JUMP JUMPDEST PUSH2 0xB0E JUMP JUMPDEST STOP JUMPDEST CALLVALUE DUP1 ISZERO PUSH2 0x3AE JUMPI PUSH1 0x0 DUP1 REVERT JUMPDEST POP PUSH2 0x3B7 PUSH2 0xB98 JUMP JUMPDEST PUSH1 0x40 MLOAD PUSH2 0x3C4 SWAP2 SWAP1 PUSH2 0x396B JUMP JUMPDEST PUSH1 0x40 MLOAD DUP1 SWAP2 SUB SWAP1 RETURN JUMPDEST CALLVALUE DUP1 ISZERO PUSH2 0x3D9 JUMPI PUSH1 0x0 DUP1 REVERT JUMPDEST POP PUSH2 0x3F4 PUSH1 0x4 DUP1 CALLDATASIZE SUB DUP2 ADD SWAP1 PUSH2 0x3EF SWAP2 SWAP1 PUSH2 0x3B83 JUMP JUMPDEST PUSH2 0xBA2 JUMP JUMPDEST STOP JUMPDEST CALLVALUE DUP1 ISZERO PUSH2 0x402 JUMPI PUSH1 0x0 DUP1 REVERT JUMPDEST POP PUSH2 0x41D PUSH1 0x4 DUP1 CALLDATASIZE SUB DUP2 ADD SWAP1 PUSH2 0x418 SWAP2 SWAP1 PUSH2 0x39B2 JUMP JUMPDEST PUSH2 0xC02 JUMP JUMPDEST PUSH1 0x40 MLOAD PUSH2 0x42A SWAP2 SWAP1 PUSH2 0x396B JUMP JUMPDEST PUSH1 0x40 MLOAD DUP1 SWAP2 SUB SWAP1 RETURN JUMPDEST CALLVALUE DUP1 ISZERO PUSH2 0x43F JUMPI PUSH1 0x0 DUP1 REVERT JUMPDEST POP PUSH2 0x45A PUSH1 0x4 DUP1 CALLDATASIZE SUB DUP2 ADD SWAP1 PUSH2 0x455 SWAP2 SWAP1 PUSH2 0x38D3 JUMP JUMPDEST PUSH2 0xCA7 JUMP JUMPDEST STOP JUMPDEST CALLVALUE DUP1 ISZERO PUSH2 0x468 JUMPI PUSH1 0x0 DUP1 REVERT JUMPDEST POP PUSH2 0x483 PUSH1 0x4 DUP1 CALLDATASIZE SUB DUP2 ADD SWAP1 PUSH2 0x47E SWAP2 SWAP1 PUSH2 0x3D7F JUMP JUMPDEST PUSH2 0xD2D JUMP JUMPDEST STOP JUMPDEST CALLVALUE DUP1 ISZERO PUSH2 0x491 JUMPI PUSH1 0x0 DUP1 REVERT JUMPDEST POP PUSH2 0x49A PUSH2 0x1027 JUMP JUMPDEST STOP JUMPDEST CALLVALUE DUP1 ISZERO PUSH2 0x4A8 JUMPI PUSH1 0x0 DUP1 REVERT JUMPDEST POP PUSH2 0x4B1 PUSH2 0x11C2 JUMP JUMPDEST STOP JUMPDEST CALLVALUE DUP1 ISZERO PUSH2 0x4BF JUMPI PUSH1 0x0 DUP1 REVERT JUMPDEST POP PUSH2 0x4DA PUSH1 0x4 DUP1 CALLDATASIZE SUB DUP2 ADD SWAP1 PUSH2 0x4D5 SWAP2 SWAP1 PUSH2 0x3B83 JUMP JUMPDEST PUSH2 0x1248 JUMP JUMPDEST STOP JUMPDEST CALLVALUE DUP1 ISZERO PUSH2 0x4E8 JUMPI PUSH1 0x0 DUP1 REVERT JUMPDEST POP PUSH2 0x503 PUSH1 0x4 DUP1 CALLDATASIZE SUB DUP2 ADD SWAP1 PUSH2 0x4FE SWAP2 SWAP1 PUSH2 0x38D3 JUMP JUMPDEST PUSH2 0x1268 JUMP JUMPDEST STOP JUMPDEST CALLVALUE DUP1 ISZERO PUSH2 0x511 JUMPI PUSH1 0x0 DUP1 REVERT JUMPDEST POP PUSH2 0x52C PUSH1 0x4 DUP1 CALLDATASIZE SUB DUP2 ADD SWAP1 PUSH2 0x527 SWAP2 SWAP1 PUSH2 0x38D3 JUMP JUMPDEST PUSH2 0x12C4 JUMP JUMPDEST PUSH1 0x40 MLOAD PUSH2 0x539 SWAP2 SWAP1 PUSH2 0x396B JUMP JUMPDEST PUSH1 0x40 MLOAD DUP1 SWAP2 SUB SWAP1 RETURN JUMPDEST CALLVALUE DUP1 ISZERO PUSH2 0x54E JUMPI PUSH1 0x0 DUP1 REVERT JUMPDEST POP PUSH2 0x569 PUSH1 0x4 DUP1 CALLDATASIZE SUB DUP2 ADD SWAP1 PUSH2 0x564 SWAP2 SWAP1 PUSH2 0x38D3 JUMP JUMPDEST PUSH2 0x1335 JUMP JUMPDEST STOP JUMPDEST CALLVALUE DUP1 ISZERO PUSH2 0x577 JUMPI PUSH1 0x0 DUP1 REVERT JUMPDEST POP PUSH2 0x580 PUSH2 0x13BB JUMP JUMPDEST PUSH1 0x40 MLOAD PUSH2 0x58D SWAP2 SWAP1 PUSH2 0x37D0 JUMP JUMPDEST PUSH1 0x40 MLOAD DUP1 SWAP2 SUB SWAP1 RETURN JUMPDEST CALLVALUE DUP1 ISZERO PUSH2 0x5A2 JUMPI PUSH1 0x0 DUP1 REVERT JUMPDEST POP PUSH2 0x5BD PUSH1 0x4 DUP1 CALLDATASIZE SUB DUP2 ADD SWAP1 PUSH2 0x5B8 SWAP2 SWAP1 PUSH2 0x38D3 JUMP JUMPDEST PUSH2 0x13D2 JUMP JUMPDEST PUSH1 0x40 MLOAD PUSH2 0x5CA SWAP2 SWAP1 PUSH2 0x3941 JUMP JUMPDEST PUSH1 0x40 MLOAD DUP1 SWAP2 SUB SWAP1 RETURN JUMPDEST CALLVALUE DUP1 ISZERO PUSH2 0x5DF JUMPI PUSH1 0x0 DUP1 REVERT JUMPDEST POP PUSH2 0x5FA PUSH1 0x4 DUP1 CALLDATASIZE SUB DUP2 ADD SWAP1 PUSH2 0x5F5 SWAP2 SWAP1 PUSH2 0x3E0A JUMP JUMPDEST PUSH2 0x1483 JUMP JUMPDEST PUSH1 0x40 MLOAD PUSH2 0x607 SWAP2 SWAP1 PUSH2 0x396B JUMP JUMPDEST PUSH1 0x40 MLOAD DUP1 SWAP2 SUB SWAP1 RETURN JUMPDEST CALLVALUE DUP1 ISZERO PUSH2 0x61C JUMPI PUSH1 0x0 DUP1 REVERT JUMPDEST POP PUSH2 0x625 PUSH2 0x153A JUMP JUMPDEST STOP JUMPDEST CALLVALUE DUP1 ISZERO PUSH2 0x633 JUMPI PUSH1 0x0 DUP1 REVERT JUMPDEST POP PUSH2 0x63C PUSH2 0x15C2 JUMP JUMPDEST PUSH1 0x40 MLOAD PUSH2 0x649 SWAP2 SWAP1 PUSH2 0x396B JUMP JUMPDEST PUSH1 0x40 MLOAD DUP1 SWAP2 SUB SWAP1 RETURN JUMPDEST CALLVALUE DUP1 ISZERO PUSH2 0x65E JUMPI PUSH1 0x0 DUP1 REVERT JUMPDEST POP PUSH2 0x679 PUSH1 0x4 DUP1 CALLDATASIZE SUB DUP2 ADD SWAP1 PUSH2 0x674 SWAP2 SWAP1 PUSH2 0x38D3 JUMP JUMPDEST PUSH2 0x15C8 JUMP JUMPDEST STOP JUMPDEST CALLVALUE DUP1 ISZERO PUSH2 0x687 JUMPI PUSH1 0x0 DUP1 REVERT JUMPDEST POP PUSH2 0x690 PUSH2 0x164E JUMP JUMPDEST STOP JUMPDEST CALLVALUE DUP1 ISZERO PUSH2 0x69E JUMPI PUSH1 0x0 DUP1 REVERT JUMPDEST POP PUSH2 0x6B9 PUSH1 0x4 DUP1 CALLDATASIZE SUB DUP2 ADD SWAP1 PUSH2 0x6B4 SWAP2 SWAP1 PUSH2 0x3E0A JUMP JUMPDEST PUSH2 0x16D4 JUMP JUMPDEST PUSH1 0x40 MLOAD PUSH2 0x6C6 SWAP2 SWAP1 PUSH2 0x3EF5 JUMP JUMPDEST PUSH1 0x40 MLOAD DUP1 SWAP2 SUB SWAP1 RETURN JUMPDEST CALLVALUE DUP1 ISZERO PUSH2 0x6DB JUMPI PUSH1 0x0 DUP1 REVERT JUMPDEST POP PUSH2 0x6E4 PUSH2 0x1830 JUMP JUMPDEST PUSH1 0x40 MLOAD PUSH2 0x6F1 SWAP2 SWAP1 PUSH2 0x3941 JUMP JUMPDEST PUSH1 0x40 MLOAD DUP1 SWAP2 SUB SWAP1 RETURN JUMPDEST CALLVALUE DUP1 ISZERO PUSH2 0x706 JUMPI PUSH1 0x0 DUP1 REVERT JUMPDEST POP PUSH2 0x70F PUSH2 0x185A JUMP JUMPDEST PUSH1 0x40 MLOAD PUSH2 0x71C SWAP2 SWAP1 PUSH2 0x387B JUMP JUMPDEST PUSH1 0x40 MLOAD DUP1 SWAP2 SUB SWAP1 RETURN JUMPDEST CALLVALUE DUP1 ISZERO PUSH2 0x731 JUMPI PUSH1 0x0 DUP1 REVERT JUMPDEST POP PUSH2 0x73A PUSH2 0x18EC JUMP JUMPDEST PUSH1 0x40 MLOAD PUSH2 0x747 SWAP2 SWAP1 PUSH2 0x396B JUMP JUMPDEST PUSH1 0x40 MLOAD DUP1 SWAP2 SUB SWAP1 RETURN JUMPDEST CALLVALUE DUP1 ISZERO PUSH2 0x75C JUMPI PUSH1 0x0 DUP1 REVERT JUMPDEST POP PUSH2 0x777 PUSH1 0x4 DUP1 CALLDATASIZE SUB DUP2 ADD SWAP1 PUSH2 0x772 SWAP2 SWAP1 PUSH2 0x3F43 JUMP JUMPDEST PUSH2 0x18F6 JUMP JUMPDEST STOP JUMPDEST PUSH2 0x793 PUSH1 0x4 DUP1 CALLDATASIZE SUB DUP2 ADD SWAP1 PUSH2 0x78E SWAP2 SWAP1 PUSH2 0x3F83 JUMP JUMPDEST PUSH2 0x190C JUMP JUMPDEST STOP JUMPDEST CALLVALUE DUP1 ISZERO PUSH2 0x7A1 JUMPI PUSH1 0x0 DUP1 REVERT JUMPDEST POP PUSH2 0x7BC PUSH1 0x4 DUP1 CALLDATASIZE SUB DUP2 ADD SWAP1 PUSH2 0x7B7 SWAP2 SWAP1 PUSH2 0x4093 JUMP JUMPDEST PUSH2 0x1B7C JUMP JUMPDEST STOP JUMPDEST CALLVALUE DUP1 ISZERO PUSH2 0x7CA JUMPI PUSH1 0x0 DUP1 REVERT JUMPDEST POP PUSH2 0x7E5 PUSH1 0x4 DUP1 CALLDATASIZE SUB DUP2 ADD SWAP1 PUSH2 0x7E0 SWAP2 SWAP1 PUSH2 0x38D3 JUMP JUMPDEST PUSH2 0x1BDE JUMP JUMPDEST PUSH1 0x40 MLOAD PUSH2 0x7F2 SWAP2 SWAP1 PUSH2 0x387B JUMP JUMPDEST PUSH1 0x40 MLOAD DUP1 SWAP2 SUB SWAP1 RETURN JUMPDEST CALLVALUE DUP1 ISZERO PUSH2 0x807 JUMPI PUSH1 0x0 DUP1 REVERT JUMPDEST POP PUSH2 0x822 PUSH1 0x4 DUP1 CALLDATASIZE SUB DUP2 ADD SWAP1 PUSH2 0x81D SWAP2 SWAP1 PUSH2 0x4116 JUMP JUMPDEST PUSH2 0x1BF0 JUMP JUMPDEST STOP JUMPDEST CALLVALUE DUP1 ISZERO PUSH2 0x830 JUMPI PUSH1 0x0 DUP1 REVERT JUMPDEST POP PUSH2 0x84B PUSH1 0x4 DUP1 CALLDATASIZE SUB DUP2 ADD SWAP1 PUSH2 0x846 SWAP2 SWAP1 PUSH2 0x4172 JUMP JUMPDEST PUSH2 0x1D2E JUMP JUMPDEST PUSH1 0x40 MLOAD PUSH2 0x858 SWAP2 SWAP1 PUSH2 0x37D0 JUMP JUMPDEST PUSH1 0x40 MLOAD DUP1 SWAP2 SUB SWAP1 RETURN JUMPDEST CALLVALUE DUP1 ISZERO PUSH2 0x86D JUMPI PUSH1 0x0 DUP1 REVERT JUMPDEST POP PUSH2 0x888 PUSH1 0x4 DUP1 CALLDATASIZE SUB DUP2 ADD SWAP1 PUSH2 0x883 SWAP2 SWAP1 PUSH2 0x3E0A JUMP JUMPDEST PUSH2 0x1DC2 JUMP JUMPDEST STOP JUMPDEST CALLVALUE DUP1 ISZERO PUSH2 0x896 JUMPI PUSH1 0x0 DUP1 REVERT JUMPDEST POP PUSH2 0x89F PUSH2 0x1EB9 JUMP JUMPDEST PUSH1 0x40 MLOAD PUSH2 0x8AC SWAP2 SWAP1 PUSH2 0x396B JUMP JUMPDEST PUSH1 0x40 MLOAD DUP1 SWAP2 SUB SWAP1 RETURN JUMPDEST PUSH1 0x0 PUSH2 0x8C0 DUP3 PUSH2 0x1EC3 JUMP JUMPDEST SWAP1 POP SWAP2 SWAP1 POP JUMP JUMPDEST PUSH1 0x60 PUSH1 0x0 DUP1 SLOAD PUSH2 0x8D6 SWAP1 PUSH2 0x41E1 JUMP JUMPDEST DUP1 PUSH1 0x1F ADD PUSH1 0x20 DUP1 SWAP2 DIV MUL PUSH1 0x20 ADD PUSH1 0x40 MLOAD SWAP1 DUP2 ADD PUSH1 0x40 MSTORE DUP1 SWAP3 SWAP2 SWAP1 DUP2 DUP2 MSTORE PUSH1 0x20 ADD DUP3 DUP1 SLOAD PUSH2 0x902 SWAP1 PUSH2 0x41E1 JUMP JUMPDEST DUP1 ISZERO PUSH2 0x94F JUMPI DUP1 PUSH1 0x1F LT PUSH2 0x924 JUMPI PUSH2 0x100 DUP1 DUP4 SLOAD DIV MUL DUP4 MSTORE SWAP2 PUSH1 0x20 ADD SWAP2 PUSH2 0x94F JUMP JUMPDEST DUP3 ADD SWAP2 SWAP1 PUSH1 0x0 MSTORE PUSH1 0x20 PUSH1 0x0 KECCAK256 SWAP1 JUMPDEST DUP2 SLOAD DUP2 MSTORE SWAP1 PUSH1 0x1 ADD SWAP1 PUSH1 0x20 ADD DUP1 DUP4 GT PUSH2 0x932 JUMPI DUP3 SWAP1 SUB PUSH1 0x1F AND DUP3 ADD SWAP2 JUMPDEST POP POP POP POP POP SWAP1 POP SWAP1 JUMP JUMPDEST PUSH1 0x0 PUSH2 0x964 DUP3 PUSH2 0x1F3D JUMP JUMPDEST PUSH2 0x9A3 JUMPI PUSH1 0x40 MLOAD PUSH32 0x8C379A000000000000000000000000000000000000000000000000000000000 DUP2 MSTORE PUSH1 0x4 ADD PUSH2 0x99A SWAP1 PUSH2 0x4284 JUMP JUMPDEST PUSH1 0x40 MLOAD DUP1 SWAP2 SUB SWAP1 REVERT JUMPDEST PUSH1 0x4 PUSH1 0x0 DUP4 DUP2 MSTORE PUSH1 0x20 ADD SWAP1 DUP2 MSTORE PUSH1 0x20 ADD PUSH1 0x0 KECCAK256 PUSH1 0x0 SWAP1 SLOAD SWAP1 PUSH2 0x100 EXP SWAP1 DIV PUSH20 0xFFFFFFFFFFFFFFFFFFFFFFFFFFFFFFFFFFFFFFFF AND SWAP1 POP SWAP2 SWAP1 POP JUMP JUMPDEST PUSH1 0xD SLOAD DUP2 JUMP JUMPDEST PUSH1 0x0 PUSH2 0x9EF DUP3 PUSH2 0x13D2 JUMP JUMPDEST SWAP1 POP DUP1 PUSH20 0xFFFFFFFFFFFFFFFFFFFFFFFFFFFFFFFFFFFFFFFF AND DUP4 PUSH20 0xFFFFFFFFFFFFFFFFFFFFFFFFFFFFFFFFFFFFFFFF AND SUB PUSH2 0xA5F JUMPI PUSH1 0x40 MLOAD PUSH32 0x8C379A000000000000000000000000000000000000000000000000000000000 DUP2 MSTORE PUSH1 0x4 ADD PUSH2 0xA56 SWAP1 PUSH2 0x4316 JUMP JUMPDEST PUSH1 0x40 MLOAD DUP1 SWAP2 SUB SWAP1 REVERT JUMPDEST DUP1 PUSH20 0xFFFFFFFFFFFFFFFFFFFFFFFFFFFFFFFFFFFFFFFF AND PUSH2 0xA7E PUSH2 0x1FA9 JUMP JUMPDEST PUSH20 0xFFFFFFFFFFFFFFFFFFFFFFFFFFFFFFFFFFFFFFFF AND EQ DUP1 PUSH2 0xAAD JUMPI POP PUSH2 0xAAC DUP2 PUSH2 0xAA7 PUSH2 0x1FA9 JUMP JUMPDEST PUSH2 0x1D2E JUMP JUMPDEST JUMPDEST PUSH2 0xAEC JUMPI PUSH1 0x40 MLOAD PUSH32 0x8C379A000000000000000000000000000000000000000000000000000000000 DUP2 MSTORE PUSH1 0x4 ADD PUSH2 0xAE3 SWAP1 PUSH2 0x43A8 JUMP JUMPDEST PUSH1 0x40 MLOAD DUP1 SWAP2 SUB SWAP1 REVERT JUMPDEST PUSH2 0xAF6 DUP4 DUP4 PUSH2 0x1FB1 JUMP JUMPDEST POP POP POP JUMP JUMPDEST PUSH1 0xF SLOAD DUP2 JUMP JUMPDEST PUSH1 0x0 PUSH1 0x8 DUP1 SLOAD SWAP1 POP SWAP1 POP SWAP1 JUMP JUMPDEST PUSH2 0xB16 PUSH2 0x1FA9 JUMP JUMPDEST PUSH20 0xFFFFFFFFFFFFFFFFFFFFFFFFFFFFFFFFFFFFFFFF AND PUSH2 0xB34 PUSH2 0x1830 JUMP JUMPDEST PUSH20 0xFFFFFFFFFFFFFFFFFFFFFFFFFFFFFFFFFFFFFFFF AND EQ PUSH2 0xB8A JUMPI PUSH1 0x40 MLOAD PUSH32 0x8C379A000000000000000000000000000000000000000000000000000000000 DUP2 MSTORE PUSH1 0x4 ADD PUSH2 0xB81 SWAP1 PUSH2 0x4414 JUMP JUMPDEST PUSH1 0x40 MLOAD DUP1 SWAP2 SUB SWAP1 REVERT JUMPDEST PUSH2 0xB94 DUP3 DUP3 PUSH2 0x206A JUMP JUMPDEST POP POP JUMP JUMPDEST PUSH1 0x0 PUSH1 0xE SLOAD SWAP1 POP SWAP1 JUMP JUMPDEST PUSH2 0xBB3 PUSH2 0xBAD PUSH2 0x1FA9 JUMP JUMPDEST DUP3 PUSH2 0x20D7 JUMP JUMPDEST PUSH2 0xBF2 JUMPI PUSH1 0x40 MLOAD PUSH32 0x8C379A000000000000000000000000000000000000000000000000000000000 DUP2 MSTORE PUSH1 0x4 ADD PUSH2 0xBE9 SWAP1 PUSH2 0x44A6 JUMP JUMPDEST PUSH1 0x40 MLOAD DUP1 SWAP2 SUB SWAP1 REVERT JUMPDEST PUSH2 0xBFD DUP4 DUP4 DUP4 PUSH2 0x21B5 JUMP JUMPDEST POP POP POP JUMP JUMPDEST PUSH1 0x0 PUSH2 0xC0D DUP4 PUSH2 0x1483 JUMP JUMPDEST DUP3 LT PUSH2 0xC4E JUMPI PUSH1 0x40 MLOAD PUSH32 0x8C379A000000000000000000000000000000000000000000000000000000000 DUP2 MSTORE PUSH1 0x4 ADD PUSH2 0xC45 SWAP1 PUSH2 0x4538 JUMP JUMPDEST PUSH1 0x40 MLOAD DUP1 SWAP2 SUB SWAP1 REVERT JUMPDEST PUSH1 0x6 PUSH1 0x0 DUP5 PUSH20 0xFFFFFFFFFFFFFFFFFFFFFFFFFFFFFFFFFFFFFFFF AND PUSH20 0xFFFFFFFFFFFFFFFFFFFFFFFFFFFFFFFFFFFFFFFF AND DUP2 MSTORE PUSH1 0x20 ADD SWAP1 DUP2 MSTORE PUSH1 0x20 ADD PUSH1 0x0 KECCAK256 PUSH1 0x0 DUP4 DUP2 MSTORE PUSH1 0x20 ADD SWAP1 DUP2 MSTORE PUSH1 0x20 ADD PUSH1 0x0 KECCAK256 SLOAD SWAP1 POP SWAP3 SWAP2 POP POP JUMP JUMPDEST PUSH2 0xCAF PUSH2 0x1FA9 JUMP JUMPDEST PUSH20 0xFFFFFFFFFFFFFFFFFFFFFFFFFFFFFFFFFFFFFFFF AND PUSH2 0xCCD PUSH2 0x1830 JUMP JUMPDEST PUSH20 0xFFFFFFFFFFFFFFFFFFFFFFFFFFFFFFFFFFFFFFFF AND EQ PUSH2 0xD23 JUMPI PUSH1 0x40 MLOAD PUSH32 0x8C379A000000000000000000000000000000000000000000000000000000000 DUP2 MSTORE PUSH1 0x4 ADD PUSH2 0xD1A SWAP1 PUSH2 0x4414 JUMP JUMPDEST PUSH1 0x40 MLOAD DUP1 SWAP2 SUB SWAP1 REVERT JUMPDEST DUP1 PUSH1 0xD DUP2 SWAP1 SSTORE POP POP JUMP JUMPDEST PUSH2 0xD35 PUSH2 0x1FA9 JUMP JUMPDEST PUSH20 0xFFFFFFFFFFFFFFFFFFFFFFFFFFFFFFFFFFFFFFFF AND PUSH2 0xD53 PUSH2 0x1830 JUMP JUMPDEST PUSH20 0xFFFFFFFFFFFFFFFFFFFFFFFFFFFFFFFFFFFFFFFF AND EQ PUSH2 0xDA9 JUMPI PUSH1 0x40 MLOAD PUSH32 0x8C379A000000000000000000000000000000000000000000000000000000000 DUP2 MSTORE PUSH1 0x4 ADD PUSH2 0xDA0 SWAP1 PUSH2 0x4414 JUMP JUMPDEST PUSH1 0x40 MLOAD DUP1 SWAP2 SUB SWAP1 REVERT JUMPDEST PUSH1 0x0 DUP4 MLOAD GT PUSH2 0xDED JUMPI PUSH1 0x40 MLOAD PUSH32 0x8C379A000000000000000000000000000000000000000000000000000000000 DUP2 MSTORE PUSH1 0x4 ADD PUSH2 0xDE4 SWAP1 PUSH2 0x45A4 JUMP JUMPDEST PUSH1 0x40 MLOAD DUP1 SWAP2 SUB SWAP1 REVERT JUMPDEST PUSH1 0x0 DUP3 MLOAD GT PUSH2 0xE31 JUMPI PUSH1 0x40 MLOAD PUSH32 0x8C379A000000000000000000000000000000000000000000000000000000000 DUP2 MSTORE PUSH1 0x4 ADD PUSH2 0xE28 SWAP1 PUSH2 0x4610 JUMP JUMPDEST PUSH1 0x40 MLOAD DUP1 SWAP2 SUB SWAP1 REVERT JUMPDEST PUSH1 0x0 DUP2 GT PUSH2 0xE74 JUMPI PUSH1 0x40 MLOAD PUSH32 0x8C379A000000000000000000000000000000000000000000000000000000000 DUP2 MSTORE PUSH1 0x4 ADD PUSH2 0xE6B SWAP1 PUSH2 0x467C JUMP JUMPDEST PUSH1 0x40 MLOAD DUP1 SWAP2 SUB SWAP1 REVERT JUMPDEST PUSH1 0xD SLOAD PUSH2 0xE81 PUSH1 0xC PUSH2 0x241B JUMP JUMPDEST LT PUSH2 0xEC1 JUMPI PUSH1 0x40 MLOAD PUSH32 0x8C379A000000000000000000000000000000000000000000000000000000000 DUP2 MSTORE PUSH1 0x4 ADD PUSH2 0xEB8 SWAP1 PUSH2 0x46E8 JUMP JUMPDEST PUSH1 0x40 MLOAD DUP1 SWAP2 SUB SWAP1 REVERT JUMPDEST PUSH1 0xD SLOAD DUP2 PUSH2 0xECF PUSH1 0xC PUSH2 0x241B JUMP JUMPDEST PUSH2 0xED9 SWAP2 SWAP1 PUSH2 0x4737 JUMP JUMPDEST GT ISZERO PUSH2 0xF1A JUMPI PUSH1 0x40 MLOAD PUSH32 0x8C379A000000000000000000000000000000000000000000000000000000000 DUP2 MSTORE PUSH1 0x4 ADD PUSH2 0xF11 SWAP1 PUSH2 0x47DD JUMP JUMPDEST PUSH1 0x40 MLOAD DUP1 SWAP2 SUB SWAP1 REVERT JUMPDEST PUSH1 0xE SLOAD DUP2 GT ISZERO PUSH2 0xF5F JUMPI PUSH1 0x40 MLOAD PUSH32 0x8C379A000000000000000000000000000000000000000000000000000000000 DUP2 MSTORE PUSH1 0x4 ADD PUSH2 0xF56 SWAP1 PUSH2 0x486F JUMP JUMPDEST PUSH1 0x40 MLOAD DUP1 SWAP2 SUB SWAP1 REVERT JUMPDEST DUP1 DUP3 MLOAD EQ PUSH2 0xFA2 JUMPI PUSH1 0x40 MLOAD PUSH32 0x8C379A000000000000000000000000000000000000000000000000000000000 DUP2 MSTORE PUSH1 0x4 ADD PUSH2 0xF99 SWAP1 PUSH2 0x4901 JUMP JUMPDEST PUSH1 0x40 MLOAD DUP1 SWAP2 SUB SWAP1 REVERT JUMPDEST PUSH1 0x0 JUMPDEST DUP2 DUP2 LT ISZERO PUSH2 0x1021 JUMPI PUSH2 0xFB7 PUSH1 0xC PUSH2 0x2429 JUMP JUMPDEST PUSH1 0x0 PUSH2 0xFC3 PUSH1 0xC PUSH2 0x241B JUMP JUMPDEST SWAP1 POP PUSH2 0xFE9 DUP6 DUP4 DUP2 MLOAD DUP2 LT PUSH2 0xFDB JUMPI PUSH2 0xFDA PUSH2 0x4921 JUMP JUMPDEST JUMPDEST PUSH1 0x20 MUL PUSH1 0x20 ADD ADD MLOAD DUP3 PUSH2 0x243F JUMP JUMPDEST PUSH2 0x100D DUP2 DUP6 DUP5 DUP2 MLOAD DUP2 LT PUSH2 0x1000 JUMPI PUSH2 0xFFF PUSH2 0x4921 JUMP JUMPDEST JUMPDEST PUSH1 0x20 MUL PUSH1 0x20 ADD ADD MLOAD PUSH2 0x206A JUMP JUMPDEST POP DUP1 DUP1 PUSH2 0x1019 SWAP1 PUSH2 0x4950 JUMP JUMPDEST SWAP2 POP POP PUSH2 0xFA5 JUMP JUMPDEST POP POP POP POP JUMP JUMPDEST PUSH2 0x102F PUSH2 0x1FA9 JUMP JUMPDEST PUSH20 0xFFFFFFFFFFFFFFFFFFFFFFFFFFFFFFFFFFFFFFFF AND PUSH2 0x104D PUSH2 0x1830 JUMP JUMPDEST PUSH20 0xFFFFFFFFFFFFFFFFFFFFFFFFFFFFFFFFFFFFFFFF AND EQ PUSH2 0x10A3 JUMPI PUSH1 0x40 MLOAD PUSH32 0x8C379A000000000000000000000000000000000000000000000000000000000 DUP2 MSTORE PUSH1 0x4 ADD PUSH2 0x109A SWAP1 PUSH2 0x4414 JUMP JUMPDEST PUSH1 0x40 MLOAD DUP1 SWAP2 SUB SWAP1 REVERT JUMPDEST PUSH1 0x0 SELFBALANCE GT PUSH2 0x10E6 JUMPI PUSH1 0x40 MLOAD PUSH32 0x8C379A000000000000000000000000000000000000000000000000000000000 DUP2 MSTORE PUSH1 0x4 ADD PUSH2 0x10DD SWAP1 PUSH2 0x4A0A JUMP JUMPDEST PUSH1 0x40 MLOAD DUP1 SWAP2 SUB SWAP1 REVERT JUMPDEST PUSH1 0x0 DUP1 PUSH2 0x10F1 PUSH2 0x1830 JUMP JUMPDEST PUSH20 0xFFFFFFFFFFFFFFFFFFFFFFFFFFFFFFFFFFFFFFFF AND SELFBALANCE PUSH1 0x40 MLOAD PUSH2 0x1114 SWAP1 PUSH2 0x4A5B JUMP JUMPDEST PUSH1 0x0 PUSH1 0x40 MLOAD DUP1 DUP4 SUB DUP2 DUP6 DUP8 GAS CALL SWAP3 POP POP POP RETURNDATASIZE DUP1 PUSH1 0x0 DUP2 EQ PUSH2 0x1151 JUMPI PUSH1 0x40 MLOAD SWAP2 POP PUSH1 0x1F NOT PUSH1 0x3F RETURNDATASIZE ADD AND DUP3 ADD PUSH1 0x40 MSTORE RETURNDATASIZE DUP3 MSTORE RETURNDATASIZE PUSH1 0x0 PUSH1 0x20 DUP5 ADD RETURNDATACOPY PUSH2 0x1156 JUMP JUMPDEST PUSH1 0x60 SWAP2 POP JUMPDEST POP SWAP2 POP SWAP2 POP DUP2 DUP2 PUSH1 0x40 MLOAD PUSH1 0x20 ADD PUSH2 0x116D SWAP2 SWAP1 PUSH2 0x4B03 JUMP JUMPDEST PUSH1 0x40 MLOAD PUSH1 0x20 DUP2 DUP4 SUB SUB DUP2 MSTORE SWAP1 PUSH1 0x40 MSTORE SWAP1 PUSH2 0x11BD JUMPI PUSH1 0x40 MLOAD PUSH32 0x8C379A000000000000000000000000000000000000000000000000000000000 DUP2 MSTORE PUSH1 0x4 ADD PUSH2 0x11B4 SWAP2 SWAP1 PUSH2 0x387B JUMP JUMPDEST PUSH1 0x40 MLOAD DUP1 SWAP2 SUB SWAP1 REVERT JUMPDEST POP POP POP JUMP JUMPDEST PUSH2 0x11CA PUSH2 0x1FA9 JUMP JUMPDEST PUSH20 0xFFFFFFFFFFFFFFFFFFFFFFFFFFFFFFFFFFFFFFFF AND PUSH2 0x11E8 PUSH2 0x1830 JUMP JUMPDEST PUSH20 0xFFFFFFFFFFFFFFFFFFFFFFFFFFFFFFFFFFFFFFFF AND EQ PUSH2 0x123E JUMPI PUSH1 0x40 MLOAD PUSH32 0x8C379A000000000000000000000000000000000000000000000000000000000 DUP2 MSTORE PUSH1 0x4 ADD PUSH2 0x1235 SWAP1 PUSH2 0x4414 JUMP JUMPDEST PUSH1 0x40 MLOAD DUP1 SWAP2 SUB SWAP1 REVERT JUMPDEST PUSH2 0x1246 PUSH2 0x245D JUMP JUMPDEST JUMP JUMPDEST PUSH2 0x1263 DUP4 DUP4 DUP4 PUSH1 0x40 MLOAD DUP1 PUSH1 0x20 ADD PUSH1 0x40 MSTORE DUP1 PUSH1 0x0 DUP2 MSTORE POP PUSH2 0x1B7C JUMP JUMPDEST POP POP POP JUMP JUMPDEST PUSH2 0x1279 PUSH2 0x1273 PUSH2 0x1FA9 JUMP JUMPDEST DUP3 PUSH2 0x20D7 JUMP JUMPDEST PUSH2 0x12B8 JUMPI PUSH1 0x40 MLOAD PUSH32 0x8C379A000000000000000000000000000000000000000000000000000000000 DUP2 MSTORE PUSH1 0x4 ADD PUSH2 0x12AF SWAP1 PUSH2 0x4B97 JUMP JUMPDEST PUSH1 0x40 MLOAD DUP1 SWAP2 SUB SWAP1 REVERT JUMPDEST PUSH2 0x12C1 DUP2 PUSH2 0x24FF JUMP JUMPDEST POP JUMP JUMPDEST PUSH1 0x0 PUSH2 0x12CE PUSH2 0xB01 JUMP JUMPDEST DUP3 LT PUSH2 0x130F JUMPI PUSH1 0x40 MLOAD PUSH32 0x8C379A000000000000000000000000000000000000000000000000000000000 DUP2 MSTORE PUSH1 0x4 ADD PUSH2 0x1306 SWAP1 PUSH2 0x4C29 JUMP JUMPDEST PUSH1 0x40 MLOAD DUP1 SWAP2 SUB SWAP1 REVERT JUMPDEST PUSH1 0x8 DUP3 DUP2 SLOAD DUP2 LT PUSH2 0x1323 JUMPI PUSH2 0x1322 PUSH2 0x4921 JUMP JUMPDEST JUMPDEST SWAP1 PUSH1 0x0 MSTORE PUSH1 0x20 PUSH1 0x0 KECCAK256 ADD SLOAD SWAP1 POP SWAP2 SWAP1 POP JUMP JUMPDEST PUSH2 0x133D PUSH2 0x1FA9 JUMP JUMPDEST PUSH20 0xFFFFFFFFFFFFFFFFFFFFFFFFFFFFFFFFFFFFFFFF AND PUSH2 0x135B PUSH2 0x1830 JUMP JUMPDEST PUSH20 0xFFFFFFFFFFFFFFFFFFFFFFFFFFFFFFFFFFFFFFFF AND EQ PUSH2 0x13B1 JUMPI PUSH1 0x40 MLOAD PUSH32 0x8C379A000000000000000000000000000000000000000000000000000000000 DUP2 MSTORE PUSH1 0x4 ADD PUSH2 0x13A8 SWAP1 PUSH2 0x4414 JUMP JUMPDEST PUSH1 0x40 MLOAD DUP1 SWAP2 SUB SWAP1 REVERT JUMPDEST DUP1 PUSH1 0xE DUP2 SWAP1 SSTORE POP POP JUMP JUMPDEST PUSH1 0x0 PUSH1 0xB PUSH1 0x0 SWAP1 SLOAD SWAP1 PUSH2 0x100 EXP SWAP1 DIV PUSH1 0xFF AND SWAP1 POP SWAP1 JUMP JUMPDEST PUSH1 0x0 DUP1 PUSH1 0x2 PUSH1 0x0 DUP5 DUP2 MSTORE PUSH1 0x20 ADD SWAP1 DUP2 MSTORE PUSH1 0x20 ADD PUSH1 0x0 KECCAK256 PUSH1 0x0 SWAP1 SLOAD SWAP1 PUSH2 0x100 EXP SWAP1 DIV PUSH20 0xFFFFFFFFFFFFFFFFFFFFFFFFFFFFFFFFFFFFFFFF AND SWAP1 POP PUSH1 0x0 PUSH20 0xFFFFFFFFFFFFFFFFFFFFFFFFFFFFFFFFFFFFFFFF AND DUP2 PUSH20 0xFFFFFFFFFFFFFFFFFFFFFFFFFFFFFFFFFFFFFFFF AND SUB PUSH2 0x147A JUMPI PUSH1 0x40 MLOAD PUSH32 0x8C379A000000000000000000000000000000000000000000000000000000000 DUP2 MSTORE PUSH1 0x4 ADD PUSH2 0x1471 SWAP1 PUSH2 0x4CBB JUMP JUMPDEST PUSH1 0x40 MLOAD DUP1 SWAP2 SUB SWAP1 REVERT JUMPDEST DUP1 SWAP2 POP POP SWAP2 SWAP1 POP JUMP JUMPDEST PUSH1 0x0 DUP1 PUSH20 0xFFFFFFFFFFFFFFFFFFFFFFFFFFFFFFFFFFFFFFFF AND DUP3 PUSH20 0xFFFFFFFFFFFFFFFFFFFFFFFFFFFFFFFFFFFFFFFF AND SUB PUSH2 0x14F3 JUMPI PUSH1 0x40 MLOAD PUSH32 0x8C379A000000000000000000000000000000000000000000000000000000000 DUP2 MSTORE PUSH1 0x4 ADD PUSH2 0x14EA SWAP1 PUSH2 0x4D4D JUMP JUMPDEST PUSH1 0x40 MLOAD DUP1 SWAP2 SUB SWAP1 REVERT JUMPDEST PUSH1 0x3 PUSH1 0x0 DUP4 PUSH20 0xFFFFFFFFFFFFFFFFFFFFFFFFFFFFFFFFFFFFFFFF AND PUSH20 0xFFFFFFFFFFFFFFFFFFFFFFFFFFFFFFFFFFFFFFFF AND DUP2 MSTORE PUSH1 0x20 ADD SWAP1 DUP2 MSTORE PUSH1 0x20 ADD PUSH1 0x0 KECCAK256 SLOAD SWAP1 POP SWAP2 SWAP1 POP JUMP JUMPDEST PUSH2 0x1542 PUSH2 0x1FA9 JUMP JUMPDEST PUSH20 0xFFFFFFFFFFFFFFFFFFFFFFFFFFFFFFFFFFFFFFFF AND PUSH2 0x1560 PUSH2 0x1830 JUMP JUMPDEST PUSH20 0xFFFFFFFFFFFFFFFFFFFFFFFFFFFFFFFFFFFFFFFF AND EQ PUSH2 0x15B6 JUMPI PUSH1 0x40 MLOAD PUSH32 0x8C379A000000000000000000000000000000000000000000000000000000000 DUP2 MSTORE PUSH1 0x4 ADD PUSH2 0x15AD SWAP1 PUSH2 0x4414 JUMP JUMPDEST PUSH1 0x40 MLOAD DUP1 SWAP2 SUB SWAP1 REVERT JUMPDEST PUSH2 0x15C0 PUSH1 0x0 PUSH2 0x250B JUMP JUMPDEST JUMP JUMPDEST PUSH1 0xE SLOAD DUP2 JUMP JUMPDEST PUSH2 0x15D0 PUSH2 0x1FA9 JUMP JUMPDEST PUSH20 0xFFFFFFFFFFFFFFFFFFFFFFFFFFFFFFFFFFFFFFFF AND PUSH2 0x15EE PUSH2 0x1830 JUMP JUMPDEST PUSH20 0xFFFFFFFFFFFFFFFFFFFFFFFFFFFFFFFFFFFFFFFF AND EQ PUSH2 0x1644 JUMPI PUSH1 0x40 MLOAD PUSH32 0x8C379A000000000000000000000000000000000000000000000000000000000 DUP2 MSTORE PUSH1 0x4 ADD PUSH2 0x163B SWAP1 PUSH2 0x4414 JUMP JUMPDEST PUSH1 0x40 MLOAD DUP1 SWAP2 SUB SWAP1 REVERT JUMPDEST DUP1 PUSH1 0xF DUP2 SWAP1 SSTORE POP POP JUMP JUMPDEST PUSH2 0x1656 PUSH2 0x1FA9 JUMP JUMPDEST PUSH20 0xFFFFFFFFFFFFFFFFFFFFFFFFFFFFFFFFFFFFFFFF AND PUSH2 0x1674 PUSH2 0x1830 JUMP JUMPDEST PUSH20 0xFFFFFFFFFFFFFFFFFFFFFFFFFFFFFFFFFFFFFFFF AND EQ PUSH2 0x16CA JUMPI PUSH1 0x40 MLOAD PUSH32 0x8C379A000000000000000000000000000000000000000000000000000000000 DUP2 MSTORE PUSH1 0x4 ADD PUSH2 0x16C1 SWAP1 PUSH2 0x4414 JUMP JUMPDEST PUSH1 0x40 MLOAD DUP1 SWAP2 SUB SWAP1 REVERT JUMPDEST PUSH2 0x16D2 PUSH2 0x25D1 JUMP JUMPDEST JUMP JUMPDEST PUSH1 0x60 PUSH1 0x0 PUSH2 0x16E1 DUP4 PUSH2 0x1483 JUMP JUMPDEST SWAP1 POP PUSH1 0x0 DUP2 SUB PUSH2 0x173D JUMPI PUSH1 0x0 PUSH8 0xFFFFFFFFFFFFFFFF DUP2 GT ISZERO PUSH2 0x1706 JUMPI PUSH2 0x1705 PUSH2 0x39FC JUMP JUMPDEST JUMPDEST PUSH1 0x40 MLOAD SWAP1 DUP1 DUP3 MSTORE DUP1 PUSH1 0x20 MUL PUSH1 0x20 ADD DUP3 ADD PUSH1 0x40 MSTORE DUP1 ISZERO PUSH2 0x1734 JUMPI DUP2 PUSH1 0x20 ADD PUSH1 0x20 DUP3 MUL DUP1 CALLDATASIZE DUP4 CALLDATACOPY DUP1 DUP3 ADD SWAP2 POP POP SWAP1 POP JUMPDEST POP SWAP2 POP POP PUSH2 0x182B JUMP JUMPDEST PUSH1 0x0 DUP2 PUSH8 0xFFFFFFFFFFFFFFFF DUP2 GT ISZERO PUSH2 0x1759 JUMPI PUSH2 0x1758 PUSH2 0x39FC JUMP JUMPDEST JUMPDEST PUSH1 0x40 MLOAD SWAP1 DUP1 DUP3 MSTORE DUP1 PUSH1 0x20 MUL PUSH1 0x20 ADD DUP3 ADD PUSH1 0x40 MSTORE DUP1 ISZERO PUSH2 0x1787 JUMPI DUP2 PUSH1 0x20 ADD PUSH1 0x20 DUP3 MUL DUP1 CALLDATASIZE DUP4 CALLDATACOPY DUP1 DUP3 ADD SWAP2 POP POP SWAP1 POP JUMPDEST POP SWAP1 POP PUSH1 0x0 PUSH2 0x1794 PUSH2 0xB01 JUMP JUMPDEST SWAP1 POP PUSH1 0x0 DUP1 PUSH1 0x1 SWAP1 POP JUMPDEST DUP3 DUP2 GT PUSH2 0x1822 JUMPI DUP7 PUSH20 0xFFFFFFFFFFFFFFFFFFFFFFFFFFFFFFFFFFFFFFFF AND PUSH2 0x17C5 DUP3 PUSH2 0x13D2 JUMP JUMPDEST PUSH20 0xFFFFFFFFFFFFFFFFFFFFFFFFFFFFFFFFFFFFFFFF AND SUB PUSH2 0x180F JUMPI DUP1 DUP5 DUP4 DUP2 MLOAD DUP2 LT PUSH2 0x17F4 JUMPI PUSH2 0x17F3 PUSH2 0x4921 JUMP JUMPDEST JUMPDEST PUSH1 0x20 MUL PUSH1 0x20 ADD ADD DUP2 DUP2 MSTORE POP POP DUP2 DUP1 PUSH2 0x180B SWAP1 PUSH2 0x4950 JUMP JUMPDEST SWAP3 POP POP JUMPDEST DUP1 DUP1 PUSH2 0x181A SWAP1 PUSH2 0x4950 JUMP JUMPDEST SWAP2 POP POP PUSH2 0x179E JUMP JUMPDEST DUP4 SWAP6 POP POP POP POP POP POP JUMPDEST SWAP2 SWAP1 POP JUMP JUMPDEST PUSH1 0x0 PUSH1 0xB PUSH1 0x1 SWAP1 SLOAD SWAP1 PUSH2 0x100 EXP SWAP1 DIV PUSH20 0xFFFFFFFFFFFFFFFFFFFFFFFFFFFFFFFFFFFFFFFF AND SWAP1 POP SWAP1 JUMP JUMPDEST PUSH1 0x60 PUSH1 0x1 DUP1 SLOAD PUSH2 0x1869 SWAP1 PUSH2 0x41E1 JUMP JUMPDEST DUP1 PUSH1 0x1F ADD PUSH1 0x20 DUP1 SWAP2 DIV MUL PUSH1 0x20 ADD PUSH1 0x40 MLOAD SWAP1 DUP2 ADD PUSH1 0x40 MSTORE DUP1 SWAP3 SWAP2 SWAP1 DUP2 DUP2 MSTORE PUSH1 0x20 ADD DUP3 DUP1 SLOAD PUSH2 0x1895 SWAP1 PUSH2 0x41E1 JUMP JUMPDEST DUP1 ISZERO PUSH2 0x18E2 JUMPI DUP1 PUSH1 0x1F LT PUSH2 0x18B7 JUMPI PUSH2 0x100 DUP1 DUP4 SLOAD DIV MUL DUP4 MSTORE SWAP2 PUSH1 0x20 ADD SWAP2 PUSH2 0x18E2 JUMP JUMPDEST DUP3 ADD SWAP2 SWAP1 PUSH1 0x0 MSTORE PUSH1 0x20 PUSH1 0x0 KECCAK256 SWAP1 JUMPDEST DUP2 SLOAD DUP2 MSTORE SWAP1 PUSH1 0x1 ADD SWAP1 PUSH1 0x20 ADD DUP1 DUP4 GT PUSH2 0x18C5 JUMPI DUP3 SWAP1 SUB PUSH1 0x1F AND DUP3 ADD SWAP2 JUMPDEST POP POP POP POP POP SWAP1 POP SWAP1 JUMP JUMPDEST PUSH1 0x0 PUSH1 0xD SLOAD SWAP1 POP SWAP1 JUMP JUMPDEST PUSH2 0x1908 PUSH2 0x1901 PUSH2 0x1FA9 JUMP JUMPDEST DUP4 DUP4 PUSH2 0x2674 JUMP JUMPDEST POP POP JUMP JUMPDEST PUSH1 0x0 DUP3 MLOAD GT PUSH2 0x1950 JUMPI PUSH1 0x40 MLOAD PUSH32 0x8C379A000000000000000000000000000000000000000000000000000000000 DUP2 MSTORE PUSH1 0x4 ADD PUSH2 0x1947 SWAP1 PUSH2 0x4610 JUMP JUMPDEST PUSH1 0x40 MLOAD DUP1 SWAP2 SUB SWAP1 REVERT JUMPDEST PUSH1 0x0 DUP2 GT PUSH2 0x1993 JUMPI PUSH1 0x40 MLOAD PUSH32 0x8C379A000000000000000000000000000000000000000000000000000000000 DUP2 MSTORE PUSH1 0x4 ADD PUSH2 0x198A SWAP1 PUSH2 0x467C JUMP JUMPDEST PUSH1 0x40 MLOAD DUP1 SWAP2 SUB SWAP1 REVERT JUMPDEST PUSH1 0xD SLOAD PUSH2 0x19A0 PUSH1 0xC PUSH2 0x241B JUMP JUMPDEST LT PUSH2 0x19E0 JUMPI PUSH1 0x40 MLOAD PUSH32 0x8C379A000000000000000000000000000000000000000000000000000000000 DUP2 MSTORE PUSH1 0x4 ADD PUSH2 0x19D7 SWAP1 PUSH2 0x46E8 JUMP JUMPDEST PUSH1 0x40 MLOAD DUP1 SWAP2 SUB SWAP1 REVERT JUMPDEST PUSH1 0xD SLOAD DUP2 PUSH2 0x19EE PUSH1 0xC PUSH2 0x241B JUMP JUMPDEST PUSH2 0x19F8 SWAP2 SWAP1 PUSH2 0x4737 JUMP JUMPDEST GT ISZERO PUSH2 0x1A39 JUMPI PUSH1 0x40 MLOAD PUSH32 0x8C379A000000000000000000000000000000000000000000000000000000000 DUP2 MSTORE PUSH1 0x4 ADD PUSH2 0x1A30 SWAP1 PUSH2 0x47DD JUMP JUMPDEST PUSH1 0x40 MLOAD DUP1 SWAP2 SUB SWAP1 REVERT JUMPDEST PUSH1 0xE SLOAD DUP2 GT ISZERO PUSH2 0x1A7E JUMPI PUSH1 0x40 MLOAD PUSH32 0x8C379A000000000000000000000000000000000000000000000000000000000 DUP2 MSTORE PUSH1 0x4 ADD PUSH2 0x1A75 SWAP1 PUSH2 0x486F JUMP JUMPDEST PUSH1 0x40 MLOAD DUP1 SWAP2 SUB SWAP1 REVERT JUMPDEST DUP1 PUSH1 0xF SLOAD PUSH2 0x1A8C SWAP2 SWAP1 PUSH2 0x4D6D JUMP JUMPDEST CALLVALUE LT ISZERO PUSH2 0x1ACE JUMPI PUSH1 0x40 MLOAD PUSH32 0x8C379A000000000000000000000000000000000000000000000000000000000 DUP2 MSTORE PUSH1 0x4 ADD PUSH2 0x1AC5 SWAP1 PUSH2 0x4E21 JUMP JUMPDEST PUSH1 0x40 MLOAD DUP1 SWAP2 SUB SWAP1 REVERT JUMPDEST DUP1 DUP3 MLOAD EQ PUSH2 0x1B11 JUMPI PUSH1 0x40 MLOAD PUSH32 0x8C379A000000000000000000000000000000000000000000000000000000000 DUP2 MSTORE PUSH1 0x4 ADD PUSH2 0x1B08 SWAP1 PUSH2 0x4901 JUMP JUMPDEST PUSH1 0x40 MLOAD DUP1 SWAP2 SUB SWAP1 REVERT JUMPDEST PUSH1 0x0 JUMPDEST DUP2 DUP2 LT ISZERO PUSH2 0x1B76 JUMPI PUSH2 0x1B26 PUSH1 0xC PUSH2 0x2429 JUMP JUMPDEST PUSH1 0x0 PUSH2 0x1B32 PUSH1 0xC PUSH2 0x241B JUMP JUMPDEST SWAP1 POP PUSH2 0x1B3E DUP6 DUP3 PUSH2 0x243F JUMP JUMPDEST PUSH2 0x1B62 DUP2 DUP6 DUP5 DUP2 MLOAD DUP2 LT PUSH2 0x1B55 JUMPI PUSH2 0x1B54 PUSH2 0x4921 JUMP JUMPDEST JUMPDEST PUSH1 0x20 MUL PUSH1 0x20 ADD ADD MLOAD PUSH2 0x206A JUMP JUMPDEST POP DUP1 DUP1 PUSH2 0x1B6E SWAP1 PUSH2 0x4950 JUMP JUMPDEST SWAP2 POP POP PUSH2 0x1B14 JUMP JUMPDEST POP POP POP POP JUMP JUMPDEST PUSH2 0x1B8D PUSH2 0x1B87 PUSH2 0x1FA9 JUMP JUMPDEST DUP4 PUSH2 0x20D7 JUMP JUMPDEST PUSH2 0x1BCC JUMPI PUSH1 0x40 MLOAD PUSH32 0x8C379A000000000000000000000000000000000000000000000000000000000 DUP2 MSTORE PUSH1 0x4 ADD PUSH2 0x1BC3 SWAP1 PUSH2 0x44A6 JUMP JUMPDEST PUSH1 0x40 MLOAD DUP1 SWAP2 SUB SWAP1 REVERT JUMPDEST PUSH2 0x1BD8 DUP5 DUP5 DUP5 DUP5 PUSH2 0x27E0 JUMP JUMPDEST POP POP POP POP JUMP JUMPDEST PUSH1 0x60 PUSH2 0x1BE9 DUP3 PUSH2 0x283C JUMP JUMPDEST SWAP1 POP SWAP2 SWAP1 POP JUMP JUMPDEST PUSH2 0x1BF8 PUSH2 0x1FA9 JUMP JUMPDEST PUSH20 0xFFFFFFFFFFFFFFFFFFFFFFFFFFFFFFFFFFFFFFFF AND PUSH2 0x1C16 PUSH2 0x1830 JUMP JUMPDEST PUSH20 0xFFFFFFFFFFFFFFFFFFFFFFFFFFFFFFFFFFFFFFFF AND EQ PUSH2 0x1C6C JUMPI PUSH1 0x40 MLOAD PUSH32 0x8C379A000000000000000000000000000000000000000000000000000000000 DUP2 MSTORE PUSH1 0x4 ADD PUSH2 0x1C63 SWAP1 PUSH2 0x4414 JUMP JUMPDEST PUSH1 0x40 MLOAD DUP1 SWAP2 SUB SWAP1 REVERT JUMPDEST PUSH1 0x0 DUP2 MLOAD GT PUSH2 0x1CB0 JUMPI PUSH1 0x40 MLOAD PUSH32 0x8C379A000000000000000000000000000000000000000000000000000000000 DUP2 MSTORE PUSH1 0x4 ADD PUSH2 0x1CA7 SWAP1 PUSH2 0x4E8D JUMP JUMPDEST PUSH1 0x40 MLOAD DUP1 SWAP2 SUB SWAP1 REVERT JUMPDEST PUSH1 0xD SLOAD PUSH2 0x1CBD PUSH1 0xC PUSH2 0x241B JUMP JUMPDEST LT PUSH2 0x1CFD JUMPI PUSH1 0x40 MLOAD PUSH32 0x8C379A000000000000000000000000000000000000000000000000000000000 DUP2 MSTORE PUSH1 0x4 ADD PUSH2 0x1CF4 SWAP1 PUSH2 0x46E8 JUMP JUMPDEST PUSH1 0x40 MLOAD DUP1 SWAP2 SUB SWAP1 REVERT JUMPDEST PUSH2 0x1D07 PUSH1 0xC PUSH2 0x2429 JUMP JUMPDEST PUSH1 0x0 PUSH2 0x1D13 PUSH1 0xC PUSH2 0x241B JUMP JUMPDEST SWAP1 POP PUSH2 0x1D1F DUP4 DUP3 PUSH2 0x243F JUMP JUMPDEST PUSH2 0x1D29 DUP2 DUP4 PUSH2 0x206A JUMP JUMPDEST POP POP POP JUMP JUMPDEST PUSH1 0x0 PUSH1 0x5 PUSH1 0x0 DUP5 PUSH20 0xFFFFFFFFFFFFFFFFFFFFFFFFFFFFFFFFFFFFFFFF AND PUSH20 0xFFFFFFFFFFFFFFFFFFFFFFFFFFFFFFFFFFFFFFFF AND DUP2 MSTORE PUSH1 0x20 ADD SWAP1 DUP2 MSTORE PUSH1 0x20 ADD PUSH1 0x0 KECCAK256 PUSH1 0x0 DUP4 PUSH20 0xFFFFFFFFFFFFFFFFFFFFFFFFFFFFFFFFFFFFFFFF AND PUSH20 0xFFFFFFFFFFFFFFFFFFFFFFFFFFFFFFFFFFFFFFFF AND DUP2 MSTORE PUSH1 0x20 ADD SWAP1 DUP2 MSTORE PUSH1 0x20 ADD PUSH1 0x0 KECCAK256 PUSH1 0x0 SWAP1 SLOAD SWAP1 PUSH2 0x100 EXP SWAP1 DIV PUSH1 0xFF AND SWAP1 POP SWAP3 SWAP2 POP POP JUMP JUMPDEST PUSH2 0x1DCA PUSH2 0x1FA9 JUMP JUMPDEST PUSH20 0xFFFFFFFFFFFFFFFFFFFFFFFFFFFFFFFFFFFFFFFF AND PUSH2 0x1DE8 PUSH2 0x1830 JUMP JUMPDEST PUSH20 0xFFFFFFFFFFFFFFFFFFFFFFFFFFFFFFFFFFFFFFFF AND EQ PUSH2 0x1E3E JUMPI PUSH1 0x40 MLOAD PUSH32 0x8C379A000000000000000000000000000000000000000000000000000000000 DUP2 MSTORE PUSH1 0x4 ADD PUSH2 0x1E35 SWAP1 PUSH2 0x4414 JUMP JUMPDEST PUSH1 0x40 MLOAD DUP1 SWAP2 SUB SWAP1 REVERT JUMPDEST PUSH1 0x0 PUSH20 0xFFFFFFFFFFFFFFFFFFFFFFFFFFFFFFFFFFFFFFFF AND DUP2 PUSH20 0xFFFFFFFFFFFFFFFFFFFFFFFFFFFFFFFFFFFFFFFF AND SUB PUSH2 0x1EAD JUMPI PUSH1 0x40 MLOAD PUSH32 0x8C379A000000000000000000000000000000000000000000000000000000000 DUP2 MSTORE PUSH1 0x4 ADD PUSH2 0x1EA4 SWAP1 PUSH2 0x4F1F JUMP JUMPDEST PUSH1 0x40 MLOAD DUP1 SWAP2 SUB SWAP1 REVERT JUMPDEST PUSH2 0x1EB6 DUP2 PUSH2 0x250B JUMP JUMPDEST POP JUMP JUMPDEST PUSH1 0x0 PUSH1 0xF SLOAD SWAP1 POP SWAP1 JUMP JUMPDEST PUSH1 0x0 PUSH32 0x780E9D6300000000000000000000000000000000000000000000000000000000 PUSH28 0xFFFFFFFFFFFFFFFFFFFFFFFFFFFFFFFFFFFFFFFFFFFFFFFFFFFFFFFF NOT AND DUP3 PUSH28 0xFFFFFFFFFFFFFFFFFFFFFFFFFFFFFFFFFFFFFFFFFFFFFFFFFFFFFFFF NOT AND EQ DUP1 PUSH2 0x1F36 JUMPI POP PUSH2 0x1F35 DUP3 PUSH2 0x298D JUMP JUMPDEST JUMPDEST SWAP1 POP SWAP2 SWAP1 POP JUMP JUMPDEST PUSH1 0x0 DUP1 PUSH20 0xFFFFFFFFFFFFFFFFFFFFFFFFFFFFFFFFFFFFFFFF AND PUSH1 0x2 PUSH1 0x0 DUP5 DUP2 MSTORE PUSH1 0x20 ADD SWAP1 DUP2 MSTORE PUSH1 0x20 ADD PUSH1 0x0 KECCAK256 PUSH1 0x0 SWAP1 SLOAD SWAP1 PUSH2 0x100 EXP SWAP1 DIV PUSH20 0xFFFFFFFFFFFFFFFFFFFFFFFFFFFFFFFFFFFFFFFF AND PUSH20 0xFFFFFFFFFFFFFFFFFFFFFFFFFFFFFFFFFFFFFFFF AND EQ ISZERO SWAP1 POP SWAP2 SWAP1 POP JUMP JUMPDEST PUSH1 0x0 CALLER SWAP1 POP SWAP1 JUMP JUMPDEST DUP2 PUSH1 0x4 PUSH1 0x0 DUP4 DUP2 MSTORE PUSH1 0x20 ADD SWAP1 DUP2 MSTORE PUSH1 0x20 ADD PUSH1 0x0 KECCAK256 PUSH1 0x0 PUSH2 0x100 EXP DUP2 SLOAD DUP2 PUSH20 0xFFFFFFFFFFFFFFFFFFFFFFFFFFFFFFFFFFFFFFFF MUL NOT AND SWAP1 DUP4 PUSH20 0xFFFFFFFFFFFFFFFFFFFFFFFFFFFFFFFFFFFFFFFF AND MUL OR SWAP1 SSTORE POP DUP1 DUP3 PUSH20 0xFFFFFFFFFFFFFFFFFFFFFFFFFFFFFFFFFFFFFFFF AND PUSH2 0x2024 DUP4 PUSH2 0x13D2 JUMP JUMPDEST PUSH20 0xFFFFFFFFFFFFFFFFFFFFFFFFFFFFFFFFFFFFFFFF AND PUSH32 0x8C5BE1E5EBEC7D5BD14F71427D1E84F3DD0314C0F7B2291E5B200AC8C7C3B925 PUSH1 0x40 MLOAD PUSH1 0x40 MLOAD DUP1 SWAP2 SUB SWAP1 LOG4 POP POP JUMP JUMPDEST PUSH2 0x2073 DUP3 PUSH2 0x1F3D JUMP JUMPDEST PUSH2 0x20B2 JUMPI PUSH1 0x40 MLOAD PUSH32 0x8C379A000000000000000000000000000000000000000000000000000000000 DUP2 MSTORE PUSH1 0x4 ADD PUSH2 0x20A9 SWAP1 PUSH2 0x4FB1 JUMP JUMPDEST PUSH1 0x40 MLOAD DUP1 SWAP2 SUB SWAP1 REVERT JUMPDEST DUP1 PUSH1 0xA PUSH1 0x0 DUP5 DUP2 MSTORE PUSH1 0x20 ADD SWAP1 DUP2 MSTORE PUSH1 0x20 ADD PUSH1 0x0 KECCAK256 SWAP1 DUP2 PUSH2 0x20D2 SWAP2 SWAP1 PUSH2 0x517D JUMP JUMPDEST POP POP POP JUMP JUMPDEST PUSH1 0x0 PUSH2 0x20E2 DUP3 PUSH2 0x1F3D JUMP JUMPDEST PUSH2 0x2121 JUMPI PUSH1 0x40 MLOAD PUSH32 0x8C379A000000000000000000000000000000000000000000000000000000000 DUP2 MSTORE PUSH1 0x4 ADD PUSH2 0x2118 SWAP1 PUSH2 0x52C1 JUMP JUMPDEST PUSH1 0x40 MLOAD DUP1 SWAP2 SUB SWAP1 REVERT JUMPDEST PUSH1 0x0 PUSH2 0x212C DUP4 PUSH2 0x13D2 JUMP JUMPDEST SWAP1 POP DUP1 PUSH20 0xFFFFFFFFFFFFFFFFFFFFFFFFFFFFFFFFFFFFFFFF AND DUP5 PUSH20 0xFFFFFFFFFFFFFFFFFFFFFFFFFFFFFFFFFFFFFFFF AND EQ DUP1 PUSH2 0x219B JUMPI POP DUP4 PUSH20 0xFFFFFFFFFFFFFFFFFFFFFFFFFFFFFFFFFFFFFFFF AND PUSH2 0x2183 DUP5 PUSH2 0x959 JUMP JUMPDEST PUSH20 0xFFFFFFFFFFFFFFFFFFFFFFFFFFFFFFFFFFFFFFFF AND EQ JUMPDEST DUP1 PUSH2 0x21AC JUMPI POP PUSH2 0x21AB DUP2 DUP6 PUSH2 0x1D2E JUMP JUMPDEST JUMPDEST SWAP2 POP POP SWAP3 SWAP2 POP POP JUMP JUMPDEST DUP3 PUSH20 0xFFFFFFFFFFFFFFFFFFFFFFFFFFFFFFFFFFFFFFFF AND PUSH2 0x21D5 DUP3 PUSH2 0x13D2 JUMP JUMPDEST PUSH20 0xFFFFFFFFFFFFFFFFFFFFFFFFFFFFFFFFFFFFFFFF AND EQ PUSH2 0x222B JUMPI PUSH1 0x40 MLOAD PUSH32 0x8C379A000000000000000000000000000000000000000000000000000000000 DUP2 MSTORE PUSH1 0x4 ADD PUSH2 0x2222 SWAP1 PUSH2 0x5353 JUMP JUMPDEST PUSH1 0x40 MLOAD DUP1 SWAP2 SUB SWAP1 REVERT JUMPDEST PUSH1 0x0 PUSH20 0xFFFFFFFFFFFFFFFFFFFFFFFFFFFFFFFFFFFFFFFF AND DUP3 PUSH20 0xFFFFFFFFFFFFFFFFFFFFFFFFFFFFFFFFFFFFFFFF AND SUB PUSH2 0x229A JUMPI PUSH1 0x40 MLOAD PUSH32 0x8C379A000000000000000000000000000000000000000000000000000000000 DUP2 MSTORE PUSH1 0x4 ADD PUSH2 0x2291 SWAP1 PUSH2 0x53E5 JUMP JUMPDEST PUSH1 0x40 MLOAD DUP1 SWAP2 SUB SWAP1 REVERT JUMPDEST PUSH2 0x22A5 DUP4 DUP4 DUP4 PUSH2 0x2A6F JUMP JUMPDEST PUSH2 0x22B0 PUSH1 0x0 DUP3 PUSH2 0x1FB1 JUMP JUMPDEST PUSH1 0x1 PUSH1 0x3 PUSH1 0x0 DUP6 PUSH20 0xFFFFFFFFFFFFFFFFFFFFFFFFFFFFFFFFFFFFFFFF AND PUSH20 0xFFFFFFFFFFFFFFFFFFFFFFFFFFFFFFFFFFFFFFFF AND DUP2 MSTORE PUSH1 0x20 ADD SWAP1 DUP2 MSTORE PUSH1 0x20 ADD PUSH1 0x0 KECCAK256 PUSH1 0x0 DUP3 DUP3 SLOAD PUSH2 0x2300 SWAP2 SWAP1 PUSH2 0x5405 JUMP JUMPDEST SWAP3 POP POP DUP2 SWAP1 SSTORE POP PUSH1 0x1 PUSH1 0x3 PUSH1 0x0 DUP5 PUSH20 0xFFFFFFFFFFFFFFFFFFFFFFFFFFFFFFFFFFFFFFFF AND PUSH20 0xFFFFFFFFFFFFFFFFFFFFFFFFFFFFFFFFFFFFFFFF AND DUP2 MSTORE PUSH1 0x20 ADD SWAP1 DUP2 MSTORE PUSH1 0x20 ADD PUSH1 0x0 KECCAK256 PUSH1 0x0 DUP3 DUP3 SLOAD PUSH2 0x2357 SWAP2 SWAP1 PUSH2 0x4737 JUMP JUMPDEST SWAP3 POP POP DUP2 SWAP1 SSTORE POP DUP2 PUSH1 0x2 PUSH1 0x0 DUP4 DUP2 MSTORE PUSH1 0x20 ADD SWAP1 DUP2 MSTORE PUSH1 0x20 ADD PUSH1 0x0 KECCAK256 PUSH1 0x0 PUSH2 0x100 EXP DUP2 SLOAD DUP2 PUSH20 0xFFFFFFFFFFFFFFFFFFFFFFFFFFFFFFFFFFFFFFFF MUL NOT AND SWAP1 DUP4 PUSH20 0xFFFFFFFFFFFFFFFFFFFFFFFFFFFFFFFFFFFFFFFF AND MUL OR SWAP1 SSTORE POP DUP1 DUP3 PUSH20 0xFFFFFFFFFFFFFFFFFFFFFFFFFFFFFFFFFFFFFFFF AND DUP5 PUSH20 0xFFFFFFFFFFFFFFFFFFFFFFFFFFFFFFFFFFFFFFFF AND PUSH32 0xDDF252AD1BE2C89B69C2B068FC378DAA952BA7F163C4A11628F55A4DF523B3EF PUSH1 0x40 MLOAD PUSH1 0x40 MLOAD DUP1 SWAP2 SUB SWAP1 LOG4 PUSH2 0x2416 DUP4 DUP4 DUP4 PUSH2 0x2AC7 JUMP JUMPDEST POP POP POP JUMP JUMPDEST PUSH1 0x0 DUP2 PUSH1 0x0 ADD SLOAD SWAP1 POP SWAP2 SWAP1 POP JUMP JUMPDEST PUSH1 0x1 DUP2 PUSH1 0x0 ADD PUSH1 0x0 DUP3 DUP3 SLOAD ADD SWAP3 POP POP DUP2 SWAP1 SSTORE POP POP JUMP JUMPDEST PUSH2 0x2459 DUP3 DUP3 PUSH1 0x40 MLOAD DUP1 PUSH1 0x20 ADD PUSH1 0x40 MSTORE DUP1 PUSH1 0x0 DUP2 MSTORE POP PUSH2 0x2ACC JUMP JUMPDEST POP POP JUMP JUMPDEST PUSH2 0x2465 PUSH2 0x13BB JUMP JUMPDEST PUSH2 0x24A4 JUMPI PUSH1 0x40 MLOAD PUSH32 0x8C379A000000000000000000000000000000000000000000000000000000000 DUP2 MSTORE PUSH1 0x4 ADD PUSH2 0x249B SWAP1 PUSH2 0x5485 JUMP JUMPDEST PUSH1 0x40 MLOAD DUP1 SWAP2 SUB SWAP1 REVERT JUMPDEST PUSH1 0x0 PUSH1 0xB PUSH1 0x0 PUSH2 0x100 EXP DUP2 SLOAD DUP2 PUSH1 0xFF MUL NOT AND SWAP1 DUP4 ISZERO ISZERO MUL OR SWAP1 SSTORE POP PUSH32 0x5DB9EE0A495BF2E6FF9C91A7834C1BA4FDD244A5E8AA4E537BD38AEAE4B073AA PUSH2 0x24E8 PUSH2 0x1FA9 JUMP JUMPDEST PUSH1 0x40 MLOAD PUSH2 0x24F5 SWAP2 SWAP1 PUSH2 0x3941 JUMP JUMPDEST PUSH1 0x40 MLOAD DUP1 SWAP2 SUB SWAP1 LOG1 JUMP JUMPDEST PUSH2 0x2508 DUP2 PUSH2 0x2B27 JUMP JUMPDEST POP JUMP JUMPDEST PUSH1 0x0 PUSH1 0xB PUSH1 0x1 SWAP1 SLOAD SWAP1 PUSH2 0x100 EXP SWAP1 DIV PUSH20 0xFFFFFFFFFFFFFFFFFFFFFFFFFFFFFFFFFFFFFFFF AND SWAP1 POP DUP2 PUSH1 0xB PUSH1 0x1 PUSH2 0x100 EXP DUP2 SLOAD DUP2 PUSH20 0xFFFFFFFFFFFFFFFFFFFFFFFFFFFFFFFFFFFFFFFF MUL NOT AND SWAP1 DUP4 PUSH20 0xFFFFFFFFFFFFFFFFFFFFFFFFFFFFFFFFFFFFFFFF AND MUL OR SWAP1 SSTORE POP DUP2 PUSH20 0xFFFFFFFFFFFFFFFFFFFFFFFFFFFFFFFFFFFFFFFF AND DUP2 PUSH20 0xFFFFFFFFFFFFFFFFFFFFFFFFFFFFFFFFFFFFFFFF AND PUSH32 0x8BE0079C531659141344CD1FD0A4F28419497F9722A3DAAFE3B4186F6B6457E0 PUSH1 0x40 MLOAD PUSH1 0x40 MLOAD DUP1 SWAP2 SUB SWAP1 LOG3 POP POP JUMP JUMPDEST PUSH2 0x25D9 PUSH2 0x13BB JUMP JUMPDEST ISZERO PUSH2 0x2619 JUMPI PUSH1 0x40 MLOAD PUSH32 0x8C379A000000000000000000000000000000000000000000000000000000000 DUP2 MSTORE PUSH1 0x4 ADD PUSH2 0x2610 SWAP1 PUSH2 0x54F1 JUMP JUMPDEST PUSH1 0x40 MLOAD DUP1 SWAP2 SUB SWAP1 REVERT JUMPDEST PUSH1 0x1 PUSH1 0xB PUSH1 0x0 PUSH2 0x100 EXP DUP2 SLOAD DUP2 PUSH1 0xFF MUL NOT AND SWAP1 DUP4 ISZERO ISZERO MUL OR SWAP1 SSTORE POP PUSH32 0x62E78CEA01BEE320CD4E420270B5EA74000D11B0C9F74754EBDBFC544B05A258 PUSH2 0x265D PUSH2 0x1FA9 JUMP JUMPDEST PUSH1 0x40 MLOAD PUSH2 0x266A SWAP2 SWAP1 PUSH2 0x3941 JUMP JUMPDEST PUSH1 0x40 MLOAD DUP1 SWAP2 SUB SWAP1 LOG1 JUMP JUMPDEST DUP2 PUSH20 0xFFFFFFFFFFFFFFFFFFFFFFFFFFFFFFFFFFFFFFFF AND DUP4 PUSH20 0xFFFFFFFFFFFFFFFFFFFFFFFFFFFFFFFFFFFFFFFF AND SUB PUSH2 0x26E2 JUMPI PUSH1 0x40 MLOAD PUSH32 0x8C379A000000000000000000000000000000000000000000000000000000000 DUP2 MSTORE PUSH1 0x4 ADD PUSH2 0x26D9 SWAP1 PUSH2 0x555D JUMP JUMPDEST PUSH1 0x40 MLOAD DUP1 SWAP2 SUB SWAP1 REVERT JUMPDEST DUP1 PUSH1 0x5 PUSH1 0x0 DUP6 PUSH20 0xFFFFFFFFFFFFFFFFFFFFFFFFFFFFFFFFFFFFFFFF AND PUSH20 0xFFFFFFFFFFFFFFFFFFFFFFFFFFFFFFFFFFFFFFFF AND DUP2 MSTORE PUSH1 0x20 ADD SWAP1 DUP2 MSTORE PUSH1 0x20 ADD PUSH1 0x0 KECCAK256 PUSH1 0x0 DUP5 PUSH20 0xFFFFFFFFFFFFFFFFFFFFFFFFFFFFFFFFFFFFFFFF AND PUSH20 0xFFFFFFFFFFFFFFFFFFFFFFFFFFFFFFFFFFFFFFFF AND DUP2 MSTORE PUSH1 0x20 ADD SWAP1 DUP2 MSTORE PUSH1 0x20 ADD PUSH1 0x0 KECCAK256 PUSH1 0x0 PUSH2 0x100 EXP DUP2 SLOAD DUP2 PUSH1 0xFF MUL NOT AND SWAP1 DUP4 ISZERO ISZERO MUL OR SWAP1 SSTORE POP DUP2 PUSH20 0xFFFFFFFFFFFFFFFFFFFFFFFFFFFFFFFFFFFFFFFF AND DUP4 PUSH20 0xFFFFFFFFFFFFFFFFFFFFFFFFFFFFFFFFFFFFFFFF AND PUSH32 0x17307EAB39AB6107E8899845AD3D59BD9653F200F220920489CA2B5937696C31 DUP4 PUSH1 0x40 MLOAD PUSH2 0x27D3 SWAP2 SWAP1 PUSH2 0x37D0 JUMP JUMPDEST PUSH1 0x40 MLOAD DUP1 SWAP2 SUB SWAP1 LOG3 POP POP POP JUMP JUMPDEST PUSH2 0x27EB DUP5 DUP5 DUP5 PUSH2 0x21B5 JUMP JUMPDEST PUSH2 0x27F7 DUP5 DUP5 DUP5 DUP5 PUSH2 0x2B7A JUMP JUMPDEST PUSH2 0x2836 JUMPI PUSH1 0x40 MLOAD PUSH32 0x8C379A000000000000000000000000000000000000000000000000000000000 DUP2 MSTORE PUSH1 0x4 ADD PUSH2 0x282D SWAP1 PUSH2 0x55EF JUMP JUMPDEST PUSH1 0x40 MLOAD DUP1 SWAP2 SUB SWAP1 REVERT JUMPDEST POP POP POP POP JUMP JUMPDEST PUSH1 0x60 PUSH2 0x2847 DUP3 PUSH2 0x1F3D JUMP JUMPDEST PUSH2 0x2886 JUMPI PUSH1 0x40 MLOAD PUSH32 0x8C379A000000000000000000000000000000000000000000000000000000000 DUP2 MSTORE PUSH1 0x4 ADD PUSH2 0x287D SWAP1 PUSH2 0x5681 JUMP JUMPDEST PUSH1 0x40 MLOAD DUP1 SWAP2 SUB SWAP1 REVERT JUMPDEST PUSH1 0x0 PUSH1 0xA PUSH1 0x0 DUP5 DUP2 MSTORE PUSH1 0x20 ADD SWAP1 DUP2 MSTORE PUSH1 0x20 ADD PUSH1 0x0 KECCAK256 DUP1 SLOAD PUSH2 0x28A6 SWAP1 PUSH2 0x41E1 JUMP JUMPDEST DUP1 PUSH1 0x1F ADD PUSH1 0x20 DUP1 SWAP2 DIV MUL PUSH1 0x20 ADD PUSH1 0x40 MLOAD SWAP1 DUP2 ADD PUSH1 0x40 MSTORE DUP1 SWAP3 SWAP2 SWAP1 DUP2 DUP2 MSTORE PUSH1 0x20 ADD DUP3 DUP1 SLOAD PUSH2 0x28D2 SWAP1 PUSH2 0x41E1 JUMP JUMPDEST DUP1 ISZERO PUSH2 0x291F JUMPI DUP1 PUSH1 0x1F LT PUSH2 0x28F4 JUMPI PUSH2 0x100 DUP1 DUP4 SLOAD DIV MUL DUP4 MSTORE SWAP2 PUSH1 0x20 ADD SWAP2 PUSH2 0x291F JUMP JUMPDEST DUP3 ADD SWAP2 SWAP1 PUSH1 0x0 MSTORE PUSH1 0x20 PUSH1 0x0 KECCAK256 SWAP1 JUMPDEST DUP2 SLOAD DUP2 MSTORE SWAP1 PUSH1 0x1 ADD SWAP1 PUSH1 0x20 ADD DUP1 DUP4 GT PUSH2 0x2902 JUMPI DUP3 SWAP1 SUB PUSH1 0x1F AND DUP3 ADD SWAP2 JUMPDEST POP POP POP POP POP SWAP1 POP PUSH1 0x0 PUSH2 0x2930 PUSH2 0x2D01 JUMP JUMPDEST SWAP1 POP PUSH1 0x0 DUP2 MLOAD SUB PUSH2 0x2945 JUMPI DUP2 SWAP3 POP POP POP PUSH2 0x2988 JUMP JUMPDEST PUSH1 0x0 DUP3 MLOAD GT ISZERO PUSH2 0x297A JUMPI DUP1 DUP3 PUSH1 0x40 MLOAD PUSH1 0x20 ADD PUSH2 0x2962 SWAP3 SWAP2 SWAP1 PUSH2 0x56D2 JUMP JUMPDEST PUSH1 0x40 MLOAD PUSH1 0x20 DUP2 DUP4 SUB SUB DUP2 MSTORE SWAP1 PUSH1 0x40 MSTORE SWAP3 POP POP POP PUSH2 0x2988 JUMP JUMPDEST PUSH2 0x2983 DUP5 PUSH2 0x2D18 JUMP JUMPDEST SWAP3 POP POP POP JUMPDEST SWAP2 SWAP1 POP JUMP JUMPDEST PUSH1 0x0 PUSH32 0x80AC58CD00000000000000000000000000000000000000000000000000000000 PUSH28 0xFFFFFFFFFFFFFFFFFFFFFFFFFFFFFFFFFFFFFFFFFFFFFFFFFFFFFFFF NOT AND DUP3 PUSH28 0xFFFFFFFFFFFFFFFFFFFFFFFFFFFFFFFFFFFFFFFFFFFFFFFFFFFFFFFF NOT AND EQ DUP1 PUSH2 0x2A58 JUMPI POP PUSH32 0x5B5E139F00000000000000000000000000000000000000000000000000000000 PUSH28 0xFFFFFFFFFFFFFFFFFFFFFFFFFFFFFFFFFFFFFFFFFFFFFFFFFFFFFFFF NOT AND DUP3 PUSH28 0xFFFFFFFFFFFFFFFFFFFFFFFFFFFFFFFFFFFFFFFFFFFFFFFFFFFFFFFF NOT AND EQ JUMPDEST DUP1 PUSH2 0x2A68 JUMPI POP PUSH2 0x2A67 DUP3 PUSH2 0x2DBF JUMP JUMPDEST JUMPDEST SWAP1 POP SWAP2 SWAP1 POP JUMP JUMPDEST PUSH2 0x2A77 PUSH2 0x13BB JUMP JUMPDEST ISZERO PUSH2 0x2AB7 JUMPI PUSH1 0x40 MLOAD PUSH32 0x8C379A000000000000000000000000000000000000000000000000000000000 DUP2 MSTORE PUSH1 0x4 ADD PUSH2 0x2AAE SWAP1 PUSH2 0x54F1 JUMP JUMPDEST PUSH1 0x40 MLOAD DUP1 SWAP2 SUB SWAP1 REVERT JUMPDEST PUSH2 0x2AC2 DUP4 DUP4 DUP4 PUSH2 0x2E29 JUMP JUMPDEST POP POP POP JUMP JUMPDEST POP POP POP JUMP JUMPDEST PUSH2 0x2AD6 DUP4 DUP4 PUSH2 0x2F3B JUMP JUMPDEST PUSH2 0x2AE3 PUSH1 0x0 DUP5 DUP5 DUP5 PUSH2 0x2B7A JUMP JUMPDEST PUSH2 0x2B22 JUMPI PUSH1 0x40 MLOAD PUSH32 0x8C379A000000000000000000000000000000000000000000000000000000000 DUP2 MSTORE PUSH1 0x4 ADD PUSH2 0x2B19 SWAP1 PUSH2 0x55EF JUMP JUMPDEST PUSH1 0x40 MLOAD DUP1 SWAP2 SUB SWAP1 REVERT JUMPDEST POP POP POP JUMP JUMPDEST PUSH2 0x2B30 DUP2 PUSH2 0x3114 JUMP JUMPDEST PUSH1 0x0 PUSH1 0xA PUSH1 0x0 DUP4 DUP2 MSTORE PUSH1 0x20 ADD SWAP1 DUP2 MSTORE PUSH1 0x20 ADD PUSH1 0x0 KECCAK256 DUP1 SLOAD PUSH2 0x2B50 SWAP1 PUSH2 0x41E1 JUMP JUMPDEST SWAP1 POP EQ PUSH2 0x2B77 JUMPI PUSH1 0xA PUSH1 0x0 DUP3 DUP2 MSTORE PUSH1 0x20 ADD SWAP1 DUP2 MSTORE PUSH1 0x20 ADD PUSH1 0x0 KECCAK256 PUSH1 0x0 PUSH2 0x2B76 SWAP2 SWAP1 PUSH2 0x36BF JUMP JUMPDEST JUMPDEST POP JUMP JUMPDEST PUSH1 0x0 PUSH2 0x2B9B DUP5 PUSH20 0xFFFFFFFFFFFFFFFFFFFFFFFFFFFFFFFFFFFFFFFF AND PUSH2 0x3231 JUMP JUMPDEST ISZERO PUSH2 0x2CF4 JUMPI DUP4 PUSH20 0xFFFFFFFFFFFFFFFFFFFFFFFFFFFFFFFFFFFFFFFF AND PUSH4 0x150B7A02 PUSH2 0x2BC4 PUSH2 0x1FA9 JUMP JUMPDEST DUP8 DUP7 DUP7 PUSH1 0x40 MLOAD DUP6 PUSH4 0xFFFFFFFF AND PUSH1 0xE0 SHL DUP2 MSTORE PUSH1 0x4 ADD PUSH2 0x2BE6 SWAP5 SWAP4 SWAP3 SWAP2 SWAP1 PUSH2 0x5740 JUMP JUMPDEST PUSH1 0x20 PUSH1 0x40 MLOAD DUP1 DUP4 SUB DUP2 PUSH1 0x0 DUP8 GAS CALL SWAP3 POP POP POP DUP1 ISZERO PUSH2 0x2C22 JUMPI POP PUSH1 0x40 MLOAD RETURNDATASIZE PUSH1 0x1F NOT PUSH1 0x1F DUP3 ADD AND DUP3 ADD DUP1 PUSH1 0x40 MSTORE POP DUP2 ADD SWAP1 PUSH2 0x2C1F SWAP2 SWAP1 PUSH2 0x57A1 JUMP JUMPDEST PUSH1 0x1 JUMPDEST PUSH2 0x2CA4 JUMPI RETURNDATASIZE DUP1 PUSH1 0x0 DUP2 EQ PUSH2 0x2C52 JUMPI PUSH1 0x40 MLOAD SWAP2 POP PUSH1 0x1F NOT PUSH1 0x3F RETURNDATASIZE ADD AND DUP3 ADD PUSH1 0x40 MSTORE RETURNDATASIZE DUP3 MSTORE RETURNDATASIZE PUSH1 0x0 PUSH1 0x20 DUP5 ADD RETURNDATACOPY PUSH2 0x2C57 JUMP JUMPDEST PUSH1 0x60 SWAP2 POP JUMPDEST POP PUSH1 0x0 DUP2 MLOAD SUB PUSH2 0x2C9C JUMPI PUSH1 0x40 MLOAD PUSH32 0x8C379A000000000000000000000000000000000000000000000000000000000 DUP2 MSTORE PUSH1 0x4 ADD PUSH2 0x2C93 SWAP1 PUSH2 0x55EF JUMP JUMPDEST PUSH1 0x40 MLOAD DUP1 SWAP2 SUB SWAP1 REVERT JUMPDEST DUP1 MLOAD DUP2 PUSH1 0x20 ADD REVERT JUMPDEST PUSH4 0x150B7A02 PUSH1 0xE0 SHL PUSH28 0xFFFFFFFFFFFFFFFFFFFFFFFFFFFFFFFFFFFFFFFFFFFFFFFFFFFFFFFF NOT AND DUP2 PUSH28 0xFFFFFFFFFFFFFFFFFFFFFFFFFFFFFFFFFFFFFFFFFFFFFFFFFFFFFFFF NOT AND EQ SWAP2 POP POP PUSH2 0x2CF9 JUMP JUMPDEST PUSH1 0x1 SWAP1 POP JUMPDEST SWAP5 SWAP4 POP POP POP POP JUMP JUMPDEST PUSH1 0x60 PUSH1 0x40 MLOAD DUP1 PUSH1 0x20 ADD PUSH1 0x40 MSTORE DUP1 PUSH1 0x0 DUP2 MSTORE POP SWAP1 POP SWAP1 JUMP JUMPDEST PUSH1 0x60 PUSH2 0x2D23 DUP3 PUSH2 0x1F3D JUMP JUMPDEST PUSH2 0x2D62 JUMPI PUSH1 0x40 MLOAD PUSH32 0x8C379A000000000000000000000000000000000000000000000000000000000 DUP2 MSTORE PUSH1 0x4 ADD PUSH2 0x2D59 SWAP1 PUSH2 0x5840 JUMP JUMPDEST PUSH1 0x40 MLOAD DUP1 SWAP2 SUB SWAP1 REVERT JUMPDEST PUSH1 0x0 PUSH2 0x2D6C PUSH2 0x2D01 JUMP JUMPDEST SWAP1 POP PUSH1 0x0 DUP2 MLOAD GT PUSH2 0x2D8C JUMPI PUSH1 0x40 MLOAD DUP1 PUSH1 0x20 ADD PUSH1 0x40 MSTORE DUP1 PUSH1 0x0 DUP2 MSTORE POP PUSH2 0x2DB7 JUMP JUMPDEST DUP1 PUSH2 0x2D96 DUP5 PUSH2 0x3254 JUMP JUMPDEST PUSH1 0x40 MLOAD PUSH1 0x20 ADD PUSH2 0x2DA7 SWAP3 SWAP2 SWAP1 PUSH2 0x56D2 JUMP JUMPDEST PUSH1 0x40 MLOAD PUSH1 0x20 DUP2 DUP4 SUB SUB DUP2 MSTORE SWAP1 PUSH1 0x40 MSTORE JUMPDEST SWAP2 POP POP SWAP2 SWAP1 POP JUMP JUMPDEST PUSH1 0x0 PUSH32 0x1FFC9A700000000000000000000000000000000000000000000000000000000 PUSH28 0xFFFFFFFFFFFFFFFFFFFFFFFFFFFFFFFFFFFFFFFFFFFFFFFFFFFFFFFF NOT AND DUP3 PUSH28 0xFFFFFFFFFFFFFFFFFFFFFFFFFFFFFFFFFFFFFFFFFFFFFFFFFFFFFFFF NOT AND EQ SWAP1 POP SWAP2 SWAP1 POP JUMP JUMPDEST PUSH2 0x2E34 DUP4 DUP4 DUP4 PUSH2 0x33B4 JUMP JUMPDEST PUSH1 0x0 PUSH20 0xFFFFFFFFFFFFFFFFFFFFFFFFFFFFFFFFFFFFFFFF AND DUP4 PUSH20 0xFFFFFFFFFFFFFFFFFFFFFFFFFFFFFFFFFFFFFFFF AND SUB PUSH2 0x2E76 JUMPI PUSH2 0x2E71 DUP2 PUSH2 0x33B9 JUMP JUMPDEST PUSH2 0x2EB5 JUMP JUMPDEST DUP2 PUSH20 0xFFFFFFFFFFFFFFFFFFFFFFFFFFFFFFFFFFFFFFFF AND DUP4 PUSH20 0xFFFFFFFFFFFFFFFFFFFFFFFFFFFFFFFFFFFFFFFF AND EQ PUSH2 0x2EB4 JUMPI PUSH2 0x2EB3 DUP4 DUP3 PUSH2 0x3402 JUMP JUMPDEST JUMPDEST JUMPDEST PUSH1 0x0 PUSH20 0xFFFFFFFFFFFFFFFFFFFFFFFFFFFFFFFFFFFFFFFF AND DUP3 PUSH20 0xFFFFFFFFFFFFFFFFFFFFFFFFFFFFFFFFFFFFFFFF AND SUB PUSH2 0x2EF7 JUMPI PUSH2 0x2EF2 DUP2 PUSH2 0x356F JUMP JUMPDEST PUSH2 0x2F36 JUMP JUMPDEST DUP3 PUSH20 0xFFFFFFFFFFFFFFFFFFFFFFFFFFFFFFFFFFFFFFFF AND DUP3 PUSH20 0xFFFFFFFFFFFFFFFFFFFFFFFFFFFFFFFFFFFFFFFF AND EQ PUSH2 0x2F35 JUMPI PUSH2 0x2F34 DUP3 DUP3 PUSH2 0x3640 JUMP JUMPDEST JUMPDEST JUMPDEST POP POP POP JUMP JUMPDEST PUSH1 0x0 PUSH20 0xFFFFFFFFFFFFFFFFFFFFFFFFFFFFFFFFFFFFFFFF AND DUP3 PUSH20 0xFFFFFFFFFFFFFFFFFFFFFFFFFFFFFFFFFFFFFFFF AND SUB PUSH2 0x2FAA JUMPI PUSH1 0x40 MLOAD PUSH32 0x8C379A000000000000000000000000000000000000000000000000000000000 DUP2 MSTORE PUSH1 0x4 ADD PUSH2 0x2FA1 SWAP1 PUSH2 0x58AC JUMP JUMPDEST PUSH1 0x40 MLOAD DUP1 SWAP2 SUB SWAP1 REVERT JUMPDEST PUSH2 0x2FB3 DUP2 PUSH2 0x1F3D JUMP JUMPDEST ISZERO PUSH2 0x2FF3 JUMPI PUSH1 0x40 MLOAD PUSH32 0x8C379A000000000000000000000000000000000000000000000000000000000 DUP2 MSTORE PUSH1 0x4 ADD PUSH2 0x2FEA SWAP1 PUSH2 0x5918 JUMP JUMPDEST PUSH1 0x40 MLOAD DUP1 SWAP2 SUB SWAP1 REVERT JUMPDEST PUSH2 0x2FFF PUSH1 0x0 DUP4 DUP4 PUSH2 0x2A6F JUMP JUMPDEST PUSH1 0x1 PUSH1 0x3 PUSH1 0x0 DUP5 PUSH20 0xFFFFFFFFFFFFFFFFFFFFFFFFFFFFFFFFFFFFFFFF AND PUSH20 0xFFFFFFFFFFFFFFFFFFFFFFFFFFFFFFFFFFFFFFFF AND DUP2 MSTORE PUSH1 0x20 ADD SWAP1 DUP2 MSTORE PUSH1 0x20 ADD PUSH1 0x0 KECCAK256 PUSH1 0x0 DUP3 DUP3 SLOAD PUSH2 0x304F SWAP2 SWAP1 PUSH2 0x4737 JUMP JUMPDEST SWAP3 POP POP DUP2 SWAP1 SSTORE POP DUP2 PUSH1 0x2 PUSH1 0x0 DUP4 DUP2 MSTORE PUSH1 0x20 ADD SWAP1 DUP2 MSTORE PUSH1 0x20 ADD PUSH1 0x0 KECCAK256 PUSH1 0x0 PUSH2 0x100 EXP DUP2 SLOAD DUP2 PUSH20 0xFFFFFFFFFFFFFFFFFFFFFFFFFFFFFFFFFFFFFFFF MUL NOT AND SWAP1 DUP4 PUSH20 0xFFFFFFFFFFFFFFFFFFFFFFFFFFFFFFFFFFFFFFFF AND MUL OR SWAP1 SSTORE POP DUP1 DUP3 PUSH20 0xFFFFFFFFFFFFFFFFFFFFFFFFFFFFFFFFFFFFFFFF AND PUSH1 0x0 PUSH20 0xFFFFFFFFFFFFFFFFFFFFFFFFFFFFFFFFFFFFFFFF AND PUSH32 0xDDF252AD1BE2C89B69C2B068FC378DAA952BA7F163C4A11628F55A4DF523B3EF PUSH1 0x40 MLOAD PUSH1 0x40 MLOAD DUP1 SWAP2 SUB SWAP1 LOG4 PUSH2 0x3110 PUSH1 0x0 DUP4 DUP4 PUSH2 0x2AC7 JUMP JUMPDEST POP POP JUMP JUMPDEST PUSH1 0x0 PUSH2 0x311F DUP3 PUSH2 0x13D2 JUMP JUMPDEST SWAP1 POP PUSH2 0x312D DUP2 PUSH1 0x0 DUP5 PUSH2 0x2A6F JUMP JUMPDEST PUSH2 0x3138 PUSH1 0x0 DUP4 PUSH2 0x1FB1 JUMP JUMPDEST PUSH1 0x1 PUSH1 0x3 PUSH1 0x0 DUP4 PUSH20 0xFFFFFFFFFFFFFFFFFFFFFFFFFFFFFFFFFFFFFFFF AND PUSH20 0xFFFFFFFFFFFFFFFFFFFFFFFFFFFFFFFFFFFFFFFF AND DUP2 MSTORE PUSH1 0x20 ADD SWAP1 DUP2 MSTORE PUSH1 0x20 ADD PUSH1 0x0 KECCAK256 PUSH1 0x0 DUP3 DUP3 SLOAD PUSH2 0x3188 SWAP2 SWAP1 PUSH2 0x5405 JUMP JUMPDEST SWAP3 POP POP DUP2 SWAP1 SSTORE POP PUSH1 0x2 PUSH1 0x0 DUP4 DUP2 MSTORE PUSH1 0x20 ADD SWAP1 DUP2 MSTORE PUSH1 0x20 ADD PUSH1 0x0 KECCAK256 PUSH1 0x0 PUSH2 0x100 EXP DUP2 SLOAD SWAP1 PUSH20 0xFFFFFFFFFFFFFFFFFFFFFFFFFFFFFFFFFFFFFFFF MUL NOT AND SWAP1 SSTORE DUP2 PUSH1 0x0 PUSH20 0xFFFFFFFFFFFFFFFFFFFFFFFFFFFFFFFFFFFFFFFF AND DUP3 PUSH20 0xFFFFFFFFFFFFFFFFFFFFFFFFFFFFFFFFFFFFFFFF AND PUSH32 0xDDF252AD1BE2C89B69C2B068FC378DAA952BA7F163C4A11628F55A4DF523B3EF PUSH1 0x40 MLOAD PUSH1 0x40 MLOAD DUP1 SWAP2 SUB SWAP1 LOG4 PUSH2 0x322D DUP2 PUSH1 0x0 DUP5 PUSH2 0x2AC7 JUMP JUMPDEST POP POP JUMP JUMPDEST PUSH1 0x0 DUP1 DUP3 PUSH20 0xFFFFFFFFFFFFFFFFFFFFFFFFFFFFFFFFFFFFFFFF AND EXTCODESIZE GT SWAP1 POP SWAP2 SWAP1 POP JUMP JUMPDEST PUSH1 0x60 PUSH1 0x0 DUP3 SUB PUSH2 0x329B JUMPI PUSH1 0x40 MLOAD DUP1 PUSH1 0x40 ADD PUSH1 0x40 MSTORE DUP1 PUSH1 0x1 DUP2 MSTORE PUSH1 0x20 ADD PUSH32 0x3000000000000000000000000000000000000000000000000000000000000000 DUP2 MSTORE POP SWAP1 POP PUSH2 0x33AF JUMP JUMPDEST PUSH1 0x0 DUP3 SWAP1 POP PUSH1 0x0 JUMPDEST PUSH1 0x0 DUP3 EQ PUSH2 0x32CD JUMPI DUP1 DUP1 PUSH2 0x32B6 SWAP1 PUSH2 0x4950 JUMP JUMPDEST SWAP2 POP POP PUSH1 0xA DUP3 PUSH2 0x32C6 SWAP2 SWAP1 PUSH2 0x5967 JUMP JUMPDEST SWAP2 POP PUSH2 0x32A3 JUMP JUMPDEST PUSH1 0x0 DUP2 PUSH8 0xFFFFFFFFFFFFFFFF DUP2 GT ISZERO PUSH2 0x32E9 JUMPI PUSH2 0x32E8 PUSH2 0x39FC JUMP JUMPDEST JUMPDEST PUSH1 0x40 MLOAD SWAP1 DUP1 DUP3 MSTORE DUP1 PUSH1 0x1F ADD PUSH1 0x1F NOT AND PUSH1 0x20 ADD DUP3 ADD PUSH1 0x40 MSTORE DUP1 ISZERO PUSH2 0x331B JUMPI DUP2 PUSH1 0x20 ADD PUSH1 0x1 DUP3 MUL DUP1 CALLDATASIZE DUP4 CALLDATACOPY DUP1 DUP3 ADD SWAP2 POP POP SWAP1 POP JUMPDEST POP SWAP1 POP JUMPDEST PUSH1 0x0 DUP6 EQ PUSH2 0x33A8 JUMPI PUSH1 0x1 DUP3 PUSH2 0x3334 SWAP2 SWAP1 PUSH2 0x5405 JUMP JUMPDEST SWAP2 POP PUSH1 0xA DUP6 PUSH2 0x3343 SWAP2 SWAP1 PUSH2 0x5998 JUMP JUMPDEST PUSH1 0x30 PUSH2 0x334F SWAP2 SWAP1 PUSH2 0x4737 JUMP JUMPDEST PUSH1 0xF8 SHL DUP2 DUP4 DUP2 MLOAD DUP2 LT PUSH2 0x3365 JUMPI PUSH2 0x3364 PUSH2 0x4921 JUMP JUMPDEST JUMPDEST PUSH1 0x20 ADD ADD SWAP1 PUSH31 0xFFFFFFFFFFFFFFFFFFFFFFFFFFFFFFFFFFFFFFFFFFFFFFFFFFFFFFFFFFFFFF NOT AND SWAP1 DUP2 PUSH1 0x0 BYTE SWAP1 MSTORE8 POP PUSH1 0xA DUP6 PUSH2 0x33A1 SWAP2 SWAP1 PUSH2 0x5967 JUMP JUMPDEST SWAP5 POP PUSH2 0x331F JUMP JUMPDEST DUP1 SWAP4 POP POP POP POP JUMPDEST SWAP2 SWAP1 POP JUMP JUMPDEST POP POP POP JUMP JUMPDEST PUSH1 0x8 DUP1 SLOAD SWAP1 POP PUSH1 0x9 PUSH1 0x0 DUP4 DUP2 MSTORE PUSH1 0x20 ADD SWAP1 DUP2 MSTORE PUSH1 0x20 ADD PUSH1 0x0 KECCAK256 DUP2 SWAP1 SSTORE POP PUSH1 0x8 DUP2 SWAP1 DUP1 PUSH1 0x1 DUP2 SLOAD ADD DUP1 DUP3 SSTORE DUP1 SWAP2 POP POP PUSH1 0x1 SWAP1 SUB SWAP1 PUSH1 0x0 MSTORE PUSH1 0x20 PUSH1 0x0 KECCAK256 ADD PUSH1 0x0 SWAP1 SWAP2 SWAP1 SWAP2 SWAP1 SWAP2 POP SSTORE POP JUMP JUMPDEST PUSH1 0x0 PUSH1 0x1 PUSH2 0x340F DUP5 PUSH2 0x1483 JUMP JUMPDEST PUSH2 0x3419 SWAP2 SWAP1 PUSH2 0x5405 JUMP JUMPDEST SWAP1 POP PUSH1 0x0 PUSH1 0x7 PUSH1 0x0 DUP5 DUP2 MSTORE PUSH1 0x20 ADD SWAP1 DUP2 MSTORE PUSH1 0x20 ADD PUSH1 0x0 KECCAK256 SLOAD SWAP1 POP DUP2 DUP2 EQ PUSH2 0x34FE JUMPI PUSH1 0x0 PUSH1 0x6 PUSH1 0x0 DUP7 PUSH20 0xFFFFFFFFFFFFFFFFFFFFFFFFFFFFFFFFFFFFFFFF AND PUSH20 0xFFFFFFFFFFFFFFFFFFFFFFFFFFFFFFFFFFFFFFFF AND DUP2 MSTORE PUSH1 0x20 ADD SWAP1 DUP2 MSTORE PUSH1 0x20 ADD PUSH1 0x0 KECCAK256 PUSH1 0x0 DUP5 DUP2 MSTORE PUSH1 0x20 ADD SWAP1 DUP2 MSTORE PUSH1 0x20 ADD PUSH1 0x0 KECCAK256 SLOAD SWAP1 POP DUP1 PUSH1 0x6 PUSH1 0x0 DUP8 PUSH20 0xFFFFFFFFFFFFFFFFFFFFFFFFFFFFFFFFFFFFFFFF AND PUSH20 0xFFFFFFFFFFFFFFFFFFFFFFFFFFFFFFFFFFFFFFFF AND DUP2 MSTORE PUSH1 0x20 ADD SWAP1 DUP2 MSTORE PUSH1 0x20 ADD PUSH1 0x0 KECCAK256 PUSH1 0x0 DUP5 DUP2 MSTORE PUSH1 0x20 ADD SWAP1 DUP2 MSTORE PUSH1 0x20 ADD PUSH1 0x0 KECCAK256 DUP2 SWAP1 SSTORE POP DUP2 PUSH1 0x7 PUSH1 0x0 DUP4 DUP2 MSTORE PUSH1 0x20 ADD SWAP1 DUP2 MSTORE PUSH1 0x20 ADD PUSH1 0x0 KECCAK256 DUP2 SWAP1 SSTORE POP POP JUMPDEST PUSH1 0x7 PUSH1 0x0 DUP5 DUP2 MSTORE PUSH1 0x20 ADD SWAP1 DUP2 MSTORE PUSH1 0x20 ADD PUSH1 0x0 KECCAK256 PUSH1 0x0 SWAP1 SSTORE PUSH1 0x6 PUSH1 0x0 DUP6 PUSH20 0xFFFFFFFFFFFFFFFFFFFFFFFFFFFFFFFFFFFFFFFF AND PUSH20 0xFFFFFFFFFFFFFFFFFFFFFFFFFFFFFFFFFFFFFFFF AND DUP2 MSTORE PUSH1 0x20 ADD SWAP1 DUP2 MSTORE PUSH1 0x20 ADD PUSH1 0x0 KECCAK256 PUSH1 0x0 DUP4 DUP2 MSTORE PUSH1 0x20 ADD SWAP1 DUP2 MSTORE PUSH1 0x20 ADD PUSH1 0x0 KECCAK256 PUSH1 0x0 SWAP1 SSTORE POP POP POP POP JUMP JUMPDEST PUSH1 0x0 PUSH1 0x1 PUSH1 0x8 DUP1 SLOAD SWAP1 POP PUSH2 0x3583 SWAP2 SWAP1 PUSH2 0x5405 JUMP JUMPDEST SWAP1 POP PUSH1 0x0 PUSH1 0x9 PUSH1 0x0 DUP5 DUP2 MSTORE PUSH1 0x20 ADD SWAP1 DUP2 MSTORE PUSH1 0x20 ADD PUSH1 0x0 KECCAK256 SLOAD SWAP1 POP PUSH1 0x0 PUSH1 0x8 DUP4 DUP2 SLOAD DUP2 LT PUSH2 0x35B3 JUMPI PUSH2 0x35B2 PUSH2 0x4921 JUMP JUMPDEST JUMPDEST SWAP1 PUSH1 0x0 MSTORE PUSH1 0x20 PUSH1 0x0 KECCAK256 ADD SLOAD SWAP1 POP DUP1 PUSH1 0x8 DUP4 DUP2 SLOAD DUP2 LT PUSH2 0x35D5 JUMPI PUSH2 0x35D4 PUSH2 0x4921 JUMP JUMPDEST JUMPDEST SWAP1 PUSH1 0x0 MSTORE PUSH1 0x20 PUSH1 0x0 KECCAK256 ADD DUP2 SWAP1 SSTORE POP DUP2 PUSH1 0x9 PUSH1 0x0 DUP4 DUP2 MSTORE PUSH1 0x20 ADD SWAP1 DUP2 MSTORE PUSH1 0x20 ADD PUSH1 0x0 KECCAK256 DUP2 SWAP1 SSTORE POP PUSH1 0x9 PUSH1 0x0 DUP6 DUP2 MSTORE PUSH1 0x20 ADD SWAP1 DUP2 MSTORE PUSH1 0x20 ADD PUSH1 0x0 KECCAK256 PUSH1 0x0 SWAP1 SSTORE PUSH1 0x8 DUP1 SLOAD DUP1 PUSH2 0x3624 JUMPI PUSH2 0x3623 PUSH2 0x59C9 JUMP JUMPDEST JUMPDEST PUSH1 0x1 SWAP1 SUB DUP2 DUP2 SWAP1 PUSH1 0x0 MSTORE PUSH1 0x20 PUSH1 0x0 KECCAK256 ADD PUSH1 0x0 SWAP1 SSTORE SWAP1 SSTORE POP POP POP POP JUMP JUMPDEST PUSH1 0x0 PUSH2 0x364B DUP4 PUSH2 0x1483 JUMP JUMPDEST SWAP1 POP DUP2 PUSH1 0x6 PUSH1 0x0 DUP6 PUSH20 0xFFFFFFFFFFFFFFFFFFFFFFFFFFFFFFFFFFFFFFFF AND PUSH20 0xFFFFFFFFFFFFFFFFFFFFFFFFFFFFFFFFFFFFFFFF AND DUP2 MSTORE PUSH1 0x20 ADD SWAP1 DUP2 MSTORE PUSH1 0x20 ADD PUSH1 0x0 KECCAK256 PUSH1 0x0 DUP4 DUP2 MSTORE PUSH1 0x20 ADD SWAP1 DUP2 MSTORE PUSH1 0x20 ADD PUSH1 0x0 KECCAK256 DUP2 SWAP1 SSTORE POP DUP1 PUSH1 0x7 PUSH1 0x0 DUP5 DUP2 MSTORE PUSH1 0x20 ADD SWAP1 DUP2 MSTORE PUSH1 0x20 ADD PUSH1 0x0 KECCAK256 DUP2 SWAP1 SSTORE POP POP POP POP JUMP JUMPDEST POP DUP1 SLOAD PUSH2 0x36CB SWAP1 PUSH2 0x41E1 JUMP JUMPDEST PUSH1 0x0 DUP3 SSTORE DUP1 PUSH1 0x1F LT PUSH2 0x36DD JUMPI POP PUSH2 0x36FC JUMP JUMPDEST PUSH1 0x1F ADD PUSH1 0x20 SWAP1 DIV SWAP1 PUSH1 0x0 MSTORE PUSH1 0x20 PUSH1 0x0 KECCAK256 SWAP1 DUP2 ADD SWAP1 PUSH2 0x36FB SWAP2 SWAP1 PUSH2 0x36FF JUMP JUMPDEST JUMPDEST POP JUMP JUMPDEST JUMPDEST DUP1 DUP3 GT ISZERO PUSH2 0x3718 JUMPI PUSH1 0x0 DUP2 PUSH1 0x0 SWAP1 SSTORE POP PUSH1 0x1 ADD PUSH2 0x3700 JUMP JUMPDEST POP SWAP1 JUMP JUMPDEST PUSH1 0x0 PUSH1 0x40 MLOAD SWAP1 POP SWAP1 JUMP JUMPDEST PUSH1 0x0 DUP1 REVERT JUMPDEST PUSH1 0x0 DUP1 REVERT JUMPDEST PUSH1 0x0 PUSH32 0xFFFFFFFF00000000000000000000000000000000000000000000000000000000 DUP3 AND SWAP1 POP SWAP2 SWAP1 POP JUMP JUMPDEST PUSH2 0x3765 DUP2 PUSH2 0x3730 JUMP JUMPDEST DUP2 EQ PUSH2 0x3770 JUMPI PUSH1 0x0 DUP1 REVERT JUMPDEST POP JUMP JUMPDEST PUSH1 0x0 DUP2 CALLDATALOAD SWAP1 POP PUSH2 0x3782 DUP2 PUSH2 0x375C JUMP JUMPDEST SWAP3 SWAP2 POP POP JUMP JUMPDEST PUSH1 0x0 PUSH1 0x20 DUP3 DUP5 SUB SLT ISZERO PUSH2 0x379E JUMPI PUSH2 0x379D PUSH2 0x3726 JUMP JUMPDEST JUMPDEST PUSH1 0x0 PUSH2 0x37AC DUP5 DUP3 DUP6 ADD PUSH2 0x3773 JUMP JUMPDEST SWAP2 POP POP SWAP3 SWAP2 POP POP JUMP JUMPDEST PUSH1 0x0 DUP2 ISZERO ISZERO SWAP1 POP SWAP2 SWAP1 POP JUMP JUMPDEST PUSH2 0x37CA DUP2 PUSH2 0x37B5 JUMP JUMPDEST DUP3 MSTORE POP POP JUMP JUMPDEST PUSH1 0x0 PUSH1 0x20 DUP3 ADD SWAP1 POP PUSH2 0x37E5 PUSH1 0x0 DUP4 ADD DUP5 PUSH2 0x37C1 JUMP JUMPDEST SWAP3 SWAP2 POP POP JUMP JUMPDEST PUSH1 0x0 DUP2 MLOAD SWAP1 POP SWAP2 SWAP1 POP JUMP JUMPDEST PUSH1 0x0 DUP3 DUP3 MSTORE PUSH1 0x20 DUP3 ADD SWAP1 POP SWAP3 SWAP2 POP POP JUMP JUMPDEST PUSH1 0x0 JUMPDEST DUP4 DUP2 LT ISZERO PUSH2 0x3825 JUMPI DUP1 DUP3 ADD MLOAD DUP2 DUP5 ADD MSTORE PUSH1 0x20 DUP2 ADD SWAP1 POP PUSH2 0x380A JUMP JUMPDEST PUSH1 0x0 DUP5 DUP5 ADD MSTORE POP POP POP POP JUMP JUMPDEST PUSH1 0x0 PUSH1 0x1F NOT PUSH1 0x1F DUP4 ADD AND SWAP1 POP SWAP2 SWAP1 POP JUMP JUMPDEST PUSH1 0x0 PUSH2 0x384D DUP3 PUSH2 0x37EB JUMP JUMPDEST PUSH2 0x3857 DUP2 DUP6 PUSH2 0x37F6 JUMP JUMPDEST SWAP4 POP PUSH2 0x3867 DUP2 DUP6 PUSH1 0x20 DUP7 ADD PUSH2 0x3807 JUMP JUMPDEST PUSH2 0x3870 DUP2 PUSH2 0x3831 JUMP JUMPDEST DUP5 ADD SWAP2 POP POP SWAP3 SWAP2 POP POP JUMP JUMPDEST PUSH1 0x0 PUSH1 0x20 DUP3 ADD SWAP1 POP DUP2 DUP2 SUB PUSH1 0x0 DUP4 ADD MSTORE PUSH2 0x3895 DUP2 DUP5 PUSH2 0x3842 JUMP JUMPDEST SWAP1 POP SWAP3 SWAP2 POP POP JUMP JUMPDEST PUSH1 0x0 DUP2 SWAP1 POP SWAP2 SWAP1 POP JUMP JUMPDEST PUSH2 0x38B0 DUP2 PUSH2 0x389D JUMP JUMPDEST DUP2 EQ PUSH2 0x38BB JUMPI PUSH1 0x0 DUP1 REVERT JUMPDEST POP JUMP JUMPDEST PUSH1 0x0 DUP2 CALLDATALOAD SWAP1 POP PUSH2 0x38CD DUP2 PUSH2 0x38A7 JUMP JUMPDEST SWAP3 SWAP2 POP POP JUMP JUMPDEST PUSH1 0x0 PUSH1 0x20 DUP3 DUP5 SUB SLT ISZERO PUSH2 0x38E9 JUMPI PUSH2 0x38E8 PUSH2 0x3726 JUMP JUMPDEST JUMPDEST PUSH1 0x0 PUSH2 0x38F7 DUP5 DUP3 DUP6 ADD PUSH2 0x38BE JUMP JUMPDEST SWAP2 POP POP SWAP3 SWAP2 POP POP JUMP JUMPDEST PUSH1 0x0 PUSH20 0xFFFFFFFFFFFFFFFFFFFFFFFFFFFFFFFFFFFFFFFF DUP3 AND SWAP1 POP SWAP2 SWAP1 POP JUMP JUMPDEST PUSH1 0x0 PUSH2 0x392B DUP3 PUSH2 0x3900 JUMP JUMPDEST SWAP1 POP SWAP2 SWAP1 POP JUMP JUMPDEST PUSH2 0x393B DUP2 PUSH2 0x3920 JUMP JUMPDEST DUP3 MSTORE POP POP JUMP JUMPDEST PUSH1 0x0 PUSH1 0x20 DUP3 ADD SWAP1 POP PUSH2 0x3956 PUSH1 0x0 DUP4 ADD DUP5 PUSH2 0x3932 JUMP JUMPDEST SWAP3 SWAP2 POP POP JUMP JUMPDEST PUSH2 0x3965 DUP2 PUSH2 0x389D JUMP JUMPDEST DUP3 MSTORE POP POP JUMP JUMPDEST PUSH1 0x0 PUSH1 0x20 DUP3 ADD SWAP1 POP PUSH2 0x3980 PUSH1 0x0 DUP4 ADD DUP5 PUSH2 0x395C JUMP JUMPDEST SWAP3 SWAP2 POP POP JUMP JUMPDEST PUSH2 0x398F DUP2 PUSH2 0x3920 JUMP JUMPDEST DUP2 EQ PUSH2 0x399A JUMPI PUSH1 0x0 DUP1 REVERT JUMPDEST POP JUMP JUMPDEST PUSH1 0x0 DUP2 CALLDATALOAD SWAP1 POP PUSH2 0x39AC DUP2 PUSH2 0x3986 JUMP JUMPDEST SWAP3 SWAP2 POP POP JUMP JUMPDEST PUSH1 0x0 DUP1 PUSH1 0x40 DUP4 DUP6 SUB SLT ISZERO PUSH2 0x39C9 JUMPI PUSH2 0x39C8 PUSH2 0x3726 JUMP JUMPDEST JUMPDEST PUSH1 0x0 PUSH2 0x39D7 DUP6 DUP3 DUP7 ADD PUSH2 0x399D JUMP JUMPDEST SWAP3 POP POP PUSH1 0x20 PUSH2 0x39E8 DUP6 DUP3 DUP7 ADD PUSH2 0x38BE JUMP JUMPDEST SWAP2 POP POP SWAP3 POP SWAP3 SWAP1 POP JUMP JUMPDEST PUSH1 0x0 DUP1 REVERT JUMPDEST PUSH1 0x0 DUP1 REVERT JUMPDEST PUSH32 0x4E487B7100000000000000000000000000000000000000000000000000000000 PUSH1 0x0 MSTORE PUSH1 0x41 PUSH1 0x4 MSTORE PUSH1 0x24 PUSH1 0x0 REVERT JUMPDEST PUSH2 0x3A34 DUP3 PUSH2 0x3831 JUMP JUMPDEST DUP2 ADD DUP2 DUP2 LT PUSH8 0xFFFFFFFFFFFFFFFF DUP3 GT OR ISZERO PUSH2 0x3A53 JUMPI PUSH2 0x3A52 PUSH2 0x39FC JUMP JUMPDEST JUMPDEST DUP1 PUSH1 0x40 MSTORE POP POP POP JUMP JUMPDEST PUSH1 0x0 PUSH2 0x3A66 PUSH2 0x371C JUMP JUMPDEST SWAP1 POP PUSH2 0x3A72 DUP3 DUP3 PUSH2 0x3A2B JUMP JUMPDEST SWAP2 SWAP1 POP JUMP JUMPDEST PUSH1 0x0 PUSH8 0xFFFFFFFFFFFFFFFF DUP3 GT ISZERO PUSH2 0x3A92 JUMPI PUSH2 0x3A91 PUSH2 0x39FC JUMP JUMPDEST JUMPDEST PUSH2 0x3A9B DUP3 PUSH2 0x3831 JUMP JUMPDEST SWAP1 POP PUSH1 0x20 DUP2 ADD SWAP1 POP SWAP2 SWAP1 POP JUMP JUMPDEST DUP3 DUP2 DUP4 CALLDATACOPY PUSH1 0x0 DUP4 DUP4 ADD MSTORE POP POP POP JUMP JUMPDEST PUSH1 0x0 PUSH2 0x3ACA PUSH2 0x3AC5 DUP5 PUSH2 0x3A77 JUMP JUMPDEST PUSH2 0x3A5C JUMP JUMPDEST SWAP1 POP DUP3 DUP2 MSTORE PUSH1 0x20 DUP2 ADD DUP5 DUP5 DUP5 ADD GT ISZERO PUSH2 0x3AE6 JUMPI PUSH2 0x3AE5 PUSH2 0x39F7 JUMP JUMPDEST JUMPDEST PUSH2 0x3AF1 DUP5 DUP3 DUP6 PUSH2 0x3AA8 JUMP JUMPDEST POP SWAP4 SWAP3 POP POP POP JUMP JUMPDEST PUSH1 0x0 DUP3 PUSH1 0x1F DUP4 ADD SLT PUSH2 0x3B0E JUMPI PUSH2 0x3B0D PUSH2 0x39F2 JUMP JUMPDEST JUMPDEST DUP2 CALLDATALOAD PUSH2 0x3B1E DUP5 DUP3 PUSH1 0x20 DUP7 ADD PUSH2 0x3AB7 JUMP JUMPDEST SWAP2 POP POP SWAP3 SWAP2 POP POP JUMP JUMPDEST PUSH1 0x0 DUP1 PUSH1 0x40 DUP4 DUP6 SUB SLT ISZERO PUSH2 0x3B3E JUMPI PUSH2 0x3B3D PUSH2 0x3726 JUMP JUMPDEST JUMPDEST PUSH1 0x0 PUSH2 0x3B4C DUP6 DUP3 DUP7 ADD PUSH2 0x38BE JUMP JUMPDEST SWAP3 POP POP PUSH1 0x20 DUP4 ADD CALLDATALOAD PUSH8 0xFFFFFFFFFFFFFFFF DUP2 GT ISZERO PUSH2 0x3B6D JUMPI PUSH2 0x3B6C PUSH2 0x372B JUMP JUMPDEST JUMPDEST PUSH2 0x3B79 DUP6 DUP3 DUP7 ADD PUSH2 0x3AF9 JUMP JUMPDEST SWAP2 POP POP SWAP3 POP SWAP3 SWAP1 POP JUMP JUMPDEST PUSH1 0x0 DUP1 PUSH1 0x0 PUSH1 0x60 DUP5 DUP7 SUB SLT ISZERO PUSH2 0x3B9C JUMPI PUSH2 0x3B9B PUSH2 0x3726 JUMP JUMPDEST JUMPDEST PUSH1 0x0 PUSH2 0x3BAA DUP7 DUP3 DUP8 ADD PUSH2 0x399D JUMP JUMPDEST SWAP4 POP POP PUSH1 0x20 PUSH2 0x3BBB DUP7 DUP3 DUP8 ADD PUSH2 0x399D JUMP JUMPDEST SWAP3 POP POP PUSH1 0x40 PUSH2 0x3BCC DUP7 DUP3 DUP8 ADD PUSH2 0x38BE JUMP JUMPDEST SWAP2 POP POP SWAP3 POP SWAP3 POP SWAP3 JUMP JUMPDEST PUSH1 0x0 PUSH8 0xFFFFFFFFFFFFFFFF DUP3 GT ISZERO PUSH2 0x3BF1 JUMPI PUSH2 0x3BF0 PUSH2 0x39FC JUMP JUMPDEST JUMPDEST PUSH1 0x20 DUP3 MUL SWAP1 POP PUSH1 0x20 DUP2 ADD SWAP1 POP SWAP2 SWAP1 POP JUMP JUMPDEST PUSH1 0x0 DUP1 REVERT JUMPDEST PUSH1 0x0 PUSH2 0x3C1A PUSH2 0x3C15 DUP5 PUSH2 0x3BD6 JUMP JUMPDEST PUSH2 0x3A5C JUMP JUMPDEST SWAP1 POP DUP1 DUP4 DUP3 MSTORE PUSH1 0x20 DUP3 ADD SWAP1 POP PUSH1 0x20 DUP5 MUL DUP4 ADD DUP6 DUP2 GT ISZERO PUSH2 0x3C3D JUMPI PUSH2 0x3C3C PUSH2 0x3C02 JUMP JUMPDEST JUMPDEST DUP4 JUMPDEST DUP2 DUP2 LT ISZERO PUSH2 0x3C66 JUMPI DUP1 PUSH2 0x3C52 DUP9 DUP3 PUSH2 0x399D JUMP JUMPDEST DUP5 MSTORE PUSH1 0x20 DUP5 ADD SWAP4 POP POP PUSH1 0x20 DUP2 ADD SWAP1 POP PUSH2 0x3C3F JUMP JUMPDEST POP POP POP SWAP4 SWAP3 POP POP POP JUMP JUMPDEST PUSH1 0x0 DUP3 PUSH1 0x1F DUP4 ADD SLT PUSH2 0x3C85 JUMPI PUSH2 0x3C84 PUSH2 0x39F2 JUMP JUMPDEST JUMPDEST DUP2 CALLDATALOAD PUSH2 0x3C95 DUP5 DUP3 PUSH1 0x20 DUP7 ADD PUSH2 0x3C07 JUMP JUMPDEST SWAP2 POP POP SWAP3 SWAP2 POP POP JUMP JUMPDEST PUSH1 0x0 PUSH8 0xFFFFFFFFFFFFFFFF DUP3 GT ISZERO PUSH2 0x3CB9 JUMPI PUSH2 0x3CB8 PUSH2 0x39FC JUMP JUMPDEST JUMPDEST PUSH1 0x20 DUP3 MUL SWAP1 POP PUSH1 0x20 DUP2 ADD SWAP1 POP SWAP2 SWAP1 POP JUMP JUMPDEST PUSH1 0x0 PUSH2 0x3CDD PUSH2 0x3CD8 DUP5 PUSH2 0x3C9E JUMP JUMPDEST PUSH2 0x3A5C JUMP JUMPDEST SWAP1 POP DUP1 DUP4 DUP3 MSTORE PUSH1 0x20 DUP3 ADD SWAP1 POP PUSH1 0x20 DUP5 MUL DUP4 ADD DUP6 DUP2 GT ISZERO PUSH2 0x3D00 JUMPI PUSH2 0x3CFF PUSH2 0x3C02 JUMP JUMPDEST JUMPDEST DUP4 JUMPDEST DUP2 DUP2 LT ISZERO PUSH2 0x3D47 JUMPI DUP1 CALLDATALOAD PUSH8 0xFFFFFFFFFFFFFFFF DUP2 GT ISZERO PUSH2 0x3D25 JUMPI PUSH2 0x3D24 PUSH2 0x39F2 JUMP JUMPDEST JUMPDEST DUP1 DUP7 ADD PUSH2 0x3D32 DUP10 DUP3 PUSH2 0x3AF9 JUMP JUMPDEST DUP6 MSTORE PUSH1 0x20 DUP6 ADD SWAP5 POP POP POP PUSH1 0x20 DUP2 ADD SWAP1 POP PUSH2 0x3D02 JUMP JUMPDEST POP POP POP SWAP4 SWAP3 POP POP POP JUMP JUMPDEST PUSH1 0x0 DUP3 PUSH1 0x1F DUP4 ADD SLT PUSH2 0x3D66 JUMPI PUSH2 0x3D65 PUSH2 0x39F2 JUMP JUMPDEST JUMPDEST DUP2 CALLDATALOAD PUSH2 0x3D76 DUP5 DUP3 PUSH1 0x20 DUP7 ADD PUSH2 0x3CCA JUMP JUMPDEST SWAP2 POP POP SWAP3 SWAP2 POP POP JUMP JUMPDEST PUSH1 0x0 DUP1 PUSH1 0x0 PUSH1 0x60 DUP5 DUP7 SUB SLT ISZERO PUSH2 0x3D98 JUMPI PUSH2 0x3D97 PUSH2 0x3726 JUMP JUMPDEST JUMPDEST PUSH1 0x0 DUP5 ADD CALLDATALOAD PUSH8 0xFFFFFFFFFFFFFFFF DUP2 GT ISZERO PUSH2 0x3DB6 JUMPI PUSH2 0x3DB5 PUSH2 0x372B JUMP JUMPDEST JUMPDEST PUSH2 0x3DC2 DUP7 DUP3 DUP8 ADD PUSH2 0x3C70 JUMP JUMPDEST SWAP4 POP POP PUSH1 0x20 DUP5 ADD CALLDATALOAD PUSH8 0xFFFFFFFFFFFFFFFF DUP2 GT ISZERO PUSH2 0x3DE3 JUMPI PUSH2 0x3DE2 PUSH2 0x372B JUMP JUMPDEST JUMPDEST PUSH2 0x3DEF DUP7 DUP3 DUP8 ADD PUSH2 0x3D51 JUMP JUMPDEST SWAP3 POP POP PUSH1 0x40 PUSH2 0x3E00 DUP7 DUP3 DUP8 ADD PUSH2 0x38BE JUMP JUMPDEST SWAP2 POP POP SWAP3 POP SWAP3 POP SWAP3 JUMP JUMPDEST PUSH1 0x0 PUSH1 0x20 DUP3 DUP5 SUB SLT ISZERO PUSH2 0x3E20 JUMPI PUSH2 0x3E1F PUSH2 0x3726 JUMP JUMPDEST JUMPDEST PUSH1 0x0 PUSH2 0x3E2E DUP5 DUP3 DUP6 ADD PUSH2 0x399D JUMP JUMPDEST SWAP2 POP POP SWAP3 SWAP2 POP POP JUMP JUMPDEST PUSH1 0x0 DUP2 MLOAD SWAP1 POP SWAP2 SWAP1 POP JUMP JUMPDEST PUSH1 0x0 DUP3 DUP3 MSTORE PUSH1 0x20 DUP3 ADD SWAP1 POP SWAP3 SWAP2 POP POP JUMP JUMPDEST PUSH1 0x0 DUP2 SWAP1 POP PUSH1 0x20 DUP3 ADD SWAP1 POP SWAP2 SWAP1 POP JUMP JUMPDEST PUSH2 0x3E6C DUP2 PUSH2 0x389D JUMP JUMPDEST DUP3 MSTORE POP POP JUMP JUMPDEST PUSH1 0x0 PUSH2 0x3E7E DUP4 DUP4 PUSH2 0x3E63 JUMP JUMPDEST PUSH1 0x20 DUP4 ADD SWAP1 POP SWAP3 SWAP2 POP POP JUMP JUMPDEST PUSH1 0x0 PUSH1 0x20 DUP3 ADD SWAP1 POP SWAP2 SWAP1 POP JUMP JUMPDEST PUSH1 0x0 PUSH2 0x3EA2 DUP3 PUSH2 0x3E37 JUMP JUMPDEST PUSH2 0x3EAC DUP2 DUP6 PUSH2 0x3E42 JUMP JUMPDEST SWAP4 POP PUSH2 0x3EB7 DUP4 PUSH2 0x3E53 JUMP JUMPDEST DUP1 PUSH1 0x0 JUMPDEST DUP4 DUP2 LT ISZERO PUSH2 0x3EE8 JUMPI DUP2 MLOAD PUSH2 0x3ECF DUP9 DUP3 PUSH2 0x3E72 JUMP JUMPDEST SWAP8 POP PUSH2 0x3EDA DUP4 PUSH2 0x3E8A JUMP JUMPDEST SWAP3 POP POP PUSH1 0x1 DUP2 ADD SWAP1 POP PUSH2 0x3EBB JUMP JUMPDEST POP DUP6 SWAP4 POP POP POP POP SWAP3 SWAP2 POP POP JUMP JUMPDEST PUSH1 0x0 PUSH1 0x20 DUP3 ADD SWAP1 POP DUP2 DUP2 SUB PUSH1 0x0 DUP4 ADD MSTORE PUSH2 0x3F0F DUP2 DUP5 PUSH2 0x3E97 JUMP JUMPDEST SWAP1 POP SWAP3 SWAP2 POP POP JUMP JUMPDEST PUSH2 0x3F20 DUP2 PUSH2 0x37B5 JUMP JUMPDEST DUP2 EQ PUSH2 0x3F2B JUMPI PUSH1 0x0 DUP1 REVERT JUMPDEST POP JUMP JUMPDEST PUSH1 0x0 DUP2 CALLDATALOAD SWAP1 POP PUSH2 0x3F3D DUP2 PUSH2 0x3F17 JUMP JUMPDEST SWAP3 SWAP2 POP POP JUMP JUMPDEST PUSH1 0x0 DUP1 PUSH1 0x40 DUP4 DUP6 SUB SLT ISZERO PUSH2 0x3F5A JUMPI PUSH2 0x3F59 PUSH2 0x3726 JUMP JUMPDEST JUMPDEST PUSH1 0x0 PUSH2 0x3F68 DUP6 DUP3 DUP7 ADD PUSH2 0x399D JUMP JUMPDEST SWAP3 POP POP PUSH1 0x20 PUSH2 0x3F79 DUP6 DUP3 DUP7 ADD PUSH2 0x3F2E JUMP JUMPDEST SWAP2 POP POP SWAP3 POP SWAP3 SWAP1 POP JUMP JUMPDEST PUSH1 0x0 DUP1 PUSH1 0x0 PUSH1 0x60 DUP5 DUP7 SUB SLT ISZERO PUSH2 0x3F9C JUMPI PUSH2 0x3F9B PUSH2 0x3726 JUMP JUMPDEST JUMPDEST PUSH1 0x0 PUSH2 0x3FAA DUP7 DUP3 DUP8 ADD PUSH2 0x399D JUMP JUMPDEST SWAP4 POP POP PUSH1 0x20 DUP5 ADD CALLDATALOAD PUSH8 0xFFFFFFFFFFFFFFFF DUP2 GT ISZERO PUSH2 0x3FCB JUMPI PUSH2 0x3FCA PUSH2 0x372B JUMP JUMPDEST JUMPDEST PUSH2 0x3FD7 DUP7 DUP3 DUP8 ADD PUSH2 0x3D51 JUMP JUMPDEST SWAP3 POP POP PUSH1 0x40 PUSH2 0x3FE8 DUP7 DUP3 DUP8 ADD PUSH2 0x38BE JUMP JUMPDEST SWAP2 POP POP SWAP3 POP SWAP3 POP SWAP3 JUMP JUMPDEST PUSH1 0x0 PUSH8 0xFFFFFFFFFFFFFFFF DUP3 GT ISZERO PUSH2 0x400D JUMPI PUSH2 0x400C PUSH2 0x39FC JUMP JUMPDEST JUMPDEST PUSH2 0x4016 DUP3 PUSH2 0x3831 JUMP JUMPDEST SWAP1 POP PUSH1 0x20 DUP2 ADD SWAP1 POP SWAP2 SWAP1 POP JUMP JUMPDEST PUSH1 0x0 PUSH2 0x4036 PUSH2 0x4031 DUP5 PUSH2 0x3FF2 JUMP JUMPDEST PUSH2 0x3A5C JUMP JUMPDEST SWAP1 POP DUP3 DUP2 MSTORE PUSH1 0x20 DUP2 ADD DUP5 DUP5 DUP5 ADD GT ISZERO PUSH2 0x4052 JUMPI PUSH2 0x4051 PUSH2 0x39F7 JUMP JUMPDEST JUMPDEST PUSH2 0x405D DUP5 DUP3 DUP6 PUSH2 0x3AA8 JUMP JUMPDEST POP SWAP4 SWAP3 POP POP POP JUMP JUMPDEST PUSH1 0x0 DUP3 PUSH1 0x1F DUP4 ADD SLT PUSH2 0x407A JUMPI PUSH2 0x4079 PUSH2 0x39F2 JUMP JUMPDEST JUMPDEST DUP2 CALLDATALOAD PUSH2 0x408A DUP5 DUP3 PUSH1 0x20 DUP7 ADD PUSH2 0x4023 JUMP JUMPDEST SWAP2 POP POP SWAP3 SWAP2 POP POP JUMP JUMPDEST PUSH1 0x0 DUP1 PUSH1 0x0 DUP1 PUSH1 0x80 DUP6 DUP8 SUB SLT ISZERO PUSH2 0x40AD JUMPI PUSH2 0x40AC PUSH2 0x3726 JUMP JUMPDEST JUMPDEST PUSH1 0x0 PUSH2 0x40BB DUP8 DUP3 DUP9 ADD PUSH2 0x399D JUMP JUMPDEST SWAP5 POP POP PUSH1 0x20 PUSH2 0x40CC DUP8 DUP3 DUP9 ADD PUSH2 0x399D JUMP JUMPDEST SWAP4 POP POP PUSH1 0x40 PUSH2 0x40DD DUP8 DUP3 DUP9 ADD PUSH2 0x38BE JUMP JUMPDEST SWAP3 POP POP PUSH1 0x60 DUP6 ADD CALLDATALOAD PUSH8 0xFFFFFFFFFFFFFFFF DUP2 GT ISZERO PUSH2 0x40FE JUMPI PUSH2 0x40FD PUSH2 0x372B JUMP JUMPDEST JUMPDEST PUSH2 0x410A DUP8 DUP3 DUP9 ADD PUSH2 0x4065 JUMP JUMPDEST SWAP2 POP POP SWAP3 SWAP6 SWAP2 SWAP5 POP SWAP3 POP JUMP JUMPDEST PUSH1 0x0 DUP1 PUSH1 0x40 DUP4 DUP6 SUB SLT ISZERO PUSH2 0x412D JUMPI PUSH2 0x412C PUSH2 0x3726 JUMP JUMPDEST JUMPDEST PUSH1 0x0 PUSH2 0x413B DUP6 DUP3 DUP7 ADD PUSH2 0x399D JUMP JUMPDEST SWAP3 POP POP PUSH1 0x20 DUP4 ADD CALLDATALOAD PUSH8 0xFFFFFFFFFFFFFFFF DUP2 GT ISZERO PUSH2 0x415C JUMPI PUSH2 0x415B PUSH2 0x372B JUMP JUMPDEST JUMPDEST PUSH2 0x4168 DUP6 DUP3 DUP7 ADD PUSH2 0x3AF9 JUMP JUMPDEST SWAP2 POP POP SWAP3 POP SWAP3 SWAP1 POP JUMP JUMPDEST PUSH1 0x0 DUP1 PUSH1 0x40 DUP4 DUP6 SUB SLT ISZERO PUSH2 0x4189 JUMPI PUSH2 0x4188 PUSH2 0x3726 JUMP JUMPDEST JUMPDEST PUSH1 0x0 PUSH2 0x4197 DUP6 DUP3 DUP7 ADD PUSH2 0x399D JUMP JUMPDEST SWAP3 POP POP PUSH1 0x20 PUSH2 0x41A8 DUP6 DUP3 DUP7 ADD PUSH2 0x399D JUMP JUMPDEST SWAP2 POP POP SWAP3 POP SWAP3 SWAP1 POP JUMP JUMPDEST PUSH32 0x4E487B7100000000000000000000000000000000000000000000000000000000 PUSH1 0x0 MSTORE PUSH1 0x22 PUSH1 0x4 MSTORE PUSH1 0x24 PUSH1 0x0 REVERT JUMPDEST PUSH1 0x0 PUSH1 0x2 DUP3 DIV SWAP1 POP PUSH1 0x1 DUP3 AND DUP1 PUSH2 0x41F9 JUMPI PUSH1 0x7F DUP3 AND SWAP2 POP JUMPDEST PUSH1 0x20 DUP3 LT DUP2 SUB PUSH2 0x420C JUMPI PUSH2 0x420B PUSH2 0x41B2 JUMP JUMPDEST JUMPDEST POP SWAP2 SWAP1 POP JUMP JUMPDEST PUSH32 0x4552433732313A20617070726F76656420717565727920666F72206E6F6E6578 PUSH1 0x0 DUP3 ADD MSTORE PUSH32 0x697374656E7420746F6B656E0000000000000000000000000000000000000000 PUSH1 0x20 DUP3 ADD MSTORE POP JUMP JUMPDEST PUSH1 0x0 PUSH2 0x426E PUSH1 0x2C DUP4 PUSH2 0x37F6 JUMP JUMPDEST SWAP2 POP PUSH2 0x4279 DUP3 PUSH2 0x4212 JUMP JUMPDEST PUSH1 0x40 DUP3 ADD SWAP1 POP SWAP2 SWAP1 POP JUMP JUMPDEST PUSH1 0x0 PUSH1 0x20 DUP3 ADD SWAP1 POP DUP2 DUP2 SUB PUSH1 0x0 DUP4 ADD MSTORE PUSH2 0x429D DUP2 PUSH2 0x4261 JUMP JUMPDEST SWAP1 POP SWAP2 SWAP1 POP JUMP JUMPDEST PUSH32 0x4552433732313A20617070726F76616C20746F2063757272656E74206F776E65 PUSH1 0x0 DUP3 ADD MSTORE PUSH32 0x7200000000000000000000000000000000000000000000000000000000000000 PUSH1 0x20 DUP3 ADD MSTORE POP JUMP JUMPDEST PUSH1 0x0 PUSH2 0x4300 PUSH1 0x21 DUP4 PUSH2 0x37F6 JUMP JUMPDEST SWAP2 POP PUSH2 0x430B DUP3 PUSH2 0x42A4 JUMP JUMPDEST PUSH1 0x40 DUP3 ADD SWAP1 POP SWAP2 SWAP1 POP JUMP JUMPDEST PUSH1 0x0 PUSH1 0x20 DUP3 ADD SWAP1 POP DUP2 DUP2 SUB PUSH1 0x0 DUP4 ADD MSTORE PUSH2 0x432F DUP2 PUSH2 0x42F3 JUMP JUMPDEST SWAP1 POP SWAP2 SWAP1 POP JUMP JUMPDEST PUSH32 0x4552433732313A20617070726F76652063616C6C6572206973206E6F74206F77 PUSH1 0x0 DUP3 ADD MSTORE PUSH32 0x6E6572206E6F7220617070726F76656420666F7220616C6C0000000000000000 PUSH1 0x20 DUP3 ADD MSTORE POP JUMP JUMPDEST PUSH1 0x0 PUSH2 0x4392 PUSH1 0x38 DUP4 PUSH2 0x37F6 JUMP JUMPDEST SWAP2 POP PUSH2 0x439D DUP3 PUSH2 0x4336 JUMP JUMPDEST PUSH1 0x40 DUP3 ADD SWAP1 POP SWAP2 SWAP1 POP JUMP JUMPDEST PUSH1 0x0 PUSH1 0x20 DUP3 ADD SWAP1 POP DUP2 DUP2 SUB PUSH1 0x0 DUP4 ADD MSTORE PUSH2 0x43C1 DUP2 PUSH2 0x4385 JUMP JUMPDEST SWAP1 POP SWAP2 SWAP1 POP JUMP JUMPDEST PUSH32 0x4F776E61626C653A2063616C6C6572206973206E6F7420746865206F776E6572 PUSH1 0x0 DUP3 ADD MSTORE POP JUMP JUMPDEST PUSH1 0x0 PUSH2 0x43FE PUSH1 0x20 DUP4 PUSH2 0x37F6 JUMP JUMPDEST SWAP2 POP PUSH2 0x4409 DUP3 PUSH2 0x43C8 JUMP JUMPDEST PUSH1 0x20 DUP3 ADD SWAP1 POP SWAP2 SWAP1 POP JUMP JUMPDEST PUSH1 0x0 PUSH1 0x20 DUP3 ADD SWAP1 POP DUP2 DUP2 SUB PUSH1 0x0 DUP4 ADD MSTORE PUSH2 0x442D DUP2 PUSH2 0x43F1 JUMP JUMPDEST SWAP1 POP SWAP2 SWAP1 POP JUMP JUMPDEST PUSH32 0x4552433732313A207472616E736665722063616C6C6572206973206E6F74206F PUSH1 0x0 DUP3 ADD MSTORE PUSH32 0x776E6572206E6F7220617070726F766564000000000000000000000000000000 PUSH1 0x20 DUP3 ADD MSTORE POP JUMP JUMPDEST PUSH1 0x0 PUSH2 0x4490 PUSH1 0x31 DUP4 PUSH2 0x37F6 JUMP JUMPDEST SWAP2 POP PUSH2 0x449B DUP3 PUSH2 0x4434 JUMP JUMPDEST PUSH1 0x40 DUP3 ADD SWAP1 POP SWAP2 SWAP1 POP JUMP JUMPDEST PUSH1 0x0 PUSH1 0x20 DUP3 ADD SWAP1 POP DUP2 DUP2 SUB PUSH1 0x0 DUP4 ADD MSTORE PUSH2 0x44BF DUP2 PUSH2 0x4483 JUMP JUMPDEST SWAP1 POP SWAP2 SWAP1 POP JUMP JUMPDEST PUSH32 0x455243373231456E756D657261626C653A206F776E657220696E646578206F75 PUSH1 0x0 DUP3 ADD MSTORE PUSH32 0x74206F6620626F756E6473000000000000000000000000000000000000000000 PUSH1 0x20 DUP3 ADD MSTORE POP JUMP JUMPDEST PUSH1 0x0 PUSH2 0x4522 PUSH1 0x2B DUP4 PUSH2 0x37F6 JUMP JUMPDEST SWAP2 POP PUSH2 0x452D DUP3 PUSH2 0x44C6 JUMP JUMPDEST PUSH1 0x40 DUP3 ADD SWAP1 POP SWAP2 SWAP1 POP JUMP JUMPDEST PUSH1 0x0 PUSH1 0x20 DUP3 ADD SWAP1 POP DUP2 DUP2 SUB PUSH1 0x0 DUP4 ADD MSTORE PUSH2 0x4551 DUP2 PUSH2 0x4515 JUMP JUMPDEST SWAP1 POP SWAP2 SWAP1 POP JUMP JUMPDEST PUSH32 0x546F204164647265737365732043616E74204265206E756C6C2E000000000000 PUSH1 0x0 DUP3 ADD MSTORE POP JUMP JUMPDEST PUSH1 0x0 PUSH2 0x458E PUSH1 0x1A DUP4 PUSH2 0x37F6 JUMP JUMPDEST SWAP2 POP PUSH2 0x4599 DUP3 PUSH2 0x4558 JUMP JUMPDEST PUSH1 0x20 DUP3 ADD SWAP1 POP SWAP2 SWAP1 POP JUMP JUMPDEST PUSH1 0x0 PUSH1 0x20 DUP3 ADD SWAP1 POP DUP2 DUP2 SUB PUSH1 0x0 DUP4 ADD MSTORE PUSH2 0x45BD DUP2 PUSH2 0x4581 JUMP JUMPDEST SWAP1 POP SWAP2 SWAP1 POP JUMP JUMPDEST PUSH32 0x546F6B656E20555249732043616E74204265206E756C6C000000000000000000 PUSH1 0x0 DUP3 ADD MSTORE POP JUMP JUMPDEST PUSH1 0x0 PUSH2 0x45FA PUSH1 0x17 DUP4 PUSH2 0x37F6 JUMP JUMPDEST SWAP2 POP PUSH2 0x4605 DUP3 PUSH2 0x45C4 JUMP JUMPDEST PUSH1 0x20 DUP3 ADD SWAP1 POP SWAP2 SWAP1 POP JUMP JUMPDEST PUSH1 0x0 PUSH1 0x20 DUP3 ADD SWAP1 POP DUP2 DUP2 SUB PUSH1 0x0 DUP4 ADD MSTORE PUSH2 0x4629 DUP2 PUSH2 0x45ED JUMP JUMPDEST SWAP1 POP SWAP2 SWAP1 POP JUMP JUMPDEST PUSH32 0x436F756E742043616E74206265205A65726F0000000000000000000000000000 PUSH1 0x0 DUP3 ADD MSTORE POP JUMP JUMPDEST PUSH1 0x0 PUSH2 0x4666 PUSH1 0x12 DUP4 PUSH2 0x37F6 JUMP JUMPDEST SWAP2 POP PUSH2 0x4671 DUP3 PUSH2 0x4630 JUMP JUMPDEST PUSH1 0x20 DUP3 ADD SWAP1 POP SWAP2 SWAP1 POP JUMP JUMPDEST PUSH1 0x0 PUSH1 0x20 DUP3 ADD SWAP1 POP DUP2 DUP2 SUB PUSH1 0x0 DUP4 ADD MSTORE PUSH2 0x4695 DUP2 PUSH2 0x4659 JUMP JUMPDEST SWAP1 POP SWAP2 SWAP1 POP JUMP JUMPDEST PUSH32 0x416C6C20546F6B656E732048617665206265656E206D696E7465642E00000000 PUSH1 0x0 DUP3 ADD MSTORE POP JUMP JUMPDEST PUSH1 0x0 PUSH2 0x46D2 PUSH1 0x1C DUP4 PUSH2 0x37F6 JUMP JUMPDEST SWAP2 POP PUSH2 0x46DD DUP3 PUSH2 0x469C JUMP JUMPDEST PUSH1 0x20 DUP3 ADD SWAP1 POP SWAP2 SWAP1 POP JUMP JUMPDEST PUSH1 0x0 PUSH1 0x20 DUP3 ADD SWAP1 POP DUP2 DUP2 SUB PUSH1 0x0 DUP4 ADD MSTORE PUSH2 0x4701 DUP2 PUSH2 0x46C5 JUMP JUMPDEST SWAP1 POP SWAP2 SWAP1 POP JUMP JUMPDEST PUSH32 0x4E487B7100000000000000000000000000000000000000000000000000000000 PUSH1 0x0 MSTORE PUSH1 0x11 PUSH1 0x4 MSTORE PUSH1 0x24 PUSH1 0x0 REVERT JUMPDEST PUSH1 0x0 PUSH2 0x4742 DUP3 PUSH2 0x389D JUMP JUMPDEST SWAP2 POP PUSH2 0x474D DUP4 PUSH2 0x389D JUMP JUMPDEST SWAP3 POP DUP3 DUP3 ADD SWAP1 POP DUP1 DUP3 GT ISZERO PUSH2 0x4765 JUMPI PUSH2 0x4764 PUSH2 0x4708 JUMP JUMPDEST JUMPDEST SWAP3 SWAP2 POP POP JUMP JUMPDEST PUSH32 0x546F6B656E20636F756E742065786365656473207769746820617661696C6162 PUSH1 0x0 DUP3 ADD MSTORE PUSH32 0x6C65204E465427732E0000000000000000000000000000000000000000000000 PUSH1 0x20 DUP3 ADD MSTORE POP JUMP JUMPDEST PUSH1 0x0 PUSH2 0x47C7 PUSH1 0x29 DUP4 PUSH2 0x37F6 JUMP JUMPDEST SWAP2 POP PUSH2 0x47D2 DUP3 PUSH2 0x476B JUMP JUMPDEST PUSH1 0x40 DUP3 ADD SWAP1 POP SWAP2 SWAP1 POP JUMP JUMPDEST PUSH1 0x0 PUSH1 0x20 DUP3 ADD SWAP1 POP DUP2 DUP2 SUB PUSH1 0x0 DUP4 ADD MSTORE PUSH2 0x47F6 DUP2 PUSH2 0x47BA JUMP JUMPDEST SWAP1 POP SWAP2 SWAP1 POP JUMP JUMPDEST PUSH32 0x596F752068617665206578636565646564206D6178206D696E7420636F756E74 PUSH1 0x0 DUP3 ADD MSTORE PUSH32 0x2E00000000000000000000000000000000000000000000000000000000000000 PUSH1 0x20 DUP3 ADD MSTORE POP JUMP JUMPDEST PUSH1 0x0 PUSH2 0x4859 PUSH1 0x21 DUP4 PUSH2 0x37F6 JUMP JUMPDEST SWAP2 POP PUSH2 0x4864 DUP3 PUSH2 0x47FD JUMP JUMPDEST PUSH1 0x40 DUP3 ADD SWAP1 POP SWAP2 SWAP1 POP JUMP JUMPDEST PUSH1 0x0 PUSH1 0x20 DUP3 ADD SWAP1 POP DUP2 DUP2 SUB PUSH1 0x0 DUP4 ADD MSTORE PUSH2 0x4888 DUP2 PUSH2 0x484C JUMP JUMPDEST SWAP1 POP SWAP2 SWAP1 POP JUMP JUMPDEST PUSH32 0x546F6B656E205552492773202620636F756E7420646F6573206E6F74206D6174 PUSH1 0x0 DUP3 ADD MSTORE PUSH32 0x63682E0000000000000000000000000000000000000000000000000000000000 PUSH1 0x20 DUP3 ADD MSTORE POP JUMP JUMPDEST PUSH1 0x0 PUSH2 0x48EB PUSH1 0x23 DUP4 PUSH2 0x37F6 JUMP JUMPDEST SWAP2 POP PUSH2 0x48F6 DUP3 PUSH2 0x488F JUMP JUMPDEST PUSH1 0x40 DUP3 ADD SWAP1 POP SWAP2 SWAP1 POP JUMP JUMPDEST PUSH1 0x0 PUSH1 0x20 DUP3 ADD SWAP1 POP DUP2 DUP2 SUB PUSH1 0x0 DUP4 ADD MSTORE PUSH2 0x491A DUP2 PUSH2 0x48DE JUMP JUMPDEST SWAP1 POP SWAP2 SWAP1 POP JUMP JUMPDEST PUSH32 0x4E487B7100000000000000000000000000000000000000000000000000000000 PUSH1 0x0 MSTORE PUSH1 0x32 PUSH1 0x4 MSTORE PUSH1 0x24 PUSH1 0x0 REVERT JUMPDEST PUSH1 0x0 PUSH2 0x495B DUP3 PUSH2 0x389D JUMP JUMPDEST SWAP2 POP PUSH32 0xFFFFFFFFFFFFFFFFFFFFFFFFFFFFFFFFFFFFFFFFFFFFFFFFFFFFFFFFFFFFFFFF DUP3 SUB PUSH2 0x498D JUMPI PUSH2 0x498C PUSH2 0x4708 JUMP JUMPDEST JUMPDEST PUSH1 0x1 DUP3 ADD SWAP1 POP SWAP2 SWAP1 POP JUMP JUMPDEST PUSH32 0x446F73656E27742068617665206120656E6F7567682045544820666F72207472 PUSH1 0x0 DUP3 ADD MSTORE PUSH32 0x616E736665720000000000000000000000000000000000000000000000000000 PUSH1 0x20 DUP3 ADD MSTORE POP JUMP JUMPDEST PUSH1 0x0 PUSH2 0x49F4 PUSH1 0x26 DUP4 PUSH2 0x37F6 JUMP JUMPDEST SWAP2 POP PUSH2 0x49FF DUP3 PUSH2 0x4998 JUMP JUMPDEST PUSH1 0x40 DUP3 ADD SWAP1 POP SWAP2 SWAP1 POP JUMP JUMPDEST PUSH1 0x0 PUSH1 0x20 DUP3 ADD SWAP1 POP DUP2 DUP2 SUB PUSH1 0x0 DUP4 ADD MSTORE PUSH2 0x4A23 DUP2 PUSH2 0x49E7 JUMP JUMPDEST SWAP1 POP SWAP2 SWAP1 POP JUMP JUMPDEST PUSH1 0x0 DUP2 SWAP1 POP SWAP3 SWAP2 POP POP JUMP JUMPDEST POP JUMP JUMPDEST PUSH1 0x0 PUSH2 0x4A45 PUSH1 0x0 DUP4 PUSH2 0x4A2A JUMP JUMPDEST SWAP2 POP PUSH2 0x4A50 DUP3 PUSH2 0x4A35 JUMP JUMPDEST PUSH1 0x0 DUP3 ADD SWAP1 POP SWAP2 SWAP1 POP JUMP JUMPDEST PUSH1 0x0 PUSH2 0x4A66 DUP3 PUSH2 0x4A38 JUMP JUMPDEST SWAP2 POP DUP2 SWAP1 POP SWAP2 SWAP1 POP JUMP JUMPDEST PUSH1 0x0 DUP2 SWAP1 POP SWAP3 SWAP2 POP POP JUMP JUMPDEST PUSH32 0x4661696C656420746F2073656E64204574686572000000000000000000000000 PUSH1 0x0 DUP3 ADD MSTORE POP JUMP JUMPDEST PUSH1 0x0 PUSH2 0x4AB1 PUSH1 0x14 DUP4 PUSH2 0x4A70 JUMP JUMPDEST SWAP2 POP PUSH2 0x4ABC DUP3 PUSH2 0x4A7B JUMP JUMPDEST PUSH1 0x14 DUP3 ADD SWAP1 POP SWAP2 SWAP1 POP JUMP JUMPDEST PUSH1 0x0 DUP2 MLOAD SWAP1 POP SWAP2 SWAP1 POP JUMP JUMPDEST PUSH1 0x0 PUSH2 0x4ADD DUP3 PUSH2 0x4AC7 JUMP JUMPDEST PUSH2 0x4AE7 DUP2 DUP6 PUSH2 0x4A2A JUMP JUMPDEST SWAP4 POP PUSH2 0x4AF7 DUP2 DUP6 PUSH1 0x20 DUP7 ADD PUSH2 0x3807 JUMP JUMPDEST DUP1 DUP5 ADD SWAP2 POP POP SWAP3 SWAP2 POP POP JUMP JUMPDEST PUSH1 0x0 PUSH2 0x4B0E DUP3 PUSH2 0x4AA4 JUMP JUMPDEST SWAP2 POP PUSH2 0x4B1A DUP3 DUP5 PUSH2 0x4AD2 JUMP JUMPDEST SWAP2 POP DUP2 SWAP1 POP SWAP3 SWAP2 POP POP JUMP JUMPDEST PUSH32 0x4552433732314275726E61626C653A2063616C6C6572206973206E6F74206F77 PUSH1 0x0 DUP3 ADD MSTORE PUSH32 0x6E6572206E6F7220617070726F76656400000000000000000000000000000000 PUSH1 0x20 DUP3 ADD MSTORE POP JUMP JUMPDEST PUSH1 0x0 PUSH2 0x4B81 PUSH1 0x30 DUP4 PUSH2 0x37F6 JUMP JUMPDEST SWAP2 POP PUSH2 0x4B8C DUP3 PUSH2 0x4B25 JUMP JUMPDEST PUSH1 0x40 DUP3 ADD SWAP1 POP SWAP2 SWAP1 POP JUMP JUMPDEST PUSH1 0x0 PUSH1 0x20 DUP3 ADD SWAP1 POP DUP2 DUP2 SUB PUSH1 0x0 DUP4 ADD MSTORE PUSH2 0x4BB0 DUP2 PUSH2 0x4B74 JUMP JUMPDEST SWAP1 POP SWAP2 SWAP1 POP JUMP JUMPDEST PUSH32 0x455243373231456E756D657261626C653A20676C6F62616C20696E646578206F PUSH1 0x0 DUP3 ADD MSTORE PUSH32 0x7574206F6620626F756E64730000000000000000000000000000000000000000 PUSH1 0x20 DUP3 ADD MSTORE POP JUMP JUMPDEST PUSH1 0x0 PUSH2 0x4C13 PUSH1 0x2C DUP4 PUSH2 0x37F6 JUMP JUMPDEST SWAP2 POP PUSH2 0x4C1E DUP3 PUSH2 0x4BB7 JUMP JUMPDEST PUSH1 0x40 DUP3 ADD SWAP1 POP SWAP2 SWAP1 POP JUMP JUMPDEST PUSH1 0x0 PUSH1 0x20 DUP3 ADD SWAP1 POP DUP2 DUP2 SUB PUSH1 0x0 DUP4 ADD MSTORE PUSH2 0x4C42 DUP2 PUSH2 0x4C06 JUMP JUMPDEST SWAP1 POP SWAP2 SWAP1 POP JUMP JUMPDEST PUSH32 0x4552433732313A206F776E657220717565727920666F72206E6F6E6578697374 PUSH1 0x0 DUP3 ADD MSTORE PUSH32 0x656E7420746F6B656E0000000000000000000000000000000000000000000000 PUSH1 0x20 DUP3 ADD MSTORE POP JUMP JUMPDEST PUSH1 0x0 PUSH2 0x4CA5 PUSH1 0x29 DUP4 PUSH2 0x37F6 JUMP JUMPDEST SWAP2 POP PUSH2 0x4CB0 DUP3 PUSH2 0x4C49 JUMP JUMPDEST PUSH1 0x40 DUP3 ADD SWAP1 POP SWAP2 SWAP1 POP JUMP JUMPDEST PUSH1 0x0 PUSH1 0x20 DUP3 ADD SWAP1 POP DUP2 DUP2 SUB PUSH1 0x0 DUP4 ADD MSTORE PUSH2 0x4CD4 DUP2 PUSH2 0x4C98 JUMP JUMPDEST SWAP1 POP SWAP2 SWAP1 POP JUMP JUMPDEST PUSH32 0x4552433732313A2062616C616E636520717565727920666F7220746865207A65 PUSH1 0x0 DUP3 ADD MSTORE PUSH32 0x726F206164647265737300000000000000000000000000000000000000000000 PUSH1 0x20 DUP3 ADD MSTORE POP JUMP JUMPDEST PUSH1 0x0 PUSH2 0x4D37 PUSH1 0x2A DUP4 PUSH2 0x37F6 JUMP JUMPDEST SWAP2 POP PUSH2 0x4D42 DUP3 PUSH2 0x4CDB JUMP JUMPDEST PUSH1 0x40 DUP3 ADD SWAP1 POP SWAP2 SWAP1 POP JUMP JUMPDEST PUSH1 0x0 PUSH1 0x20 DUP3 ADD SWAP1 POP DUP2 DUP2 SUB PUSH1 0x0 DUP4 ADD MSTORE PUSH2 0x4D66 DUP2 PUSH2 0x4D2A JUMP JUMPDEST SWAP1 POP SWAP2 SWAP1 POP JUMP JUMPDEST PUSH1 0x0 PUSH2 0x4D78 DUP3 PUSH2 0x389D JUMP JUMPDEST SWAP2 POP PUSH2 0x4D83 DUP4 PUSH2 0x389D JUMP JUMPDEST SWAP3 POP DUP3 DUP3 MUL PUSH2 0x4D91 DUP2 PUSH2 0x389D JUMP JUMPDEST SWAP2 POP DUP3 DUP3 DIV DUP5 EQ DUP4 ISZERO OR PUSH2 0x4DA8 JUMPI PUSH2 0x4DA7 PUSH2 0x4708 JUMP JUMPDEST JUMPDEST POP SWAP3 SWAP2 POP POP JUMP JUMPDEST PUSH32 0x496E7375666669656E742045544820616D6F756E742073656E7420466F722050 PUSH1 0x0 DUP3 ADD MSTORE PUSH32 0x75726863617365204E4654732E00000000000000000000000000000000000000 PUSH1 0x20 DUP3 ADD MSTORE POP JUMP JUMPDEST PUSH1 0x0 PUSH2 0x4E0B PUSH1 0x2D DUP4 PUSH2 0x37F6 JUMP JUMPDEST SWAP2 POP PUSH2 0x4E16 DUP3 PUSH2 0x4DAF JUMP JUMPDEST PUSH1 0x40 DUP3 ADD SWAP1 POP SWAP2 SWAP1 POP JUMP JUMPDEST PUSH1 0x0 PUSH1 0x20 DUP3 ADD SWAP1 POP DUP2 DUP2 SUB PUSH1 0x0 DUP4 ADD MSTORE PUSH2 0x4E3A DUP2 PUSH2 0x4DFE JUMP JUMPDEST SWAP1 POP SWAP2 SWAP1 POP JUMP JUMPDEST PUSH32 0x546F6B656E205552492043616E74204265206E756C6C2E000000000000000000 PUSH1 0x0 DUP3 ADD MSTORE POP JUMP JUMPDEST PUSH1 0x0 PUSH2 0x4E77 PUSH1 0x17 DUP4 PUSH2 0x37F6 JUMP JUMPDEST SWAP2 POP PUSH2 0x4E82 DUP3 PUSH2 0x4E41 JUMP JUMPDEST PUSH1 0x20 DUP3 ADD SWAP1 POP SWAP2 SWAP1 POP JUMP JUMPDEST PUSH1 0x0 PUSH1 0x20 DUP3 ADD SWAP1 POP DUP2 DUP2 SUB PUSH1 0x0 DUP4 ADD MSTORE PUSH2 0x4EA6 DUP2 PUSH2 0x4E6A JUMP JUMPDEST SWAP1 POP SWAP2 SWAP1 POP JUMP JUMPDEST PUSH32 0x4F776E61626C653A206E6577206F776E657220697320746865207A65726F2061 PUSH1 0x0 DUP3 ADD MSTORE PUSH32 0x6464726573730000000000000000000000000000000000000000000000000000 PUSH1 0x20 DUP3 ADD MSTORE POP JUMP JUMPDEST PUSH1 0x0 PUSH2 0x4F09 PUSH1 0x26 DUP4 PUSH2 0x37F6 JUMP JUMPDEST SWAP2 POP PUSH2 0x4F14 DUP3 PUSH2 0x4EAD JUMP JUMPDEST PUSH1 0x40 DUP3 ADD SWAP1 POP SWAP2 SWAP1 POP JUMP JUMPDEST PUSH1 0x0 PUSH1 0x20 DUP3 ADD SWAP1 POP DUP2 DUP2 SUB PUSH1 0x0 DUP4 ADD MSTORE PUSH2 0x4F38 DUP2 PUSH2 0x4EFC JUMP JUMPDEST SWAP1 POP SWAP2 SWAP1 POP JUMP JUMPDEST PUSH32 0x45524337323155524953746F726167653A2055524920736574206F66206E6F6E PUSH1 0x0 DUP3 ADD MSTORE PUSH32 0x6578697374656E7420746F6B656E000000000000000000000000000000000000 PUSH1 0x20 DUP3 ADD MSTORE POP JUMP JUMPDEST PUSH1 0x0 PUSH2 0x4F9B PUSH1 0x2E DUP4 PUSH2 0x37F6 JUMP JUMPDEST SWAP2 POP PUSH2 0x4FA6 DUP3 PUSH2 0x4F3F JUMP JUMPDEST PUSH1 0x40 DUP3 ADD SWAP1 POP SWAP2 SWAP1 POP JUMP JUMPDEST PUSH1 0x0 PUSH1 0x20 DUP3 ADD SWAP1 POP DUP2 DUP2 SUB PUSH1 0x0 DUP4 ADD MSTORE PUSH2 0x4FCA DUP2 PUSH2 0x4F8E JUMP JUMPDEST SWAP1 POP SWAP2 SWAP1 POP JUMP JUMPDEST PUSH1 0x0 DUP2 SWAP1 POP DUP2 PUSH1 0x0 MSTORE PUSH1 0x20 PUSH1 0x0 KECCAK256 SWAP1 POP SWAP2 SWAP1 POP JUMP JUMPDEST PUSH1 0x0 PUSH1 0x20 PUSH1 0x1F DUP4 ADD DIV SWAP1 POP SWAP2 SWAP1 POP JUMP JUMPDEST PUSH1 0x0 DUP3 DUP3 SHL SWAP1 POP SWAP3 SWAP2 POP POP JUMP JUMPDEST PUSH1 0x0 PUSH1 0x8 DUP4 MUL PUSH2 0x5033 PUSH32 0xFFFFFFFFFFFFFFFFFFFFFFFFFFFFFFFFFFFFFFFFFFFFFFFFFFFFFFFFFFFFFFFF DUP3 PUSH2 0x4FF6 JUMP JUMPDEST PUSH2 0x503D DUP7 DUP4 PUSH2 0x4FF6 JUMP JUMPDEST SWAP6 POP DUP1 NOT DUP5 AND SWAP4 POP DUP1 DUP7 AND DUP5 OR SWAP3 POP POP POP SWAP4 SWAP3 POP POP POP JUMP JUMPDEST PUSH1 0x0 DUP2 SWAP1 POP SWAP2 SWAP1 POP JUMP JUMPDEST PUSH1 0x0 PUSH2 0x507A PUSH2 0x5075 PUSH2 0x5070 DUP5 PUSH2 0x389D JUMP JUMPDEST PUSH2 0x5055 JUMP JUMPDEST PUSH2 0x389D JUMP JUMPDEST SWAP1 POP SWAP2 SWAP1 POP JUMP JUMPDEST PUSH1 0x0 DUP2 SWAP1 POP SWAP2 SWAP1 POP JUMP JUMPDEST PUSH2 0x5094 DUP4 PUSH2 0x505F JUMP JUMPDEST PUSH2 0x50A8 PUSH2 0x50A0 DUP3 PUSH2 0x5081 JUMP JUMPDEST DUP5 DUP5 SLOAD PUSH2 0x5003 JUMP JUMPDEST DUP3 SSTORE POP POP POP POP JUMP JUMPDEST PUSH1 0x0 SWAP1 JUMP JUMPDEST PUSH2 0x50BD PUSH2 0x50B0 JUMP JUMPDEST PUSH2 0x50C8 DUP2 DUP5 DUP5 PUSH2 0x508B JUMP JUMPDEST POP POP POP JUMP JUMPDEST JUMPDEST DUP2 DUP2 LT ISZERO PUSH2 0x50EC JUMPI PUSH2 0x50E1 PUSH1 0x0 DUP3 PUSH2 0x50B5 JUMP JUMPDEST PUSH1 0x1 DUP2 ADD SWAP1 POP PUSH2 0x50CE JUMP JUMPDEST POP POP JUMP JUMPDEST PUSH1 0x1F DUP3 GT ISZERO PUSH2 0x5131 JUMPI PUSH2 0x5102 DUP2 PUSH2 0x4FD1 JUMP JUMPDEST PUSH2 0x510B DUP5 PUSH2 0x4FE6 JUMP JUMPDEST DUP2 ADD PUSH1 0x20 DUP6 LT ISZERO PUSH2 0x511A JUMPI DUP2 SWAP1 POP JUMPDEST PUSH2 0x512E PUSH2 0x5126 DUP6 PUSH2 0x4FE6 JUMP JUMPDEST DUP4 ADD DUP3 PUSH2 0x50CD JUMP JUMPDEST POP POP JUMPDEST POP POP POP JUMP JUMPDEST PUSH1 0x0 DUP3 DUP3 SHR SWAP1 POP SWAP3 SWAP2 POP POP JUMP JUMPDEST PUSH1 0x0 PUSH2 0x5154 PUSH1 0x0 NOT DUP5 PUSH1 0x8 MUL PUSH2 0x5136 JUMP JUMPDEST NOT DUP1 DUP4 AND SWAP2 POP POP SWAP3 SWAP2 POP POP JUMP JUMPDEST PUSH1 0x0 PUSH2 0x516D DUP4 DUP4 PUSH2 0x5143 JUMP JUMPDEST SWAP2 POP DUP3 PUSH1 0x2 MUL DUP3 OR SWAP1 POP SWAP3 SWAP2 POP POP JUMP JUMPDEST PUSH2 0x5186 DUP3 PUSH2 0x37EB JUMP JUMPDEST PUSH8 0xFFFFFFFFFFFFFFFF DUP2 GT ISZERO PUSH2 0x519F JUMPI PUSH2 0x519E PUSH2 0x39FC JUMP JUMPDEST JUMPDEST PUSH2 0x51A9 DUP3 SLOAD PUSH2 0x41E1 JUMP JUMPDEST PUSH2 0x51B4 DUP3 DUP3 DUP6 PUSH2 0x50F0 JUMP JUMPDEST PUSH1 0x0 PUSH1 0x20 SWAP1 POP PUSH1 0x1F DUP4 GT PUSH1 0x1 DUP2 EQ PUSH2 0x51E7 JUMPI PUSH1 0x0 DUP5 ISZERO PUSH2 0x51D5 JUMPI DUP3 DUP8 ADD MLOAD SWAP1 POP JUMPDEST PUSH2 0x51DF DUP6 DUP3 PUSH2 0x5161 JUMP JUMPDEST DUP7 SSTORE POP PUSH2 0x5247 JUMP JUMPDEST PUSH1 0x1F NOT DUP5 AND PUSH2 0x51F5 DUP7 PUSH2 0x4FD1 JUMP JUMPDEST PUSH1 0x0 JUMPDEST DUP3 DUP2 LT ISZERO PUSH2 0x521D JUMPI DUP5 DUP10 ADD MLOAD DUP3 SSTORE PUSH1 0x1 DUP3 ADD SWAP2 POP PUSH1 0x20 DUP6 ADD SWAP5 POP PUSH1 0x20 DUP2 ADD SWAP1 POP PUSH2 0x51F8 JUMP JUMPDEST DUP7 DUP4 LT ISZERO PUSH2 0x523A JUMPI DUP5 DUP10 ADD MLOAD PUSH2 0x5236 PUSH1 0x1F DUP10 AND DUP3 PUSH2 0x5143 JUMP JUMPDEST DUP4 SSTORE POP JUMPDEST PUSH1 0x1 PUSH1 0x2 DUP9 MUL ADD DUP9 SSTORE POP POP POP JUMPDEST POP POP POP POP POP POP JUMP JUMPDEST PUSH32 0x4552433732313A206F70657261746F7220717565727920666F72206E6F6E6578 PUSH1 0x0 DUP3 ADD MSTORE PUSH32 0x697374656E7420746F6B656E0000000000000000000000000000000000000000 PUSH1 0x20 DUP3 ADD MSTORE POP JUMP JUMPDEST PUSH1 0x0 PUSH2 0x52AB PUSH1 0x2C DUP4 PUSH2 0x37F6 JUMP JUMPDEST SWAP2 POP PUSH2 0x52B6 DUP3 PUSH2 0x524F JUMP JUMPDEST PUSH1 0x40 DUP3 ADD SWAP1 POP SWAP2 SWAP1 POP JUMP JUMPDEST PUSH1 0x0 PUSH1 0x20 DUP3 ADD SWAP1 POP DUP2 DUP2 SUB PUSH1 0x0 DUP4 ADD MSTORE PUSH2 0x52DA DUP2 PUSH2 0x529E JUMP JUMPDEST SWAP1 POP SWAP2 SWAP1 POP JUMP JUMPDEST PUSH32 0x4552433732313A207472616E736665722066726F6D20696E636F727265637420 PUSH1 0x0 DUP3 ADD MSTORE PUSH32 0x6F776E6572000000000000000000000000000000000000000000000000000000 PUSH1 0x20 DUP3 ADD MSTORE POP JUMP JUMPDEST PUSH1 0x0 PUSH2 0x533D PUSH1 0x25 DUP4 PUSH2 0x37F6 JUMP JUMPDEST SWAP2 POP PUSH2 0x5348 DUP3 PUSH2 0x52E1 JUMP JUMPDEST PUSH1 0x40 DUP3 ADD SWAP1 POP SWAP2 SWAP1 POP JUMP JUMPDEST PUSH1 0x0 PUSH1 0x20 DUP3 ADD SWAP1 POP DUP2 DUP2 SUB PUSH1 0x0 DUP4 ADD MSTORE PUSH2 0x536C DUP2 PUSH2 0x5330 JUMP JUMPDEST SWAP1 POP SWAP2 SWAP1 POP JUMP JUMPDEST PUSH32 0x4552433732313A207472616E7366657220746F20746865207A65726F20616464 PUSH1 0x0 DUP3 ADD MSTORE PUSH32 0x7265737300000000000000000000000000000000000000000000000000000000 PUSH1 0x20 DUP3 ADD MSTORE POP JUMP JUMPDEST PUSH1 0x0 PUSH2 0x53CF PUSH1 0x24 DUP4 PUSH2 0x37F6 JUMP JUMPDEST SWAP2 POP PUSH2 0x53DA DUP3 PUSH2 0x5373 JUMP JUMPDEST PUSH1 0x40 DUP3 ADD SWAP1 POP SWAP2 SWAP1 POP JUMP JUMPDEST PUSH1 0x0 PUSH1 0x20 DUP3 ADD SWAP1 POP DUP2 DUP2 SUB PUSH1 0x0 DUP4 ADD MSTORE PUSH2 0x53FE DUP2 PUSH2 0x53C2 JUMP JUMPDEST SWAP1 POP SWAP2 SWAP1 POP JUMP JUMPDEST PUSH1 0x0 PUSH2 0x5410 DUP3 PUSH2 0x389D JUMP JUMPDEST SWAP2 POP PUSH2 0x541B DUP4 PUSH2 0x389D JUMP JUMPDEST SWAP3 POP DUP3 DUP3 SUB SWAP1 POP DUP2 DUP2 GT ISZERO PUSH2 0x5433 JUMPI PUSH2 0x5432 PUSH2 0x4708 JUMP JUMPDEST JUMPDEST SWAP3 SWAP2 POP POP JUMP JUMPDEST PUSH32 0x5061757361626C653A206E6F7420706175736564000000000000000000000000 PUSH1 0x0 DUP3 ADD MSTORE POP JUMP JUMPDEST PUSH1 0x0 PUSH2 0x546F PUSH1 0x14 DUP4 PUSH2 0x37F6 JUMP JUMPDEST SWAP2 POP PUSH2 0x547A DUP3 PUSH2 0x5439 JUMP JUMPDEST PUSH1 0x20 DUP3 ADD SWAP1 POP SWAP2 SWAP1 POP JUMP JUMPDEST PUSH1 0x0 PUSH1 0x20 DUP3 ADD SWAP1 POP DUP2 DUP2 SUB PUSH1 0x0 DUP4 ADD MSTORE PUSH2 0x549E DUP2 PUSH2 0x5462 JUMP JUMPDEST SWAP1 POP SWAP2 SWAP1 POP JUMP JUMPDEST PUSH32 0x5061757361626C653A2070617573656400000000000000000000000000000000 PUSH1 0x0 DUP3 ADD MSTORE POP JUMP JUMPDEST PUSH1 0x0 PUSH2 0x54DB PUSH1 0x10 DUP4 PUSH2 0x37F6 JUMP JUMPDEST SWAP2 POP PUSH2 0x54E6 DUP3 PUSH2 0x54A5 JUMP JUMPDEST PUSH1 0x20 DUP3 ADD SWAP1 POP SWAP2 SWAP1 POP JUMP JUMPDEST PUSH1 0x0 PUSH1 0x20 DUP3 ADD SWAP1 POP DUP2 DUP2 SUB PUSH1 0x0 DUP4 ADD MSTORE PUSH2 0x550A DUP2 PUSH2 0x54CE JUMP JUMPDEST SWAP1 POP SWAP2 SWAP1 POP JUMP JUMPDEST PUSH32 0x4552433732313A20617070726F766520746F2063616C6C657200000000000000 PUSH1 0x0 DUP3 ADD MSTORE POP JUMP JUMPDEST PUSH1 0x0 PUSH2 0x5547 PUSH1 0x19 DUP4 PUSH2 0x37F6 JUMP JUMPDEST SWAP2 POP PUSH2 0x5552 DUP3 PUSH2 0x5511 JUMP JUMPDEST PUSH1 0x20 DUP3 ADD SWAP1 POP SWAP2 SWAP1 POP JUMP JUMPDEST PUSH1 0x0 PUSH1 0x20 DUP3 ADD SWAP1 POP DUP2 DUP2 SUB PUSH1 0x0 DUP4 ADD MSTORE PUSH2 0x5576 DUP2 PUSH2 0x553A JUMP JUMPDEST SWAP1 POP SWAP2 SWAP1 POP JUMP JUMPDEST PUSH32 0x4552433732313A207472616E7366657220746F206E6F6E204552433732315265 PUSH1 0x0 DUP3 ADD MSTORE PUSH32 0x63656976657220696D706C656D656E7465720000000000000000000000000000 PUSH1 0x20 DUP3 ADD MSTORE POP JUMP JUMPDEST PUSH1 0x0 PUSH2 0x55D9 PUSH1 0x32 DUP4 PUSH2 0x37F6 JUMP JUMPDEST SWAP2 POP PUSH2 0x55E4 DUP3 PUSH2 0x557D JUMP JUMPDEST PUSH1 0x40 DUP3 ADD SWAP1 POP SWAP2 SWAP1 POP JUMP JUMPDEST PUSH1 0x0 PUSH1 0x20 DUP3 ADD SWAP1 POP DUP2 DUP2 SUB PUSH1 0x0 DUP4 ADD MSTORE PUSH2 0x5608 DUP2 PUSH2 0x55CC JUMP JUMPDEST SWAP1 POP SWAP2 SWAP1 POP JUMP JUMPDEST PUSH32 0x45524337323155524953746F726167653A2055524920717565727920666F7220 PUSH1 0x0 DUP3 ADD MSTORE PUSH32 0x6E6F6E6578697374656E7420746F6B656E000000000000000000000000000000 PUSH1 0x20 DUP3 ADD MSTORE POP JUMP JUMPDEST PUSH1 0x0 PUSH2 0x566B PUSH1 0x31 DUP4 PUSH2 0x37F6 JUMP JUMPDEST SWAP2 POP PUSH2 0x5676 DUP3 PUSH2 0x560F JUMP JUMPDEST PUSH1 0x40 DUP3 ADD SWAP1 POP SWAP2 SWAP1 POP JUMP JUMPDEST PUSH1 0x0 PUSH1 0x20 DUP3 ADD SWAP1 POP DUP2 DUP2 SUB PUSH1 0x0 DUP4 ADD MSTORE PUSH2 0x569A DUP2 PUSH2 0x565E JUMP JUMPDEST SWAP1 POP SWAP2 SWAP1 POP JUMP JUMPDEST PUSH1 0x0 PUSH2 0x56AC DUP3 PUSH2 0x37EB JUMP JUMPDEST PUSH2 0x56B6 DUP2 DUP6 PUSH2 0x4A70 JUMP JUMPDEST SWAP4 POP PUSH2 0x56C6 DUP2 DUP6 PUSH1 0x20 DUP7 ADD PUSH2 0x3807 JUMP JUMPDEST DUP1 DUP5 ADD SWAP2 POP POP SWAP3 SWAP2 POP POP JUMP JUMPDEST PUSH1 0x0 PUSH2 0x56DE DUP3 DUP6 PUSH2 0x56A1 JUMP JUMPDEST SWAP2 POP PUSH2 0x56EA DUP3 DUP5 PUSH2 0x56A1 JUMP JUMPDEST SWAP2 POP DUP2 SWAP1 POP SWAP4 SWAP3 POP POP POP JUMP JUMPDEST PUSH1 0x0 DUP3 DUP3 MSTORE PUSH1 0x20 DUP3 ADD SWAP1 POP SWAP3 SWAP2 POP POP JUMP JUMPDEST PUSH1 0x0 PUSH2 0x5712 DUP3 PUSH2 0x4AC7 JUMP JUMPDEST PUSH2 0x571C DUP2 DUP6 PUSH2 0x56F6 JUMP JUMPDEST SWAP4 POP PUSH2 0x572C DUP2 DUP6 PUSH1 0x20 DUP7 ADD PUSH2 0x3807 JUMP JUMPDEST PUSH2 0x5735 DUP2 PUSH2 0x3831 JUMP JUMPDEST DUP5 ADD SWAP2 POP POP SWAP3 SWAP2 POP POP JUMP JUMPDEST PUSH1 0x0 PUSH1 0x80 DUP3 ADD SWAP1 POP PUSH2 0x5755 PUSH1 0x0 DUP4 ADD DUP8 PUSH2 0x3932 JUMP JUMPDEST PUSH2 0x5762 PUSH1 0x20 DUP4 ADD DUP7 PUSH2 0x3932 JUMP JUMPDEST PUSH2 0x576F PUSH1 0x40 DUP4 ADD DUP6 PUSH2 0x395C JUMP JUMPDEST DUP2 DUP2 SUB PUSH1 0x60 DUP4 ADD MSTORE PUSH2 0x5781 DUP2 DUP5 PUSH2 0x5707 JUMP JUMPDEST SWAP1 POP SWAP6 SWAP5 POP POP POP POP POP JUMP JUMPDEST PUSH1 0x0 DUP2 MLOAD SWAP1 POP PUSH2 0x579B DUP2 PUSH2 0x375C JUMP JUMPDEST SWAP3 SWAP2 POP POP JUMP JUMPDEST PUSH1 0x0 PUSH1 0x20 DUP3 DUP5 SUB SLT ISZERO PUSH2 0x57B7 JUMPI PUSH2 0x57B6 PUSH2 0x3726 JUMP JUMPDEST JUMPDEST PUSH1 0x0 PUSH2 0x57C5 DUP5 DUP3 DUP6 ADD PUSH2 0x578C JUMP JUMPDEST SWAP2 POP POP SWAP3 SWAP2 POP POP JUMP JUMPDEST PUSH32 0x4552433732314D657461646174613A2055524920717565727920666F72206E6F PUSH1 0x0 DUP3 ADD MSTORE PUSH32 0x6E6578697374656E7420746F6B656E0000000000000000000000000000000000 PUSH1 0x20 DUP3 ADD MSTORE POP JUMP JUMPDEST PUSH1 0x0 PUSH2 0x582A PUSH1 0x2F DUP4 PUSH2 0x37F6 JUMP JUMPDEST SWAP2 POP PUSH2 0x5835 DUP3 PUSH2 0x57CE JUMP JUMPDEST PUSH1 0x40 DUP3 ADD SWAP1 POP SWAP2 SWAP1 POP JUMP JUMPDEST PUSH1 0x0 PUSH1 0x20 DUP3 ADD SWAP1 POP DUP2 DUP2 SUB PUSH1 0x0 DUP4 ADD MSTORE PUSH2 0x5859 DUP2 PUSH2 0x581D JUMP JUMPDEST SWAP1 POP SWAP2 SWAP1 POP JUMP JUMPDEST PUSH32 0x4552433732313A206D696E7420746F20746865207A65726F2061646472657373 PUSH1 0x0 DUP3 ADD MSTORE POP JUMP JUMPDEST PUSH1 0x0 PUSH2 0x5896 PUSH1 0x20 DUP4 PUSH2 0x37F6 JUMP JUMPDEST SWAP2 POP PUSH2 0x58A1 DUP3 PUSH2 0x5860 JUMP JUMPDEST PUSH1 0x20 DUP3 ADD SWAP1 POP SWAP2 SWAP1 POP JUMP JUMPDEST PUSH1 0x0 PUSH1 0x20 DUP3 ADD SWAP1 POP DUP2 DUP2 SUB PUSH1 0x0 DUP4 ADD MSTORE PUSH2 0x58C5 DUP2 PUSH2 0x5889 JUMP JUMPDEST SWAP1 POP SWAP2 SWAP1 POP JUMP JUMPDEST PUSH32 0x4552433732313A20746F6B656E20616C7265616479206D696E74656400000000 PUSH1 0x0 DUP3 ADD MSTORE POP JUMP JUMPDEST PUSH1 0x0 PUSH2 0x5902 PUSH1 0x1C DUP4 PUSH2 0x37F6 JUMP JUMPDEST SWAP2 POP PUSH2 0x590D DUP3 PUSH2 0x58CC JUMP JUMPDEST PUSH1 0x20 DUP3 ADD SWAP1 POP SWAP2 SWAP1 POP JUMP JUMPDEST PUSH1 0x0 PUSH1 0x20 DUP3 ADD SWAP1 POP DUP2 DUP2 SUB PUSH1 0x0 DUP4 ADD MSTORE PUSH2 0x5931 DUP2 PUSH2 0x58F5 JUMP JUMPDEST SWAP1 POP SWAP2 SWAP1 POP JUMP JUMPDEST PUSH32 0x4E487B7100000000000000000000000000000000000000000000000000000000 PUSH1 0x0 MSTORE PUSH1 0x12 PUSH1 0x4 MSTORE PUSH1 0x24 PUSH1 0x0 REVERT JUMPDEST PUSH1 0x0 PUSH2 0x5972 DUP3 PUSH2 0x389D JUMP JUMPDEST SWAP2 POP PUSH2 0x597D DUP4 PUSH2 0x389D JUMP JUMPDEST SWAP3 POP DUP3 PUSH2 0x598D JUMPI PUSH2 0x598C PUSH2 0x5938 JUMP JUMPDEST JUMPDEST DUP3 DUP3 DIV SWAP1 POP SWAP3 SWAP2 POP POP JUMP JUMPDEST PUSH1 0x0 PUSH2 0x59A3 DUP3 PUSH2 0x389D JUMP JUMPDEST SWAP2 POP PUSH2 0x59AE DUP4 PUSH2 0x389D JUMP JUMPDEST SWAP3 POP DUP3 PUSH2 0x59BE JUMPI PUSH2 0x59BD PUSH2 0x5938 JUMP JUMPDEST JUMPDEST DUP3 DUP3 MOD SWAP1 POP SWAP3 SWAP2 POP POP JUMP JUMPDEST PUSH32 0x4E487B7100000000000000000000000000000000000000000000000000000000 PUSH1 0x0 MSTORE PUSH1 0x31 PUSH1 0x4 MSTORE PUSH1 0x24 PUSH1 0x0 REVERT INVALID LOG2 PUSH5 0x6970667358 0x22 SLT KECCAK256 PUSH4 0x1FA67425 SWAP2 0xC0 PUSH30 0xCA01F5290342AAF555801A005883DF686B88C86D03D3434464736F6C6343 STOP ADDMOD GT STOP CALLER "},"methodIdentifiers":{"MAX_NFTS()":"093d8c64","approve(address,uint256)":"095ea7b3","balanceOf(address)":"70a08231","batchMint(address,string[],uint256)":"b5d279e7","batchMintByAdmin(address[],string[],uint256)":"3c1a291f","burn(uint256)":"42966c68","getApproved(uint256)":"081812fc","getMaxMint()":"1f46452f","getMaxNfts()":"a2245832","getNFTPrice()":"fb107a4f","isApprovedForAll(address,address)":"e985e9c5","maxMint()":"7501f741","name()":"06fdde03","nftPrice()":"0d39fc81","owner()":"8da5cb5b","ownerOf(uint256)":"6352211e","pause()":"8456cb59","paused()":"5c975abb","renounceOwnership()":"715018a6","safeMint(address,string)":"d204c45e","safeTransferFrom(address,address,uint256)":"42842e0e","safeTransferFrom(address,address,uint256,bytes)":"b88d4fde","setApprovalForAll(address,bool)":"a22cb465","setMaxMint(uint256)":"547520fe","setMaxNfts(uint256)":"3a329d95","setNFTPrice(uint256)":"81530b68","supportsInterface(bytes4)":"01ffc9a7","symbol()":"95d89b41","tokenByIndex(uint256)":"4f6ccce7","tokenOfOwnerByIndex(address,uint256)":"2f745c59","tokenURI(uint256)":"c87b56dd","tokensOfOwner(address)":"8462151c","totalSupply()":"18160ddd","transferFrom(address,address,uint256)":"23b872dd","transferOwnership(address)":"f2fde38b","unpause()":"3f4ba83a","updateTokenURI(uint256,string)":"18e97fd1","withdraw()":"3ccfd60b"}}}}}